:020000040800F2
:10000000201E002089010008192300081D1E000879
:10001000BF210008510D0008412C0008000000001D
:10002000000000000000000000000000D9260008C9
:100030005917000800000000FD2300084B280008A5
:10004000A3010008A3010008A3010008A301000800
:10005000A3010008A3010008A3010008A3010008F0
:10006000A3010008A3010008A3010008A3010008E0
:10007000A3010008A3010008A3010008A3010008D0
:10008000A3010008A3010008A3010008A3010008C0
:10009000A3010008A3010008A3010008A3010008B0
:1000A000A3010008A3010008A3010008A3010008A0
:1000B000A3010008A3010008A3010008A301000890
:1000C000A3010008A3010008A3010008A301000880
:1000D000A3010008B928000805290008A3010008A9
:1000E000A3010008A3010008A3010008000000000C
:1000F0000000000000000000000000000000000000
:100100000000000000000000A3010008A301000897
:10011000A3010008A3010008A3010008A30100082F
:10012000A3010008A3010008A3010008A30100081F
:10013000A3010008A3010008A3010008A30100080F
:10014000A3010008A3010008A3010008A3010008FF
:10015000DFF810D000F040FC0048004745390008A7
:10016000AFF30080201E0020EFF30980704780F37A
:1001700009887047EFF30880704780F3088870475C
:1001800040BA7047C0BA70470648804706480047E3
:10019000FEE7FEE7FEE7FEE7FEE7FEE7FEE7FEE737
:1001A000FEE7FEE74D2800085101000840EA010380
:1001B0009B0703D009E008C9121F08C0042AFAD21D
:1001C00003E011F8013B00F8013B521EF9D27047E1
:1001D000D2B201E000F8012B491EFBD27047002289
:1001E000F6E710B513460A4604461946FFF7F0FF36
:1001F000204610BD30B505462A460B4612F8010BC5
:1002000013F8014B08B1A042F8D01CB1002802D06D
:100210006D1CF1E7284630BDCAB2401E10F8011F20
:100220008A4202D00029F9D100207047421C10F800
:10023000011B0029FBD1801A704710B5002200E095
:10024000521C835C8C5CA34201D1002BF8D1D8B244
:10025000E1B2401A10BD034611F8012B00F8012B42
:10026000002AF9D11846704730B5054600200346EC
:1002700000E05B1C934205D2EC5CC85C201A01D103
:10028000002CF6D130BD70B5064602F069FD046859
:1002900005460A220021304600F0C0F92C6070BDEE
:1002A00080EA010210B502F00043400022D04A006B
:1002B0001FD0010E01EB1261C0F35600C2F35602CB
:1002C00040F4000042F40002A0FB022000047F3949
:1002D000140400D0401C50EA124001D44000491ED2
:1002E000C2B20C0604EBD010401C4008802A02D099
:1002F00003E0002010BD20F00100002900DA0020FA
:10030000184310BD30B480EA010202F0004530F01D
:10031000004221F0004013D090B1C30DD40DC2F3C0
:100320001601C0F31600E41A41F4000140F4000283
:100330007D34914201D3641C00E04900002C02DAB4
:1003400030BC002070474FF400000023914201D3DD
:10035000891A034340084FEA4101F7D151B1914254
:1003600002D14FF0004105E002D24FF0010101E05F
:100370006FF0010103EBC450284430BC00F086B993
:100380002DE9FE4F804681EA0300C00F0C46009025
:1003900021F0004123F00045B8EB0200A94105D24D
:1003A0004046214690461C460B46024623F000403C
:1003B000104347D0270DC7F30A00C3F30A51029038
:1003C000401A019040286BDAC3F3130040F4801BFD
:1003D0000098924620B10023D2EB030A63EB0B0B8B
:1003E00001985946C0F14002504600F0F6F8064622
:1003F0000D4650465946019A00F0FEF810EB0800F1
:100400006141002487EA115284EAE7731A4340D01D
:10041000009A62B3019A012A4FEA075215DC001BC9
:1004200061EB02014FF0004202EA0752CDE90042BF
:10043000001C41F5801132462B4600F06DF903B0E7
:10044000BDE8F08F40462146F9E7001B61EB020151
:10045000001C41F5801300185B412018A2F500171D
:1004600047EB030140EAD570B6196D4111E06D0804
:100470004FEA360645EAC0754FEA0752001B61EBAA
:100480000201001C41F5801149084FEA30000019B3
:10049000514132462B4603B0BDE8F04F00F02DB974
:1004A0000098012240000023D0EB020263EBE073CE
:1004B000009821464FEAE074B8EB000061EB0401BC
:1004C000E9E783F000435BE781F0004158E79623BA
:1004D0000022114600F0E3B800F0004230F0004086
:1004E0000AD0C10D01F56071C0F3160042EA015156
:1004F000C20840071143704700200146704701F0D1
:10050000004330B421F0004150EA010206D00A0D48
:10051000A2F56072C1F31301002A02DC30BC002096
:100520007047440F44EAC104C100E01830BC00EB3E
:10053000C25000F0ABB80000002801DBC0F1004061
:10054000002901DBC1F100418842704730B50B46FC
:10055000014600202022012409E021FA02F59D42F3
:1005600005D303FA02F5491B04FA02F52844151EC7
:10057000A2F10102F1DC30BD2DE9F05F054600205B
:1005800092469B4688460646814640241BE0284604
:1005900041464746224600F031FA53465A46C01AB1
:1005A000914110D311461846224600F016F82D1A34
:1005B00067EB01084F4622460120002100F00DF8AC
:1005C00017EB00094E41201EA4F10104DFDC484670
:1005D00031462A464346BDE8F09F202A04DB203AF4
:1005E00000FA02F1002070479140C2F1200320FA86
:1005F00003F3194390407047202A06DBCB17203ABB
:1006000041FA02F043EAE07306E041FA02F3D04017
:10061000C2F1200291400843194670472DE9F04786
:1006200091460F4680460446002614F8015B2DB122
:1006300000F0F4F90068405DC007F6D12B2D02D020
:100640002D2D18D0641E4A463946204600F0EAF99E
:1006500027B13968A14201D1C7F8008071054FF078
:1006600002040BD54042002803DD02F079FB046050
:10067000A007BDE8F08746F48066E4E70028F8DAD2
:1006800002F06EFB04606FF00040F2E70029A8BFA3
:100690007047401C490008BF20F00100704710B4AB
:1006A000B0FA80FC00FA0CF050EA010404BF10BC60
:1006B000704749B1CCF1200421FA04F411FA0CF18D
:1006C00018BF012121430843A3EB0C01CB1D4FEAC6
:1006D00000614FEA102042BF002010BC704700EBC1
:1006E000C35010440029A4BF10BC7047401C4900EF
:1006F00008BF20F0010010BC704710B5141E73F144
:10070000000408DA401C41F1000192185B411A43D1
:1007100001D120F0010010BD2DE9F04D92469B461D
:1007200011B1B1FA81F202E0B0FA80F220329046C3
:10073000FFF753FF04460F4640EA0A0041EA0B0167
:1007400053465A46084313D0114653EA010019D0C4
:10075000C8F14002504600F051F905460E46504699
:1007600059464246FFF739FF084305D0012004E00F
:1007700020463946BDE8F08D0020054346EAE07684
:100780002C4337430A986305E40AA0EB08000022D3
:10079000FD0A44EA47540A3002D500200146E9E741
:1007A000010510196941DDE9084500196941BDE8F5
:1007B000F04DA2E72DE9FE4F81EA030404F0004466
:1007C00021F0004100944FF0000B23F0004350EA69
:1007D00001045ED052EA03045BD0C3F30A54C1F3B0
:1007E0000A552C44A4F2F3340194A0FB0254C1F343
:1007F000130141F48011C3F3130343F4801301FB8D
:10080000024400FB034E840A970A44EA815447EAF3
:100810008357A4FB076802958D0A05FB07854FEAFD
:10082000932C04FB0C542705029D4FEA065847EA17
:100830001637B5EB08056EEB070C870E920E47EAEC
:10084000811742EA8312A7FB0201B6EB0B0164EBAE
:1008500000042B0D43EA0C335E1844EB1C50DA46BF
:100860005146E7FB0201C5F313044FEA0B3343EA99
:1008700014534FEA0432019C43EA0603A4F10C042A
:100880000294009CCDE900B4FFF746FF03B0BDE839
:10089000F08F00200146F9E72DE9F04D81EA0304CD
:1008A00004F0004B21F0004514464FF0000A23F0FD
:1008B000004150EA050220D054EA01021DD0C5F3E0
:1008C0000A570246C5F31303C1F31300C1F30A56D6
:1008D00040F4801543F48013A7EB0608101BD6469E
:1008E00008F2FD3873EB050002D308F1010801E0BE
:1008F00092185B41B8F1000F03DA00200146BDE811
:10090000F08D00204FF48011064684460EE0171B40
:1009100073EB050705D3121B63EB050306434CEA93
:10092000010C49084FEA300092185B4150EA010778
:10093000EDD152EA030012D082EA040083EA0501F5
:10094000084305D0101BAB4106D20122002306E06C
:1009500000224FF0004302E06FF0010253101AEB47
:1009600006004CEB085110EB0A0041EB0B01BDE80F
:10097000F04DFFF7C2BEC1F30A52C1F3130140F2BA
:10098000FF3341F480119A4202DA00200146704799
:1009900040F233439A42A2F2334202DC524200F068
:1009A0002DB8FFF71ABE000030B5041E71F1000427
:1009B00004DB4FF00044404264EB0101141E73F16C
:1009C000000405DB1C464FF00043524263EB040376
:1009D000994208BF904230BD064C074D06E0E068E2
:1009E00040F0010394E8070098471034AC42F6D376
:1009F000FFF7B2FBD43C0008F43C0008202A04DBDB
:100A0000203A21FA02F00021704721FA02F3D04087
:100A1000C2F12002914008431946704700487047D0
:100A2000283C00082DE9F05F824600780027154633
:100A30008B460AF10104B946302801D09DB113E07C
:100A400014F8010B0127782803D0582801D045B1AC
:100A50000AE00DB1102D07D10027102514F8010B65
:100A600002E0082500E00A250026B0460EE005FB5E
:100A7000080005FB06F1012701EB10461FFA80F87C
:100A8000B6F5803F00D3B94614F8010B294600F0B3
:100A900018F80028EBDABBF1000F05D00FB1641E87
:100AA00000E05446CBF80040B9F1000F06D002F048
:100AB00057F902210160C81EBDE8F09F48EA0640D0
:100AC000FAE73A2800D2303820F02002412A01D338
:100AD000A2F13700884201D34FF0FF30704710B5C4
:100AE00001F082FC322000F038FE01F085F932205E
:100AF00000F033FE00F02EF900F052FE01F0A0FAF3
:100B000010BD21B1826842F00102826003E0826878
:100B100022F0010282607047014600208A6802F0DC
:100B200004020AB1012000E0002070470146C86CB1
:100B300080B270470246002013680B400BB10120C1
:100B400000E000207047014600208A6802F0080299
:100B50000AB1012000E000207047000030B50246D5
:100B60000020002350680F4C20400D790C6844EAA7
:100B700005242043506090680B4C2040D1E902547A
:100B80002C434D7944EA450420439060D06A20F418
:100B900070000C7C641EE4B2234340EA0350D06230
:100BA00030BD0000FFFEF0FFFDF7F1FFF0B5044699
:100BB0000D4600200021092D11DDE068A5F10A068F
:100BC00006EB4607072606FA07F18843A5F10A0651
:100BD00006EB460603FA06F10843E0600CE02069E4
:100BE00005EB4507072606FA07F1884305EB45069E
:100BF00003FA06F108432061072A0FDA606B561EDC
:100C000006EB86071F2606FA07F18843561E06EBF9
:100C1000860605FA06F10843606322E00D2A0FDA22
:100C2000206BD61F06EB86071F2606FA07F18843BE
:100C3000D61F06EB860605FA06F10843206310E08E
:100C4000E06AA2F10D0606EB86071F2606FA07F1F9
:100C50008843A2F10D0606EB860605FA06F1084365
:100C6000E062F0BD816841F008018160704721B108
:100C7000826842F4A002826003E0826822F4A0024B
:100C800082607047816841F0040181607047000014
:100C900010B501210648FFF7EAFF00BF0221044812
:100CA000FFF748FF0028F9D00148FFF73FFF10BDCC
:100CB0000024014000B587B00121480201F0F8FB93
:100CC0000121042001F0F4FB002001F0C5FB00200D
:100CD0008DF81B008020ADF8180003208DF81A0055
:100CE00006A9194800F070FF0523012207211748C3
:100CF000FFF75CFF0020019004904FF46020039008
:100D000000208DF809008DF8080001208DF81400EE
:100D100001A90E48FFF722FF01210C48FFF7F1FE61
:100D20000A48FFF79FFF00BF0848FFF70CFF0128A4
:100D3000FAD00648FFF7A6FF00BF0448FFF7ECFE15
:100D40000128FAD007B000BD00080140002401408E
:100D500000BFFEE710B501F073F93FA001F05CFFA2
:100D60004FF47A7000F0F9FC3EA14248FFF742FAD6
:100D7000414908600EE000F0DBFC37A001F04CFFB9
:100D80004FF47A7000F0E9FC36A13A48FFF732FAE6
:100D900039490860384800680028ECD037A001F0D5
:100DA000BBFF00F0C5FC3BA001F036FF4FF4FA702A
:100DB00000F0D3FC3AA12F48FFF71CFA2E49086037
:100DC0000846006820B12B490E3137A001F0A4FF7E
:100DD00000F0AEFC3AA001F01FFF4FF4FA6000F003
:100DE000BCFC3AA12348FFF705FA234908600846EE
:100DF000006818B938A11F48FFF7FCF915E000F0AA
:100E000097FC2FA001F008FF4FF47A7000F0A5FCCA
:100E10002EA11848FFF7EEF9174908600846006848
:100E200018B92DA11348FFF7E5F913480068002809
:100E3000E5D000F07DFC2BA001F0EEFE4FF4FA703F
:100E400000F08BFC2AA10B48FFF7D4F90A4908608F
:100E500000F06EFC10BD000041542B4350494E3F42
:100E60000D0A00002B4350494E3A20524541445947
:100E70000000000048000020140000202A2A2A2A2E
:100E800053494D202052454144592A2A2A2A0D0A05
:100E90000000000041542B4353510D0A0000000094
:100EA0002B4353513A0000002A2A2A2A2A2043536E
:100EB000513A2573202A2A2A2A2A0D0A0000000006
:100EC00041542B43475245473F0D0A002B4347529D
:100ED00045473A20302C31002B43475245473A20B2
:100EE000302C350041542B43474143543F0D0A00F9
:100EF0002B43474143543A0010B504A001F08CFE47
:100F0000642000F02AFC00F013FC10BD41542B4873
:100F10005454505445524D0D0A0000002DE9F34F32
:100F20008BB000240C980A904FF4FA619F48FFF7A9
:100F300056F99F499D480B9A01F0FEFE9B4801F02F
:100F40006BFE4FF47A7000F008FC9AA19A48FFF704
:100F500051F99A4908600846006830B998A001F034
:100F6000DBFE00200DB0BDE8F08F00F0E1FB9CA09F
:100F700001F052FE40F6B83000F0EFFB9DA18E4824
:100F8000FFF738F98D49086000209F49086017E095
:100F90009D480068401C9C490860084600680A2873
:100FA00004DD9AA001F0B8FE0020DBE74FF47A7070
:100FB00000F0D3FB8FA18048FFF71CF97F49086040
:100FC0007E4800680028E3D07C48006813307B49E5
:100FD000086008460068FFF756F90446214693A0CA
:100FE00001F09AFE00F0A4FB34B996A001F094FE43
:100FF000FFF782FF0020B5E700F09AFB04F2FF70D4
:10100000C00A099096A0099901F086FE002605E025
:101010000C9901EBC62000F076FD761C09988642FB
:10102000F6D30025AB46AEE0601BB0F57A7F02D95F
:101030004FF47A7000E0601B80B208904FF4FA61C0
:101040005A48FFF7CCF82A468BA15848089B01F074
:1010500073FE564801F0E0FD4FF4FA6000F07DFBAE
:101060008BA15548FFF7C6F88146B9F1000F0ED1A4
:101070008AA001F051FE0BF101001FFA80FBBBF1C9
:10108000030F01DD00206DE700F052FB7BE009F16A
:101090000A0A01E00AF1010A9AF800002028F9D0B2
:1010A0005046FFF7F0F886B216B10898864206DD82
:1010B000314683A001F030FE00F03AFB66E05AA111
:1010C0004846FFF797F807462FB985A001F024FEA0
:1010D00000F02EFB5AE0BF1CB0463748D0F8D407CA
:1010E0003549791A401A07900798B04209DA324612
:1010F00083A0079901F010FE4FF4FA7000F02DFB69
:1011000041E0B8190690042287A10698FFF7ACF8D1
:1011100040B1062286A10698FFF7A6F810B18648CE
:1011200001F0FAFD4246294684A001F0F5FD424651
:1011300039460A9800F0F7FC0A9840440A90454462
:101140004FF0000B2046FFF7C2F902902846FFF748
:10115000BEF984490090FFF7A3F801900299FFF7C8
:10116000D1F80390FFF7B8F9CDE904012246CDE9A3
:10117000000129467CA001F0CFFD00F0D9FA6420DF
:1011800000F0EBFA00BFA542FFF44EAF00BFA5424E
:1011900005D129467DA001F0BFFD0120E2E62246EF
:1011A000294688A001F0B8FD01F0FAF8F80F0020F8
:1011B0002C3C00084F4B0000480000201400002089
:1011C0002A2A2A2A2A5345542046494C452055525A
:1011D0004C204641494C45442A2A2A2A2A0D0A0015
:1011E00041542B48545450414354494F4E3D300DC7
:1011F0000A0000002B48545450414354494F4E3A82
:1012000020302C32303000001C0000202A2A2A2AEC
:10121000444F574E4C4F41442046494C452046418F
:10122000494C45442A2A2A2A0D0A000046696C6561
:101230002073697A653A20256C752062797465732C
:101240000D0A00002A2A2A2A46494C452053495AA9
:1012500045204953205A45524F2A2A2A2A0D0A006E
:1012600045726173696E6720256C752070616765D2
:10127000732E2E2E0D0A000041542B485454505208
:101280004541443D256C752C25640D0A0000000085
:101290002B48545450524541443A00002A2A2A2AE5
:1012A00048545450524541442048454144455220F9
:1012B0004E4F5420464F554E442A2A2A2A0D0A00E2
:1012C0002A2A2A2A494E56414C4944204C454E4729
:1012D00054483A2025642A2A2A2A0D0A00000000D0
:1012E0002A2A2A2A44415441205354415254204E20
:1012F0004F5420464F554E442A2A2A2A0D0A0000F0
:101300002A2A2A2A4441544120494E434F4D504CE9
:101310004554453A2025642F25642062797465730D
:101320002A2A2A2A0D0A00004F4B0D0A000000004D
:101330000D0A4F4B0D0A0000783C00085772697483
:10134000696E6720626C6F636B3A206F66667365C7
:10135000743D256C752C2073697A653D25640D0AF2
:10136000000000000000C84250726F67726573731E
:101370003A20256C752F256C752062797465732071
:1013800028252E31662525290D0A00002A2A2A2A19
:10139000444F574E4C4F41442053554343455353BC
:1013A0003A20256C752062797465732077726974B0
:1013B00074656E20746F20466C6173682A2A2A2A2D
:1013C0000D0A00002A2A2A2A444F574E4C4F414406
:1013D000204641494C45443A204F6E6C7920256C9B
:1013E000752F256C7520627974657320726563654D
:1013F000697665642A2A2A2A0D0A00002DE9F0413F
:1014000084A001F009FC4FF47A7000F0A6F985A1E0
:101410008548FEF7EFFE854908600EE000F088F988
:101420007CA001F0F9FB4FF47A7000F096F97DA1F1
:101430007D48FEF7DFFE7D4908607C480068002893
:10144000ECD000F075F94FF4FA617948FEF7C7FE69
:1014500078A1774801F070FC754801F0DDFB4FF48E
:10146000FA7000F07AF96FA16F48FEF7C3FE6F497A
:1014700008600EE000F05CF96D4801F0CDFB4FF420
:10148000FA7000F06AF967A16748FEF7B3FE674992
:101490000860664800680028ECD000F049F975A0A3
:1014A00001F0BAFB4FF4FA6000F057F976A15E48FC
:1014B000FEF7A0FE5D4908600020784908601AE048
:1014C00076480068401C75490860084600680A288C
:1014D00007DD73A001F020FCFFF70EFD0020BDE842
:1014E000F0814FF47A7000F038F967A14E48FEF7AA
:1014F00081FE4E4908604D4800680028E0D04B4806
:10150000006813304949086008460068FEF7BBFED2
:10151000054629466BA001F0FFFB4FF47A70B5FB3E
:10152000F0F100FB115030B94FF47A70B5FBF0F0D8
:101530006A49087006E04FF47A70B5FBF0F0401C81
:101540006649087000F0F4F802F0A0F95CE04FF48E
:101550007A7263A1364801F0EFFB354801F05CFB7D
:1015600000204E49086012E0642000F0F6F861A106
:101570002D48FEF73FFE20B961A12B48FEF73AFE49
:1015800000B108E045480068401C444908604348F1
:1015900000686428E8DB00BF56A12348FEF72AFE56
:1015A00004462CB958A001F0B7FB00F0C1F82BE0BD
:1015B0000A212046FEF730FE04463CB900F0B8F898
:1015C00046480078401E454908701DE0641C54A13F
:1015D0002046FEF70FFE861E0EB1301B05E01248B6
:1015E000D0F8D4071049611A401A87B2002F03DDE2
:1015F0003946204602F038F900F09AF8374800786A
:10160000401E3649087000BF3448007800289EDC30
:10161000012064E741542B48545450494E49540D1D
:101620000A0000004F4B000048000020140000207A
:10163000F80F002041542B48545450504152413D22
:101640002255524C222C22687474703A2F2F333951
:101650002E39312E3136372E33373A393030302F5C
:101660006861726477617365636F6E6669672F2264
:101670000D0A000041542B48545450414354494FE3
:101680004E3D300D0A0000002B4854545041435445
:10169000494F4E3A20302C32303000001C000020E0
:1016A0002A2A2A2A2A204745542046494C45204CBC
:1016B000495354204641494C4544202A2A2A2A2A83
:1016C0000D0A000046696C65206C697374206C65B6
:1016D0006E6774683A2025640D0A00001800002027
:1016E00041542B48545450524541443D302C2564BC
:1016F0000D0A00002B48545450524541443A000012
:101700004552524F520000002A2A2A2A2A204854C1
:10171000545052454144202A2A2A2A2A0D0A000000
:101720002B48545450524541443A203000000000A8
:1017300010B5084801F0F0FA642000F00EF800201F
:101740000449C1F8D4074FF4FA610248FEF747FD97
:1017500010BD000048000020704700B5034603E0BC
:101760004FF47A7000F005F8181EA3F10103F7D1C9
:1017700000BD00EBC001C9004FF0E0225161002123
:1017800091610521116100BF4FF0E021096901F469
:1017900080310029F8D004214FF0E0221161704718
:1017A00070B52CA001F0B8FAFFF728FE30B933A0CD
:1017B00001F0B2FAFFF7A0FB002070BD02F062F862
:1017C000044694F8E01135A001F0A6FA002607E0DF
:1017D00006EB460004EB001136A001F09DFA761CE2
:1017E00094F8E001B042F3DC204602F07BF80546B5
:1017F00035B933A001F090FAFFF77EFB0020DCE75B
:10180000294637A001F088FA2A463A493AA001F061
:1018100083FA3848FEF70AFD06463246294635481F
:10182000FEF722FD002801DB0020C6E735492846E7
:10183000FFF774FB30B934A001F06EFAFFF75CFBE0
:1018400000F0AEFDFFF758FB39A001F065FA01206A
:10185000B3E700000D0A3D3D3D3D205374617274B5
:10186000696E67205570646174652050726F63659E
:101870007373203D3D3D3D0D0A0000002A2A2A2AAF
:101880004745542046494C45204C49535420464135
:10189000494C45442A2A2A2A0D0A0000466F756ED3
:1018A00064202564202E62696E2066696C65730D64
:1018B0000A00000020202D2025730D0A00000000E2
:1018C0002A2A2A2A4E4F2056414C49442046494C48
:1018D0004520464F554E442A2A2A2A0D0A00000068
:1018E00053656C65637465642066696C653A202590
:1018F000730D0A00D91900200D0A25730D0A2573EE
:101900000D0A0000007000082A2A2A2A444F574E68
:101910004C4F414420414E442055504441544520B1
:101920004641494C45442A2A2A2A0D0A0000000053
:101930003D3D3D3D205570646174652050726F637C
:1019400065737320436F6D706C657465203D3D3D1C
:101950003D0D0A002DE9F04105460F4600F0D0FB91
:101960003220FFF7FAFE0126002410E0202229464B
:101970004FF4407000F0E0FB06460A20FFF7EDFE52
:10198000601CC4B20A2C02DB0120BDE8F081002EED
:10199000ECD101260EE020223946002000F0CCFBDD
:1019A00006460A20FFF7D9FE601CC4B20A2C01DBF0
:1019B0000120EAE7002EEED10020E6E70149C860E9
:1019C000704700000020024030B5044604254FF463
:1019D000302000F085F80546042D17D10C48006929
:1019E00040F002000A49086108464461006940F07D
:1019F000400008614FF4302000F072F805460448BA
:101A0000006941F6FD71084001490861284630BD72
:101A10000020024004200B49C96801F0010109B10E
:101A200001200EE00749C96801F0040109B1022054
:101A300007E00449C96801F0100109B1032000E082
:101A400004207047002002400348006940F08000F5
:101A500001490861704700000020024078B5064641
:101A60000C46042500200090E80200F039F80546F5
:101A7000042D24D11348006940F001001149086188
:101A80003480E80200F02CF80546042D10D1B01C7B
:101A90000090200C00990880E80200F021F805462B
:101AA0000848006941F6FE7108400649086106E0F1
:101AB0000448006941F6FE71084002490861284661
:101AC00078BD0000002002400248034948600348F6
:101AD000486070472301674500200240AB89EFCD85
:101AE00000B502460423FFF795FF034603E0FFF726
:101AF00091FF0346521E012B01D1002AF7D102B9F2
:101B00000523184600BD10B50446FFF7DDFF34205D
:101B1000FFF754FFC4F30A00241A2046FFF754FFCE
:101B2000FFF792FF10BD2DE9F84306460F46154614
:101B3000FFF7CAFF3420FFF741FF002400BF06E093
:101B400057F8048030194146FFF788FF241D25F01F
:101B50000300A042F4D805F0030068B14FF0FF3055
:101B6000009005F0030239196846FEF71FFB301993
:101B70000099FFF773FF00BFFFF766FFBDE8F8832A
:101B800008B50121082000F093FC4FF48070ADF8F7
:101B9000000003208DF8020014208DF80300694630
:101BA000084800F011F84FF40070ADF80000032071
:101BB0008DF8020014208DF803006946014800F0FA
:101BC00003F808BD000C01402DE9F0410246002554
:101BD0000026002000230024002791F803C00CF009
:101BE0000F0591F803C00CF0100CBCF1000F03D0EE
:101BF00091F802C04CEA050591F800C0BCF1000F55
:101C000031D0146800202BE04FF0010C0CFA00F3E7
:101C1000B1F800C00CEA03069E4220D183004FF0C9
:101C20000F0C0CFA03F7BC4305FA03FC4CEA04045E
:101C300091F803C0BCF1280F06D14FF0010C0CFA4B
:101C400000FCC2F814C00AE091F803C0BCF1480FD0
:101C500005D14FF0010C0CFA00FCC2F810C0401C7A
:101C60000828D1D31460B1F800C0BCF1FF0F34DDF7
:101C7000546800202EE000F1080C4FF0010808FA2B
:101C80000CF3B1F800C00CEA03069E4221D1830098
:101C90004FF00F0C0CFA03F7BC4305FA03FC4CEAB7
:101CA000040491F803C0BCF1280F05D100F1080C21
:101CB00008FA0CF8C2F8148091F803C0BCF1480F80
:101CC00007D100F1080C4FF0010808FA0CF8C2F82F
:101CD0001080401C0828CED35460BDE8F08100007D
:101CE000F0B50A46002300240021002500F000463C
:101CF000B6F1004F02D11D4EF16901E01B4E716833
:101D0000C0F3034583B200F44016B6F5401F08D176
:101D100021F07061154E766826F07066134F7E6074
:101D200012E000F48016B6F5801F06D1032606FAED
:101D300005F4A14341F0706106E0460D360103FA57
:101D400006F6B14341F0706122B1460D360103FA47
:101D500006F6314300F00046B6F1004F02D1034EC3
:101D6000F16101E0014E7160F0BD00000000014032
:101D70000246002093680B400BB1012000E00020D8
:101D8000704741617047016170470AB1016100E02D
:101D90004161704708B50121042000F089FB012151
:101DA000102000F085FB10208DF80300C002ADF874
:101DB000000003208DF8020069460D48FFF704FF7C
:101DC0004FF400410A48FFF7DCFF10208DF80300B4
:101DD0008001ADF8000003208DF802006946054837
:101DE000FFF7F2FE4FF480610248FFF7CAFF08BD1B
:101DF000000801400010014010B54FF48061064812
:101E0000FFF7C1FF6420FFF7A8FC4FF48061024890
:101E1000FFF7B7FF10BD00000010014000BFFEE754
:101E200010B5044606492046FEF786FB03D800207D
:101E30000449087002E001200249087010BD00004A
:101E4000000010413200002010B54FF480700C49A2
:101E5000086000F0EAF84FF400700949086000F0EB
:101E6000E4F84FF480700649091F086000F0DDF8BF
:101E70004FF480700249086000F0D7F810BD0000F0
:101E8000140C014070B5044608251DE04FF4807025
:101E90001249086000F0C9F804F0800028B14FF43E
:101EA00000700E49091F086003E04FF400700B49F1
:101EB00008606006040E00F0B8F84FF4807007491F
:101EC000091F086000F0B1F8281EA5F10101CDB28C
:101ED000DCD14FF480700149086070BD140C0140E2
:101EE00010B54FF400701149086000F09EF84FF4EF
:101EF00080700E49086000F098F80C4808380068B7
:101F000000F4007008B9002010BD4FF400700749BC
:101F1000091D086000F089F84FF480700349091D1D
:101F2000086000F082F80120EEE70000100C01408C
:101F300010B54FF480700C49086000F076F84FF44B
:101F400000700949086000F070F84FF4807006498D
:101F5000091F086000F069F84FF400700249091F7A
:101F6000086000F062F810BD140C014010B54FF489
:101F700080701249086000F058F84FF400700F4963
:101F8000091F086000F051F84FF480700B49091FD9
:101F9000086000F04AF809480C38006800F4007046
:101FA00028B14FF4807005490860002010BD4FF43F
:101FB0008070024908600120F8E70000140C01401D
:101FC0002DE9F04104460E4617461D46642C01D10A
:101FD00000F071FEFFF784FF2046FFF753FFFFF785
:101FE000C5FF20B9FFF7A4FF0020BDE8F08130460F
:101FF000FFF748FFFFF7BAFF05E015F8010BFFF701
:1020000041FFFFF721FF381EA7F10101CFB2F4DC39
:10201000FFF78EFF642C01D100F02AFE0120E4E7D7
:1020200010B51420FFF7A5FB10BD6C2001E0411E88
:10203000C8B20028FBD1704710B5FFF7A1FD10BD55
:102040004AF6AA20014908607047000000300040AD
:1020500008B50121102000F02BFA10208DF80300A4
:102060004001ADF8000003208DF8020069460448E5
:10207000FFF7AAFD4FF400710148FFF784FE08BD89
:102080000010014004462668B6F1005F2ED31848C0
:1020900086422BD2012080F3108800BF00204FF031
:1020A000E0210861486188611248006840F00070D2
:1020B00010490860002008E04FF0FF320E4941F857
:1020C00020200E4941F82020401C0828F4DB00F0B5
:1020D0000FFABFF34F8FBFF3608F2068FEF74DF804
:1020E000002080F3148800BF6568A84700F06AF9F3
:1020F0000000022004ED00E080E100E080E200E06A
:1021000008B50121102000F0D3F914208DF8030048
:102110004FF4C070ADF8000003208DF8020069464E
:102120000448FFF751FD4FF4C0710248FFF72BFE42
:1021300008BD0000001001402DE9F04105460F46A2
:10214000164600F0ACF8A02000F087F800F048F840
:10215000281200F082F800F043F8E8B200F07DF8B1
:1021600000F03EF8012804D100F0ADF80120BDE8F0
:10217000F08100F094F8A12000F06FF800F030F842
:10218000012803D100F09FF80120F0E7002410E0BF
:1021900000F03BF83855711EA14201D1012100E049
:1021A0000021084600F04AF80A20FFF7E2FA601C16
:1021B000C4B2B442ECDB00F086F80020D7E700BFE1
:1021C000FEE7000010B54FF480710448FFF7D0FD22
:1021D00004460A20FFF7CDFA204610BD001001404A
:1021E00010B5002000F07EF8012000F087F80120F3
:1021F00000F078F80A20FFF7BCFAFFF7E3FF044687
:10220000002000F06FF8204610BD70B500250120B9
:1022100000F074F800240DE0012000F063F8FFF7EF
:10222000D1FF10B1802020410543002000F05AF872
:10223000601CC4B2082CEFDB284670BD10B5044604
:10224000002000F04FF8204600F058F8012000F080
:1022500049F8002000F046F810BD70B5054600248E
:1022600017E0002000F03EF880212141294009B10B
:10227000012100E00021084600F040F80A20FFF7A5
:1022800078FA012000F02EF80A20FFF772FA601C9D
:10229000C4B2082CE5DB002000F024F870BD10B5B6
:1022A000012000F02BF8012000F01CF8FFF78AFF56
:1022B00008B9012010BD002000F020F8002000F037
:1022C00011F80020F6E710B5002000F00BF8002010
:1022D00000F014F8012000F005F8012000F00EF8DD
:1022E00010BD000010B50446224680210248FFF7C9
:1022F0004CFDFFF795FE10BD0010014010B50446DF
:1023000022464FF480710348FFF73FFDFFF788FE38
:1023100010BD0000001001407047000070B50021A2
:1023200000230F22C47804B3154C246804F4E0643D
:10233000C4F5E064210AC1F10403CA40447804FAF8
:1023400003F184781440214309010E4C0678A1550D
:10235000047804F01F050124AC4005786D11AD0030
:1023600005F1E025C5F8004109E0047804F01F05F7
:102370000124AC40044D0678761145F8264070BD26
:102380000CED00E000E400E080E100E002490143E0
:10239000024A1160704700000000FA050CED00E0F1
:1023A0000648006800F4E06005490843001D034941
:1023B0000860BFF34F8F00BFFEE700000CED00E0A8
:1023C0000000FA050648006800F4E060054908438B
:1023D000001D03490860BFF34F8F00BFFEE70000F8
:1023E0000CED00E00000FA0510B54FF40071024852
:1023F000FFF7C7FC10BD000000100140704700004F
:102400002DE9F047FEF744FC81464846FEF75FF8A9
:1024100007460C49FDF776FF06460B49FDF772FFAC
:1024200005460A49FDF73CFF04462046FEF754F8EE
:102430000746074A074BFDF7A3FF0546FEF75FF87F
:10244000BDE8F08700F07F450000204100007D439B
:102450009A9999999999D93F01460020034A506861
:1024600020F44040084350607047000000100240D4
:1024700029B1064AD2690243044BDA6104E0034AF7
:10248000D2698243014BDA617047000000100240BC
:1024900029B1064A12690243044B1A6104E0034A57
:1024A00012698243014B1A6170470000001002401C
:1024B00029B1064A92690243044B9A6104E0034A37
:1024C00092698243014B9A617047000000100240FC
:1024D00029B1064AD2680243044BDA6004E0034A99
:1024E000D2688243014BDA6070470000001002405E
:1024F0001348006840F00100114908600846406830
:10250000104908400E494860084600680E490840D6
:102510000B4908600846006820F4802008600846DF
:10252000406820F4FE0048600846006820F0A05093
:1025300008604FF47F0088600020C8627047000088
:10254000001002400000FFF0FFFFF6FE2DE9F04111
:1025500000210022002500230026002400278C46AD
:10256000DFF86081D8F8048008F00C0121B104295B
:1025700007D0082959D109E0DFF84C81C0F8008064
:1025800058E0DFF84481C0F8008053E0DFF8348180
:10259000D8F8048008F47012DFF82881D8F8048095
:1025A00008F48035920C0D2A01D0921C00E006221E
:1025B00035B9DFF8188102FB08F8C0F8008033E075
:1025C000DFF80081D8F82C8008F48036DFF8F4803A
:1025D000D8F82C8008F00F0808F1010446B9DFF89C
:1025E000E880B8FBF4F808FB02F8C0F800801BE0B4
:1025F000DFF8D080D8F82C80C8F3031808F1010761
:10260000DFF8C080D8F82C80C8F3032808F1020C4A
:10261000DFF8B480B8FBF7F808FB0CF8B8FBF4F867
:1026200008FB02F8C0F8008004E0DFF89C80C0F8E6
:10263000008000BF00BFDFF88C80D8F8048008F06D
:10264000F0010909DFF8888018F80130D0F800801F
:1026500028FA03F8C0F80480DFF86880D8F804800E
:1026600008F4E061090ADFF8688018F80130D0F852
:10267000048028FA03F8C0F80880DFF84880D8F80A
:10268000048008F46051C90ADFF8448018F801306A
:10269000D0F8048028FA03F8C0F80C80DFF8248012
:1026A000D8F8048008F44041890BDFF8288018F836
:1026B0000130D0F80C80B8FBF3F8C0F81080BDE80A
:1026C000F0810000001002400024F40000127A00A3
:1026D0000000002010000020704710B500F002F844
:1026E00010BD00000CB50020019000903F4800682C
:1026F00040F480303D49086000BF3C48006800F469
:10270000003000900198401C0190009818B9019881
:10271000B0F5A06FF1D13548006800F4003010B179
:102720000120009001E000200090009801285CD179
:102730002F48006840F010002D49086008460068E6
:1027400020F0030008600846006840F002000860BE
:102750002648406825494860084640684860084661
:10276000406840F4806048600846C06A21490840DB
:102770001E49C8620846C06A1F4908431B49C8620F
:102780000846006840F08060086000BF1748006895
:1027900000F000600028F9D01448406820F47C1054
:1027A000124948600846406840F4E810486008460E
:1027B000006840F08070086000BF0C48006800F0BE
:1027C00000700028F9D00948406820F0030007494C
:1027D00048600846406840F00200486000BF034877
:1027E000406800F00C000828F9D10CBD0010024030
:1027F0000020024000F0FEFF180701003EB505462C
:102800000C4620788DF8000060788DF80100A078E3
:102810008DF80200E0788DF8030020798DF804002F
:1028200060798DF80500A0798DF806008DF80750C5
:10283000FF208DF80800D2208DF809006B460A228F
:1028400007216420FFF7BCFB3EBD704710B516485A
:10285000006840F0010014490860084640681349C8
:1028600008401149486008460068114908400E496F
:1028700008600846006820F4802008600846406828
:1028800020F4FE0048600846006820F0A050086070
:102890004FF47F0088600020C862FFF71EFF4FF0F2
:1028A00000600449086010BD001002400000FFF005
:1028B000FFFFF6FE08ED00E070B540F2255110482C
:1028C00000F0E5F8012810D10D4800F09BF9C5B2E1
:1028D0000B4800F097F9C4B2204600F0E9FF40F23F
:1028E0002551074800F05DF800BF0821044800F0BA
:1028F000C1F8012803D10821014800F049F870BD52
:102900000038014010B508211F4800F0B3F830B17D
:102910001D4800F077F908211B4800F039F8022122
:10292000194800F0A7F830B1174800F06BF9022100
:10293000154800F02DF840F22441134800F0A7F8A4
:1029400038B1114800F05EF940F224410E4800F021
:1029500028F840F225510C4800F099F898B140F25F
:102960002551094800F01DF8074800F04BF9C1B2A5
:102970000648D0F8D427D0F8D407401C034BC3F83E
:10298000D4071846815410BD0044004020080020A0
:1029900001F40072B2F5007F00D100BFCA4302808B
:1029A000704710B50022002340F66A14A14200D1FE
:1029B00000BF0A1201249440A3B2DC43048010BD7E
:1029C00021B1828942F40052828104E082894DF66D
:1029D000FF731A408281704710B504462048844234
:1029E00009D101218803FFF773FD00214FF48040D6
:1029F000FFF76EFD32E01B48844209D101214804F3
:102A0000FFF746FD00214FF40030FFF741FD25E0C0
:102A10001548844209D101218804FFF739FD0021BE
:102A20004FF48020FFF734FD18E01048844209D1AC
:102A30000121C804FFF72CFD00214FF40020FFF70F
:102A400027FD0BE00A48844208D101210805FFF761
:102A50001FFD00214FF48010FFF71AFD10BD00008C
:102A6000003801400044004000480040004C004055
:102A70000050004002460020B1F5007F00D100BFA9
:102A800013880B400BB1012000E00020704770B5A7
:102A90000246002400230025002040F66A16B142B9
:102AA00000D100BFC1F3421501F01F03012606FA51
:102AB00003F3012D02D19689334006E0022D02D1A5
:102AC000168A334001E0968A33400C12012606FA3A
:102AD00004F41688344013B10CB1012000E000204A
:102AE00070BDF0B50346002400260025002040F606
:102AF0006A17B94200D100BF1846C1F3421401F071
:102B00001F06012707FA06F5012C01D10C3004E05D
:102B1000022C01D1103000E014301AB107682F43A5
:102B2000076002E00768AF430760F0BD2DE9F0479A
:102B300086B005460E460024A24600BFA1460027E7
:102B4000B08900B100BF2F462C8A4CF6FF700440BC
:102B5000F08804432C82AC894EF6F3100440B08810
:102B600031890843718908430443AC81AC8A4FF62C
:102B7000FF400440B0890443AC8201A8FFF7E6FCA3
:102B80001F48874202D1DDF810A001E0DDF80CA05B
:102B9000A88900F4004040B10AEBCA0000EB0A101B
:102BA00031684900B0FBF1F807E00AEBCA0000EB1E
:102BB0000A1031688900B0FBF1F86420B8FBF0F02E
:102BC00004012009642101FB1089A88900F4004058
:102BD00040B1322000EBC900B0FBF1F000F007007B
:102BE000044308E0322000EB09106421B0FBF1F04F
:102BF00000F00F0004432C8106B0BDE8F087000010
:102C00000038014001468888C0F308007047C1F3CE
:102C100008028280704700000BE000BF0749098866
:102C200001F040010029F9D00178044A121D1180F9
:102C3000401C01780029F0D17047000000380140A5
:102C400000BFFEE710B5FEF735F80A20FEF785FD58
:102C50000024FFF7D5FB04462046FFF7E1F80348C0
:102C6000007808B9002010BD0120FCE732000020E8
:102C700010B5FFF735F908B9002010BD6420FFF743
:102C800001F9FFF773F918B9FFF752F90020F4E7DB
:102C90000F20FFF7F7F8FFF769F90020FFF7F2F8C8
:102CA000FFF764F90020FFF7EDF8FFF75FF9FFF792
:102CB0003FF90120E1E710B5FFF712F908B900204C
:102CC00010BD6420FFF7DEF8FFF750F918B9FFF7E1
:102CD0002FF90020F4E71020FFF7D4F8FFF746F9AA
:102CE0008020FFF7CFF8FFF741F9FFF721F9FFF751
:102CF000F7F86420FFF7C6F8FFF738F90F20FFF761
:102D0000C1F8FFF733F98420FFF7BCF8FFF72EF97D
:102D1000FFF70EF90120D3E70FB4054B10B503A957
:102D2000044A029800F0F2F810BC5DF814FB0000B1
:102D300021390008400000200FB4084B10B504A949
:102D400002AA039800F0E2F8044602A9002000F06D
:102D500060FC204610BC5DF814FB00001336000830
:102D6000004870474400002002E008C8121F08C154
:102D7000002AFAD170477047002001E001C1121FFC
:102D8000002AFBD1704700002DE9FF5F82B00021CF
:102D9000DDE90430020DDDF840B0034318D044F6FD
:102DA0001050A2F2FF3242431514119801281FD08F
:102DB000A5EB0B00401C5FEA000A4FF000064E4FE7
:102DC000DFF83891B046504615D5CAF1000413E03B
:102DD000119801244AA3012801D16FEA0B0102983E
:102DE000119AC0E90031C0E9024206B0BDE8F09F87
:102DF000CBF10000DFE704460021404A491842EBCE
:102E00000450CDE9001012E0E00707D032463B46FF
:102E100040464946FDF7CEFC8046894632463B4651
:102E200010461946FDF7C6FC06460F466410002CF6
:102E3000EAD1DDE90401DDE90023BAF1000F06DA89
:102E4000FDF7B8FC42464B46FDF7B4FC05E0FDF744
:102E500023FD42464B46FDF71FFD04460E46002269
:102E6000284BFDF7A1FD03D84FF0FF30014607E0E6
:102E70000022254B20463146FDF782FAFDF77BFD07
:102E8000102409E0002C0ADB0A220023FDF774FB62
:102E9000039B30321A55641E50EA0102F2D1641CC1
:102EA000039AC4F111031444119A012A03D0012298
:102EB00008430DD10AE0084304D000204FF0110B65
:102EC000119072E7A3EB0B056D1E0DE05B4504DD71
:102ED0004FF0000205F1010504E003DA4FF00002B3
:102EE000A5F10105002AECD002981199C0E9023140
:102EF000C0E9004579E70000000014400000F03F01
:102F0000300000000000F0430000E03F2DE9FF4FDB
:102F100095B09A46884606460025EEE1252877D1E9
:102F200000242746F94A0121039400E0044316F8DF
:102F3000013F203B01FA03F01042F7D130782A28F4
:102F400011D06FF02F033078A0F13002092A16D883
:102F5000039A44F0020402EB820203EB42021044A3
:102F6000761C0390EFE758F8042B0392002A03DA4B
:102F7000504244F40054039044F00204761C30782C
:102F80002E2816D116F8010F44F004042A280DD07B
:102F90006FF02F023078A0F13003092B09D807EB2E
:102FA000870302EB4303C718761CF3E758F8047B4A
:102FB000761C30786C280FD006DC4C2817D0682897
:102FC0000DD06A2814D104E0742810D07A280FD1CB
:102FD0000DE044F400140AE044F4801401E044F4E9
:102FE00040147278824202D104F58014761C761C5B
:102FF000307866280BD013DC582877D009DC0028FD
:1030000075D04528F6D04628F4D047281AD193E148
:1030100018E0632835D0642879D0652812D18BE177
:10302000702873D008DC6728F1D069286FD06E282B
:103030000DD06F2806D1ACE073282CD0752874D041
:10304000782853D05246179990476D1C54E1C4F329
:103050000250022809D003280DD0D8F80010042807
:103060000DD00D6008F1040846E1D8F80010EA1709
:10307000C1E90052F6E7D8F800100D80F2E70D70B4
:10308000F0E718F8041B8DF8001000208DF80100FF
:10309000EB46012003E058F804BB4FF0FF30610716
:1030A0004FF0000102D40DE009F101018946B94257
:1030B0000FDA8145F8DB1BF809100029F4D108E08C
:1030C00009F1010189468142FADB1BF80910002948
:1030D000F6D103985346A0EB090721463846179AC4
:1030E00000F080FA284400EB090507E044E008E11D
:1030F0000DE01BF8010B524617999047B9F10109F1
:10310000F7D2534621463846179AF2E039E00A21B1
:10311000C4F302524FF0000B0091022A06D058F877
:10312000040BC117032A09D00AE023E008F10700C5
:1031300020F00702F2E80201904605E000B2C11754
:10314000042A01D140B2C117002906DA0A4600213B
:10315000404261EB02012D2202E0220504D52B2220
:103160008DF80420012203E0E20701D02022F7E7D6
:10317000914657E00A2100E010214FF0000B00912A
:103180000BE010214FF0000B44F0040408270091DD
:1031900003E008204FF0000B0090C4F30252022A13
:1031A00005D058F8040B0021032A08D008E008F1E4
:1031B000070020F00702F2E80201904603E080B227
:1031C000042A00D1C0B24FF0000922072AD5327874
:1031D000702A07D0DDF800C08CF0100C5CEA0B0CF4
:1031E00005D00EE040228DF80420012208E050EACC
:1031F000010306D030238DF804308DF8052002221B
:103200009146009B83F0080353EA0B030AD150EA6E
:10321000010201D1620705D530228DF804204FF05C
:1032200001097F1E3278582A04D039A20C920CAAC8
:1032300002920BE03BA2F9E75B46009AFDF79CF98E
:103240000C9B9B5C029A521E0292137050EA010280
:10325000F2D1029804A9081A00F1200B600702D5E8
:1032600024F4803400E001275F4502DDA7EB0B006A
:1032700000E0002000EB0B01009003984944401A45
:103280000390E00306D453462146179A039800F0B2
:10329000A9F90544002706E001A85246C05D179928
:1032A00090476D1C7F1C4F45F6DBE0030CD5534661
:1032B0002146179A039800F095F9054404E0302060
:1032C0005246179990476D1C0099481E009000299E
:1032D000F5DC08E00298029952460078491C0291F8
:1032E000179990476D1CBBF10001ABF1010BF1DCAC
:1032F0005BE100F065F90544761C307800287FF426
:103300000DAE19B02846BDE8F08F00000928010075
:10331000303132333435363738396162636465664B
:10332000000000003031323334353637383941420D
:103330004344454600000000600700D4062708F11A
:10334000070020F00700F0E80223804603F0004C5D
:103350005FEA0C0001D097A009E0200501D596A0F6
:1033600005E0E00701D095A001E0AFF24C0013901A
:10337000307823F0004365280CD006DC452809D0BE
:1033800046281DD047287FD13BE0662818D0672803
:103390007AD136E00021112F01DB112000E0781CEA
:1033A000CDE9000104A90CA8FFF7EEFCDDE90D0151
:1033B0000C9A4FF0000B07F10109109200914EE0BA
:1033C0004FF000400097CDE9011004A90CA8FFF7C9
:1033D000DBFCDDE90D020C9B0F994FF0000B9146D1
:1033E0001093009211B9791C00EB0109B7EB0900A9
:1033F00003D4C0F1FF3B07F10109A9EB07000190DD
:1034000042E0012F00DA01270021112F01DD1120F8
:1034100000E03846CDE9000104A90CA8FFF7B4FC90
:10342000DDE90D010C9A00914FF0000BB9461092A6
:1034300021070FD4009A4A4503DA914601E0A9F129
:103440000109B9F1010F05DD109AA9F10101515CE3
:103450003029F4D0B84202DA10F1040F03DA012166
:10346000CDE9011010E0002803DC8344A9EB000142
:1034700002E0411C494500DD8946A0EB0B00401CE1
:1034800001904FF000400290200705D40198484574
:1034900002DB4FF0FF30019000208DF84B000298C6
:1034A0000DF14B07B0F1004F25D002200C902B20DE
:1034B0000D90029800280CDA404202902D200D90C9
:1034C00007E00A210298FDF741F83031029007F831
:1034D000011D0C99481E0C900029F2DC029800286E
:1034E000EFD1791E0D980870307800F0200040F080
:1034F000450007F8020D11A8C01BC01D02901398CB
:10350000007800B1012000EB0901019801EBE071A6
:10351000029801440398401A401E0390E00306D429
:1035200053462146179A039800F05CF80544139817
:10353000007818B15246179990476D1CE00323D5C7
:1035400053462146179A039800F04CF805441BE0B7
:10355000BBF1000F07DB0098584504DD1098179960
:1035600010F80B0001E0179930205246904701985F
:103570000BF1010B401E05F10105019004D12E2035
:103580005246179990476D1CB9F10001A9F1010944
:10359000DEDC05E017F8010B5246179990476D1CC9
:1035A0000299481E02900029F4DC53462146179ADE
:1035B00003989EE62D0000002B0000002000000074
:1035C0002DE9F041044600251E461746880404D420
:1035D00005E039462020B0476D1C641EF9D5284609
:1035E000BDE8F0812DE9F041044600251E469046D5
:1035F000C80301D5302700E02027880404D505E062
:1036000041463846B0476D1C641EF9D52846BDE8D2
:10361000F0810A68531C0B60107070472DE9F0416F
:103620000446864E8648007820B1012826D002281C
:1036300023D13CE08348006883490978405CA0427C
:1036400018D181480078401C7F4908707D48006887
:10365000FCF7ECFD7C49097888420ED101207849BD
:10366000087000207949087077490870012078496E
:10367000087002E0002074490870DCE03C2C09D19D
:103680007348007830B101206F49087002206C49FE
:1036900008700BE06D4800782F2807DA6B48017836
:1036A0000078401C694A10706A484454C3E02F2CCB
:1036B00009D165480078012805D163480078401C8D
:1036C00061490870B6E04B2C09D15F4800780228A8
:1036D00005D15D480078401C5B490870AAE0652C64
:1036E00009D159480078032805D157480078401C73
:1036F000554908709EE0792C09D153480078042878
:1037000005D151480078401C4F49087092E03E2C8A
:103710005BD14D480078052857D100214D484B4AD0
:10372000127881543046FCF781FD001D4749097825
:10373000884240D23046FCF779FD05462A4631469C
:103740004448FCF791FDB0BB40490978091F414A44
:10375000881841A1FCF771FD68BB414890F8E00171
:103760000A2828DA002700250BE005EB45013C4A32
:1037700002EB01103749FCF760FD08B9012705E0AD
:103780006D1C374890F8E001A842EEDC00BF8FB90D
:10379000334991F8E01101EB4101314A02EB01108C
:1037A0002C49FCF758FD2E4890F8E001401C2C49AC
:1037B00081F8E00100BF002021490870234908700A
:1037C000214908702249087034E01F480078002819
:1037D0001EDD3C221D4801780078401C1B4B1870F0
:1037E0001C48425401200FE0184909782F290ADAB1
:1037F0001C4909680A5C15490B780978491C134D66
:1038000029701449CA54401C0F4909788842EBDBDF
:103810000E4800782F2807DA0C4801780078401C01
:103820000A4A10700B4844540120054908700020D2
:103830000549087000BF00BFBDE8F081F9190020FC
:103840002500002028000020300000202600002055
:1038500031000020C81700202E62696E00000000B1
:10386000F81700202C00002070B505460E460024F5
:1038700004E0285DFFF7D2FE601C84B2B442F8DB9E
:1038800070BD000000487047F817002010B50020F8
:10389000044908700449087040F2E1110348FCF73C
:1038A0009EFC10BD2500002026000020F8170020F7
:1038B0000B49D1F8D417B1F5FA6F04D30021084AA7
:1038C000C2F8D4170AE00649D1F8D427D1F8D417A2
:1038D000491C034BC3F8D41719468854704700009D
:1038E0004800002070B5044694F8E00108B90020B3
:1038F00070BD264601250DE005EB450104EB0110E6
:103900003146FCF79AFC002803DD05EB450004EB8B
:1039100000166D1C94F8E001A842EDDC3046E7E7A4
:1039200070B504460D46A1B20548FFF770F900BF17
:1039300080210348FFF79EF80028F9D0204670BD8B
:103940000044004001210846FEF7B2FD01211F4856
:10395000FEF7C6F9FEF71EFAFEF77AFB4FF4A060F9
:10396000FEF714FDFEF768FB4FF4E13000F06AF853
:103970004FF4E13000F0C2F815491648FDF7EAFFB0
:103980001549087015490720FEF738FF12480078DE
:1039900020B9FFF757F91049087002E010A0FFF7AF
:1039A000BBF90D48007840B116A0FFF7B5F91CA08F
:1039B000FFF7B2F92248FEF765FBFDF790F818A073
:1039C000FFF7AAF91E48FEF75DFB00000002300079
:1039D000F9190020D91900203400002035000020FA
:1039E0002A2A2A2A2A20524541442020454550525D
:1039F0004F4D20204641554C54202A2A2A2A2A0D70
:103A00000A0000002A2A2A2A2A204C4F5720095649
:103A10004F4C54414745092A2A2A2A2A200D0A00D8
:103A20002A2A2A2A2A204A554D502009544F20205C
:103A3000415050092A2A2A2A2A200D0A0000000093
:103A40000070000810B586B0044601210420FEF77E
:103A50002FFD01214804FEF70BFD2648FEF7BCFFB1
:103A60000420ADF8140003208DF8160018208DF8FE
:103A7000170005A92048FEF7A7F80820ADF81400A4
:103A800004208DF8170005A91B48FEF79DF8262095
:103A90008DF8000002208DF8010003208DF802004F
:103AA00001208DF803006846FEF738FC01940020E1
:103AB000ADF80800ADF80A00ADF80C00ADF8100044
:103AC0000C20ADF80E0001A90A48FFF72FF80122DB
:103AD00040F224410748FFF704F8012240F2255143
:103AE0000448FEF7FEFF01210248FEF769FF06B019
:103AF00010BD0000004400400008014010B586B031
:103B00000446012144F20400FEF7D2FC2348FEF7EC
:103B100063FF4FF40070ADF8140003208DF8160019
:103B200018208DF8170005A91D48FEF74DF84FF431
:103B30008060ADF8140048208DF8170005A91848DA
:103B4000FEF742F825208DF8000000208DF80100D6
:103B500001208DF802008DF803006846FEF7DEFBB9
:103B600001940020ADF80800ADF80A00ADF80C0093
:103B7000ADF810000C20ADF80E0001A90748FEF7C3
:103B8000D5FF012240F225510448FEF7AAFF01218A
:103B90000248FEF715FF06B010BD000000380140D6
:103BA000000801400040404040404040404041410A
:103BB0004141414040404040404040404040404002
:103BC000404040404005020202020202020202029C
:103BD0000202020202202020202020202020200299
:103BE0000202020202029090909090901010101029
:103BF00010101010101010101010101010101010C5
:103C00000202020202028888888888880808080858
:103C10000808080808080808080808080808080824
:103C20000202020240000000A53B000841542B485C
:103C3000545450504152413D2255524C222C22683E
:103C40007474703A2F2F33392E39312E3136372E86
:103C500033373A393030302F686172647761736579
:103C6000636F6E6669672F776561746865722F256B
:103C700073220D0A000000002A2A2A2A5741524EB8
:103C8000494E473A204672616D6520656E64206D2D
:103C900061726B6572206E6F7420666F756E642C36
:103CA0002064617461206D617920626520696E63B2
:103CB0006F6D706C6574652A2A2A2A0D0A0000004F
:103CC0003C4B65793E736F696C2F00003C2F4B6550
:103CD000793E0000F43C000800000020480000008D
:103CE000682D00083C3D000848000020D81D000059
:103CF000782D000800000000010203040102030403
:103D00000607080902040608000000000000000081
:103D1000000000000000000000000000C03C00089F
:103D2000CC3C000800000000003001000000000052
:0C3D300000000000000000000000000087
:04000005080001519D
:00000001FF
