:020000040800F2
:100000001098002089010008EB4000081535000811
:10001000093E0008DD150008E57C0008000000002E
:10002000000000000000000000000000B9560008B9
:10003000052E0008000000001D4700082B5800088E
:10004000A3010008A3010008A3010008A301000800
:10005000A3010008A3010008A3010008A3010008F0
:10006000A3010008A3010008A3010008A3010008E0
:10007000A3010008A3010008A3010008A3010008D0
:10008000A3010008A3010008A3010008A3010008C0
:10009000A3010008A3010008A3010008A3010008B0
:1000A000A3010008A3010008A3010008A3010008A0
:1000B00099580008A3010008A3010008A301000843
:1000C000A3010008A3010008A3010008A301000880
:1000D000A3010008955A0008E15A0008815C000855
:1000E000A3010008A3010008A3010008000000000C
:1000F0000000000000000000000000000000000000
:100100000000000000000000A3010008A301000897
:10011000A3010008A3010008A3010008A30100082F
:10012000A3010008A3010008A3010008A30100081F
:10013000A3010008A3010008A3010008A30100080F
:10014000A3010008A3010008A301000899410008C9
:10015000DFF810D000F0AEFD00480047B9AA000853
:10016000AFF3008010980020EFF30980704780F310
:1001700009887047EFF30880704780F3088870475C
:1001800040BA7047C0BA70470648804706480047E3
:10019000FEE7FEE7FEE7FEE7FEE7FEE7FEE7FEE737
:1001A000FEE7FEE72D580008510100082DE9F05F39
:1001B0000546002092469B468846064681464024D6
:1001C0001BE0284641464746224600F0F0FA5346D7
:1001D0005A46C01A914110D311461846224600F0E3
:1001E000D7FA2D1A67EB01084F462246012000215D
:1001F00000F0CEFA17EB00094E41201EA4F10104D5
:10020000DFDC484631462A464346BDE8F09F000001
:1002100038B5D0E90221491E01EB410102EBC101D1
:100220004268C1EB011102EB81010268C1EB0111CF
:1002300002EB8102D0E9043101EB410103EB8101C2
:100240003023A1F5527191FBF3F4174D6C4302EB8F
:10025000C41291FBF3F403FB141100921A2902DB80
:10026000124B1A4400920C2291FBF2F3104C6343A0
:10027000009C04EBC313009391FBF2F302FB1311F8
:100280000C4A08E0491E40F2A324535C6343009CDF
:1002900004EBC31300930029F4DC0146684600F028
:1002A000AFFA009838BD00003F0C0F0080510100EC
:1002B00067C20300A3B6000840EA01039B0703D00E
:1002C00009E008C9121F08C0042AFAD203E011F895
:1002D000013B00F8013B521EF9D27047D2B201E057
:1002E00000F8012B491EFBD270470022F6E710B53B
:1002F00013460A4604461946FFF7F0FF204610BD94
:1003000030B505462A460B4612F8010B13F8014B8F
:1003100008B1A042F8D01CB1002802D06D1CF1E752
:10032000284630BDCAB2401E10F8011F8A4202D0D2
:100330000029F9D100207047421C10F8011B002948
:10034000FBD1801A704710B5002200E0521C835C7C
:100350008C5CA34201D1002BF8D1D8B2E1B2401A93
:1003600010BD30B504460020034600E05B1C9342FC
:1003700003D2E05CCD5C401BF8D030BD30B5054603
:100380000020034600E05B1C934205D2EC5CC85C95
:10039000201A01D1002CF6D130BD70B5064607F009
:1003A000EBFF046805460A220021304600F0BCFA43
:1003B0002C6070BDF0B480EA0102D40F4200B2EBB1
:1003C000410F02D20246084611464A0042D0C30DF0
:1003D000DDB2C1F3C752AD1A202D35DAC1F31601D3
:1003E00041F4000204B15242C5F1200602FA06F1BE
:1003F0002A411044B3EBD05F23D0C4B1012DA0EB50
:10040000C35009DCF0BC4FF0004202EAC352DBB239
:1004100000F5000000F0C9BA400000F1807000EB68
:10042000C350A0F1807040EAD170490009E049084A
:1004300041EAC071A0EBC35000F50000400800EB9A
:10044000C350F0BC00F0A8BA6142012202EB4101A6
:10045000001BF6E7F0BC704781F00041AAE780F08E
:100460000040A7E780EA010210B502F00043400017
:1004700022D04A001FD0010E01EB1261C0F35600DA
:10048000C2F3560240F4000042F40002A0FB022036
:1004900000047F39140400D0401C50EA124001D4FB
:1004A0004000491EC2B20C0604EBD010401C4008AC
:1004B000802A02D003E0002010BD20F001000029B6
:1004C00000DA0020184310BD30B480EA010202F0C7
:1004D000004530F0004221F0004013D090B1C30D30
:1004E000D40DC2F31601C0F31600E41A41F4000162
:1004F00040F400027D34914201D3641C00E04900C5
:10050000002C02DA30BC002070474FF400000023BA
:10051000914201D3891A034340084FEA4101F7D1C0
:1005200051B1914202D14FF0004105E002D24FF0AB
:10053000010101E06FF0010103EBC450284430BC1D
:1005400000F02ABA2DE9FE4F804681EA0300C00F71
:100550000C46009021F0004123F00045B8EB02006A
:10056000A94105D24046214690461C460B4602460C
:1005700023F00040104347D0270DC7F30A00C3F310
:100580000A510290401A019040286BDAC3F313001D
:1005900040F4801B0098924620B10023D2EB030A5E
:1005A00063EB0B0B01985946C0F14002504600F036
:1005B000EFF806460D4650465946019A00F007F9F5
:1005C00010EB08006141002487EA115284EAE773C6
:1005D0001A4340D0009A62B3019A012A4FEA0752A7
:1005E00015DC001B61EB02014FF0004202EA0752EA
:1005F000CDE90042001C41F5801132462B4600F047
:1006000011FA03B0BDE8F08F40462146F9E7001B20
:1006100061EB0201001C41F5801300185B412018BA
:10062000A2F5001747EB030140EAD570B6196D41FA
:1006300011E06D084FEA360645EAC0754FEA0752E9
:10064000001B61EB0201001C41F5801149084FEAD3
:1006500030000019514132462B4603B0BDE8F04F3F
:1006600000F0D1B90098012240000023D0EB020233
:1006700063EBE073009821464FEAE074B8EB0000AA
:1006800061EB0401E9E783F000435BE781F000419F
:1006900058E7C10F80EAE0700844CA07962300219A
:1006A00000F083B996230022114600F07EB900F0D5
:1006B000004230F000400AD0C10D01F56071C0F376
:1006C000160042EA0151C20840071143704700205A
:1006D0000146704730B5041E71F1000404DB4FF091
:1006E0000044404264EB0101141E73F1000405DB79
:1006F0001C464FF00043524263EB0403994208BF8B
:10070000904230BD01F0004330B421F0004150EA86
:10071000010206D00A0DA2F56072C1F31301002A8E
:1007200002DC30BC00207047440F44EAC104C10021
:10073000E01830BC00EBC25000F02EB9002801DBFD
:10074000C0F10040002901DBC1F100418142704746
:10075000002801DBC0F10040002901DBC1F10041AC
:100760008842704730B50B46014600202022012404
:1007700009E021FA02F59D4205D303FA02F5491B6F
:1007800004FA02F52844151EA2F10102F1DC30BD85
:10079000202A04DB203A00FA02F100207047914041
:1007A000C2F1200320FA03F3194390407047202A36
:1007B00004DB203A21FA02F00021704721FA02F30B
:1007C000D040C2F120029140084319467047202AC8
:1007D00006DBCB17203A41FA02F043EAE07306E069
:1007E00041FA02F3D040C2F1200291400843194679
:1007F00070470000014900F003B80000E0870020C6
:1008000010B500683C22B0FBF2F302FB1303B0FB0F
:10081000F2F00B60B0FBF2F302FB1303B0FBF2F05B
:1008200018224B60B0FBF2F302FB1303B0FBF2F0B3
:10083000021D8B600723B2FBF3F403FB142280003C
:1008400040F2B55300F66C308A61B0FBF3F2B0FBB6
:10085000F3F403FB1400443280084A61C8613B286A
:1008600002D3920700D0401C0022074C13460A61B5
:10087000E25C824203D8801A5B1C0B61F8E7401CE3
:10088000C860084610BD0000AFB600080FB40023D2
:1008900000B589B00CA900910B996FF00042CB60B4
:1008A0001E4B06931E4B07930423CDE901321D4ACC
:1008B000089202466B46002000F0B0FA09B05DF8DD
:1008C00014FB70B586B006464FF0FF300091CDE9BD
:1008D0000101002015460C4604903246694604A8E2
:1008E000FFF7D4FF02460498211825B108B1084645
:1008F00000E020462860049800280DD0002A02DD80
:100900000098884208D0081B0094CDE901043246C3
:10091000694604A8FFF7BAFF06B070BD551000087D
:1009200073100008E10C00082DE9F04791460F46CE
:1009300080460446002614F8015B2DB100F0CCF986
:100940000068405DC007F6D12B2D02D02D2D18D0A8
:10095000641E4A463946204600F09CFB27B13968A0
:10096000A14201D1C7F8008071054FF002040BD5F8
:100970004042002803DD07F0FFFC0460A007BDE84B
:10098000F08746F48066E4E70028F8DA07F0F4FC24
:1009900004606FF00040F2E70029A8BF7047401CD8
:1009A000490008BF20F00100704710B4B0FA80FC85
:1009B00000FA0CF050EA010404BF10BC704749B1C2
:1009C000CCF1200421FA04F411FA0CF118BF012132
:1009D00021430843A3EB0C01CB1D4FEA00614FEA12
:1009E000102042BF002010BC704700EBC3501044E1
:1009F0000029A4BF10BC7047401C490008BF20F06C
:100A0000010010BC704710B5141E73F1000408DA21
:100A1000401C41F1000192185B411A4301D120F0C2
:100A2000010010BD2DE9F04D92469B4611B1B1FA7F
:100A300081F202E0B0FA80F220329046FFF7A8FE81
:100A400004460F4640EA0A0041EA0B0153465A4663
:100A5000084313D0114653EA010019D0C8F14002EF
:100A60005046FFF7A4FE05460E46504659464246FC
:100A7000FFF78EFE084305D0012004E020463946EA
:100A8000BDE8F08D0020054346EAE0762C4337436D
:100A90000A986305E40AA0EB08000022FD0A44EA74
:100AA00047540A3002D500200146E9E70105101934
:100AB0006941DDE9084500196941BDE8F04DA2E74B
:100AC0002DE9FE4F81EA030404F0004421F00041C7
:100AD00000944FF0000B23F0004350EA01045ED075
:100AE00052EA03045BD0C3F30A54C1F30A552C4401
:100AF000A4F2F3340194A0FB0254C1F3130141F4B6
:100B00008011C3F3130343F4801301FB024400FB81
:100B1000034E840A970A44EA815447EA8357A4FBA8
:100B2000076802958D0A05FB07854FEA932C04FBA5
:100B30000C542705029D4FEA065847EA1637B5EBD5
:100B400008056EEB070C870E920E47EA811742EA02
:100B50008312A7FB0201B6EB0B0164EB00042B0D23
:100B600043EA0C335E1844EB1C50DA465146E7FB6F
:100B70000201C5F313044FEA0B3343EA14534FEA5F
:100B80000432019C43EA0603A4F10C040294009C85
:100B9000CDE900B4FFF746FF03B0BDE8F08F0020B9
:100BA0000146F9E72DE9F04D81EA030404F0004B1A
:100BB00021F0004514464FF0000A23F0004150EAAE
:100BC000050220D054EA01021DD0C5F30A5702469F
:100BD000C5F31303C1F31300C1F30A5640F48015A3
:100BE00043F48013A7EB0608101BD64608F2FD3825
:100BF00073EB050002D308F1010801E092185B4194
:100C0000B8F1000F03DA00200146BDE8F08D0020A6
:100C10004FF48011064684460EE0171B73EB050760
:100C200005D3121B63EB050306434CEA010C49088C
:100C30004FEA300092185B4150EA0107EDD152EAC9
:100C4000030012D082EA040083EA0501084305D0BC
:100C5000101BAB4106D20122002306E000224FF018
:100C6000004302E06FF0010253101AEB06004CEB58
:100C7000085110EB0A0041EB0B01BDE8F04DFFF706
:100C8000C2BEC1F30A52C1F3130140F2FF3341F473
:100C900080119A4202DA00200146704740F2334345
:100CA0009A42A2F2334202DC5242FFF780BDFFF7C4
:100CB0006FBD0000064C074D06E0E06840F0010300
:100CC00094E8070098471034AC42F6D3FFF744FA93
:100CD0005CB900087CB90008004870473CB70008C0
:100CE00010B50446FFF7F8FF0068005D00F0010052
:100CF00010BD00002DE9FF4F087883B09946FF280A
:100D000005D0491C2D2804D00024002008E0002034
:100D10000BE00124F9E700EB800003EB4000491CE5
:100D20000B78FF2BF7D104B14042002302931478D3
:100D300019461D462D2C01D02B2C04D1521C2D2CD4
:100D400013D000240294AA461478FF2C0FD00A2551
:100D5000A3FB057801FB05814FF0000C03FB0C1190
:100D6000521CE3194AEB0101EEE70124EAE7814452
:100D700053EA010002D019F5C87F06DA0398002172
:100D8000C0E9001107B0BDE8F08F0025AE4E2F4638
:100D9000DFF8B882184600F0DAF9CDE90001B9F1C0
:100DA000000002DAC9F1000400E004460023A74A6B
:100DB0001AEB030B42EB045A12E0E00707D02A4675
:100DC000334638464146FFF77BFE074688462A46AB
:100DD000334610461946FFF773FE05460E4664106B
:100DE000002CEAD1DDE90001B9F1000F5A46534663
:100DF00006DAFFF7D7FE3A464346FFF7D3FE05E093
:100E0000FFF75EFE3A464346FFF75AFE029A0AB1E2
:100E100081F00041039AC2E90001B3E72DE9FF4FD9
:100E20001F468DB0D7E901464FF0FF382E204546CA
:100E30004FF000090B90B9696D1C0E988847396A0C
:100E4000824688470028F6D1BAF1FF3F0AD024F441
:100E5000D064002E11DDBAF12B0F08D0BAF12D0F9E
:100E60000BD102E0404611B08DE744F48064B969CB
:100E70006D1C0E9888478246761E6946600501D52E
:100E80002D2000E02B208DF8000001F1010B0DF169
:100E9000200809E0B9696D1C0E98884782460F98B2
:100EA00044F40074761E0560002E02DDBAF1300FA6
:100EB000F0D00B998A453ED144F0800406E00F99AA
:100EC000681CA9F1010944F400740860B9696D1C3B
:100ED000761E0E98884782463028F0D02BE00B997A
:100EE0008A4505D1200603D444F08004761E18E01C
:100EF000504607F023FB08B30DF11301761E44F4AE
:100F000000748B4508D2AAF130000BF8010B2006C3
:100F100007D5A9F1010003E0200602D409F1010080
:100F20008146A00502D50F99681C0860B9696D1C3F
:100F30000E9888478246002ED1DC53E0002E51DD0A
:100F4000BAF1650F02D0BAF1450F4BD1A00549D5D2
:100F5000B9696D1C24F44074761E0E988847824649
:100F6000002E0CDD2B2804D0BAF12D0F07D144F44C
:100F70008074B9696D1C0E9888478246761EE0051C
:100F800001D52D2100E02B2108F8011BCDF82C8084
:100F900021E00DF12901761E44F4007488450CD23D
:100FA000AAF1300010F0FF0088F8000002D10B9980
:100FB000884509D908F1010806E0E00501D5244873
:100FC00001E042F20F708146B9696D1C0E988847A6
:100FD00082460F980560002E04DD504607F0AEFAF9
:100FE0000028D6D1F9690E988847FF208BF80000B9
:100FF00088F800000020069007904B466A4608A932
:1010000006A8FFF777FEA00502D46FF001002AE7DB
:1010100014F0240F0AD0E00714D1DDE90612386875
:10102000031D3B600068C0E900120BE0DDE906012A
:10103000FFF768FB0146E00704D13868021D3A60FB
:101040000068016028460EE7000014400000F03FF1
:10105000F1D8FFFF426842B1016811F8013B23B1AA
:10106000521EC0E90012184670470121C160881E57
:10107000704742685AB1C368016843B983688B42BC
:1010800005D0491E521CC0E90012002070474FF0E5
:10109000FF3070472DE9F05F824600780027154643
:1010A0008B460AF10104B946302801D09DB113E006
:1010B00014F8010B0127782803D0582801D045B136
:1010C0000AE00DB1102D07D10027102514F8010BEF
:1010D00002E0082500E00A250026B0460EE005FBE8
:1010E000080005FB06F1012701EB10461FFA80F806
:1010F000B6F5803F00D3B94614F8010B294600F03D
:1011000018F80028EBDABBF1000F05D00FB1641E10
:1011100000E05446CBF80040B9F1000F06D007F0CC
:101120002BF902210160C81EBDE8F09F48EA064085
:10113000FAE73A2800D2303820F02002412A01D3C1
:10114000A2F13700884201D34FF0FF3070470EB54F
:1011500040F2334202920022CDE900221346FFF70B
:1011600061FC03B000BD70B58C1810F8015B15F080
:10117000070301D110F8013B2A1106D110F8012B09
:1011800003E010F8016B01F8016B5B1EF9D12B072E
:1011900005D40023521E0DD401F8013BFAE710F8E4
:1011A000013BCB1A921C03E013F8015B01F8015BD1
:1011B000521EF9D5A142D8D3002070BD10B502F05F
:1011C0008DF802F0D5FF642001F02AFE10BD00006A
:1011D00010B502F0D7FF322001F022FE02F090F8A5
:1011E000322001F01DFE1A4800F03CFD184800783E
:1011F000192802DB164803F0F1FC164801F07EF8CE
:1012000000F018FB00F0DCFB1349144800F024FB4D
:1012100002F00AFB0F48FFF78FF8142805D10D4B99
:101220000F4A10490A4800F0DFF90D4A0D490848F5
:1012300002F048FB10220C49500102F03CFC102245
:10124000094910314FF4087002F035FC10BD000060
:1012500059000020A82000208820002068200020BD
:101260004820002028200020BD20002021B18268D5
:1012700042F00102826003E0826822F00102826093
:101280007047014600208A6802F004020AB101207A
:1012900000E0002070470146C86C80B270470246EB
:1012A000002013680B400BB1012000E000207047C4
:1012B000014600208A6802F008020AB1012000E01D
:1012C0000020704730B502460020002350680F4CC4
:1012D00020400D790C6844EA052420435060906852
:1012E0000B4C2040D1E902542C434D7944EA45048B
:1012F00020439060D06A20F470000C7C641EE4B23D
:10130000234340EA0350D06230BD0000FFFEF0FFEF
:10131000FDF7F1FFF0B504460D4600200021092D30
:1013200011DDE068A5F10A0606EB4607072606FA76
:1013300007F18843A5F10A0606EB460603FA06F113
:101340000843E0600CE0206905EB4507072606FA34
:1013500007F1884305EB450603FA06F108432061CF
:10136000072A0FDA606B561E06EB86071F2606FA61
:1013700007F18843561E06EB860605FA06F1084378
:10138000606322E00D2A0FDA206BD61F06EB86077A
:101390001F2606FA07F18843D61F06EB860605FAD4
:1013A00006F10843206310E0E06AA2F10D0606EBA7
:1013B00086071F2606FA07F18843A2F10D0606EB01
:1013C000860605FA06F10843E062F0BD816841F047
:1013D00008018160704721B1826842F4A0028260F6
:1013E00003E0826822F4A00282607047816841F0C5
:1013F000040181607047000010B501210648FFF725
:10140000EAFF00BF02210448FFF749FF0028F9D096
:101410000148FFF740FF10BD0024014000B587B030
:101420000121480203F0F4F90121042003F0F0F94E
:10143000002003F0B1F900208DF81B008020ADF8EA
:10144000180003208DF81A0006A9194801F02EFE95
:101450000523012207211748FFF75CFF00200190B8
:1014600004904FF46020039000208DF809008DF85F
:10147000080001208DF8140001A90E48FFF722FF93
:1014800001210C48FFF7F2FE0A48FFF79FFF00BF5B
:101490000848FFF70DFF0128FAD00648FFF7A6FF1E
:1014A00000BF0448FFF7EDFE0128FAD007B000BDE9
:1014B00000080140002401402DE9FC4705460E4686
:1014C00017469846DDE90A9A13480078012820D18A
:1014D00000201249087000240FE0114850F8341021
:1014E0002846FEF730FF30B90D4800EBC400007904
:1014F0000A49087003E0601CC4B2122CEDD300BF8F
:1015000043463A4631460548CDE9009A007800F056
:1015100009F8BDE8FC8700003800002039000020F1
:10152000A0B500082DE9F04704460D4616461F46B3
:10153000DDE908890A2C29D2DFE804F01F05090E2D
:101540001316191C2225484603F06EF81EE031469A
:10155000284602F031FF19E04146384602F064FEA9
:1015600014E002F041FE11E002F0BAFF0EE002F0DA
:101570001BFE0BE002F0D6FF08E009F07BFE05E061
:1015800003F0FAF802E000F005F800BF00BFBDE884
:10159000F087000070B502F047F903F0C1F8064685
:1015A0003046FFF784F8044622460B4602A006F0B8
:1015B000A5FE09F05FFE70BD426174746572793AF0
:1015C000252E36660D0A0000014601F00F000A11B3
:1015D00002EB820200EB4200C0B2704701A009F0AA
:1015E00077F80000427573002DE9F04FDDB08046BA
:1015F0000C4615461E4659A9404609F035F959AA28
:1016000024A154A806F0A4FE402144A8FEF76DFED4
:101610004FF4807104A8FEF768FE59AB20A2402168
:1016200044A8009606F07AFE44A82B4654AA22A1AC
:10163000CDE9004004A806F08BFE04A8FEF77CFE6E
:1016400087B2394604A800F0FDFE814644A8FEF7A3
:1016500073FE1FFA80FA4FF480612448FEF745FEBE
:1016600004AB3A4622A12148CDF8009006F070FE66
:101670001E48FEF761FE83465A4621A102A806F0E5
:1016800067FE00F08BFE194902A800F05BFA5DB01E
:10169000BDE8F08F252E313473303030000000006B
:1016A0004461746154696D653D25733B4943434909
:1016B000443D257300000000514E3D25733B5354BB
:1016C0003D37343B434E3D323038333B50573D2558
:1016D000733B4D4E3D25733B466C61673D383B4344
:1016E000503D26262573262600000000D404002045
:1016F0002323253034642573253034580D0A000027
:101700002564000010B5002400203249087007202D
:10171000314908700821314803F0D6F905E014205A
:1017200001F07EFB04F1140084B22B480078401EC7
:1017300028490978884202DDB4F5967FEFDB264818
:101740000078801E81B2264802F064FB254908809B
:10175000234800782D2833D12148407803282FD101
:101760001F4840791E49897940EA01201D490988AE
:10177000884225D1184801781B48FEF7B6FD0A209B
:1017800001F066FB4E20194908701348027814498D
:101790001548FEF791FD0A2001F05AFB124909791C
:1017A000114AD27841EA0220FEF773FF1049C1F8CE
:1017B000260009480178491C0948FEF796FD02E019
:1017C00042200A49087009480178094880F82A101F
:1017D00010BD000021000020220000204300002056
:1017E000090F00204C0000203C0000204E0000208B
:1017F000D40E002010B509A006F080FD002406E0FC
:101800000848015D08A006F079FD601CC4B2072CF1
:10181000F6DB07A006F072FD10BD0000434F323A20
:10182000000000003C0000203078253032582000B5
:101830000D0A000010B504A006F040FA642001F083
:10184000EFFA00F01BFE10BD41542B434950434CAE
:101850004F53453D300D0A0070B504460D4630A08B
:1018600006F02CFA4FF4FA7001F0DAFA30A133489E
:10187000FEF746FD324908600EE000F0FFFD28A0AB
:1018800006F01CFA4FF4FA7001F0CAFA2DA12B48A9
:10189000FEF736FD2A490860294800680028ECD088
:1018A0002FA006F02BFD4FF480713348FEF71DFD8D
:1018B0002B46224631A1304806F04AFD2E4806F05C
:1018C000FDF94FF4FA7001F0ABFA34A11B48FEF7B2
:1018D00017FD1B49086000203449086015E03348B3
:1018E0000068401C3149086031A11448FEF708FD2A
:1018F00013490860C82001F093FA2C480068642856
:1019000003DD00202949086003E00D480068002835
:10191000E5D000BF00F0B2FD01F086FF70BD000011
:1019200041542B4E45544F50454E0D0A00000000C7
:101930002B4E45544F50454E3A203000C4010020F4
:10194000140000204E6574776F726B2069732061FC
:101950006C7265616479206F70656E65640000006B
:101960002A2A2A2A5443502020454E41424C452AD7
:101970002A2A2A0D0A000000D403002041542B43D8
:1019800049504F50454E3D302C22544350222C227A
:101990002573222C25730D0A000000002B2B4349D0
:1019A000504F50454E3A20302C3000001800002097
:1019B0002B4349504F50454E3A20302C3000000008
:1019C00010B501F031FF37A006F078F94FF47A70C6
:1019D00001F026FA36A13A48FEF792FC3949086030
:1019E0000EE000F04BFD2FA006F068F94FF47A707E
:1019F00001F016FA2EA13248FEF782FC3149086048
:101A0000304800680028ECD02FA006F077FC00F0EA
:101A100035FD33A006F052F94FF4FA7001F000FAE8
:101A200032A12748FEF76CFC26490860084600688A
:101A300020B123490E312FA006F060FC00F01EFDFE
:101A400031A006F03BF94FF4FA6001F0E9F931A159
:101A50001B48FEF755FC1B4908600846006818B98A
:101A60002FA11748FEF74CFC15E000F007FD2FA052
:101A700006F024F94FF47A7001F0D2F92EA1104843
:101A8000FEF73EFC0F4908600846006818B924A11B
:101A90000B48FEF735FC0B4800680028E5D000F045
:101AA000EDFC10BD41542B4350494E3F0D0A000040
:101AB0002B4350494E3A2052454144590000000002
:101AC000C4010020140000202A2A2A2A53494D204C
:101AD0002052454144592A2A2A2A0D0A00000000B2
:101AE00041542B4353510D0A000000002B43535126
:101AF0003A0000002A2A2A2A4353513A25732A2AF7
:101B00002A2A0D0A0000000041542B434752454742
:101B10003F0D0A002B43475245473A20302C3100F5
:101B20002B43475245473A20302C350041542B4334
:101B3000474154543F0D0A002B43474154543A2027
:101B40003100000070B504460D464FF480713948ED
:101B5000FEF7CBFB224638A1364806F0F9FB3548A4
:101B600006F0ACF84FF4FA7001F05AF937A1384892
:101B7000FEF7C6FB3749086000203749086019E0C6
:101B800035480068401C3449086030A13048FEF7F1
:101B9000B7FB304908604FF47A7001F041F92E48E4
:101BA00000680A2806DD00202B49086001202B4927
:101BB000087003E0274800680028E1D000BF2846ED
:101BC00006F07CF84FF4FA7001F02AF924A12048BD
:101BD000FEF796FB1F49086000201F49086019E0C6
:101BE0001D480068401C1C4908601DA11848FEF7EC
:101BF00087FB184908604FF47A7001F011F9164814
:101C000000680A2806DD00201349086001201349F6
:101C1000087003E00F4800680028E1D000BF00F022
:101C20002DFC0E480078012802D11E2001F004F995
:101C300070BD0000D403002041542B43495053454C
:101C40004E443D302C25730D0A0000003E0000007C
:101C5000C4010020140000201800002020000020F3
:101C60004F4B00002DE9F04F93B0044601F0DCFD2E
:101C7000F7A006F023F84FF4FA7001F0D1F8F6A1BE
:101C8000F648FEF73DFBF64908600EE000F0F6FB73
:101C9000EFA006F013F84FF4FA7001F0C1F8EEA1CE
:101CA000EE48FEF72DFBEE490860ED48006800287D
:101CB000ECD0ECA006F022FB00F0E0FBEFA005F07A
:101CC000FDFF4FF4FA7001F0ABF8F0A1E348FEF726
:101CD00017FBE34908600EE000F0D0FBE7A005F039
:101CE000EDFF4FF4FA7001F09BF8E8A1DB48FEF736
:101CF00007FBDB490860DA4800680028ECD0E6A161
:101D0000D648FEF7FDFAD649086008460068002864
:101D100024D100F0B3FBE4A005F0D0FF40F6B830CA
:101D200001F07EF8CCA1CD48FEF7EAFACC49086074
:101D30000EE000F0A3FBDCA005F0C0FF4FF4FA704A
:101D400001F06EF8DCA1C548FEF7DAFAC449086074
:101D5000C34800680028ECD000F090FB01F064FD5F
:101D6000D7A005F0ABFF40F6B83001F059F8D7A185
:101D7000BA48FEF7C5FABA4908600020D54908609C
:101D80001FE0D4480068401CD249086000F076FB90
:101D9000CBA005F093FF40F6B83001F041F8CBA19D
:101DA000AE48FEF7ADFAAE490860CA480068072899
:101DB00002D101F039FD04E0C64800680E2800D1C8
:101DC00003E0A74800680028DBD000BF00F056FB06
:101DD00001F02AFDC0A005F071FF4FF4FA6001F098
:101DE0001FF89DA19D48FEF78BFA9D4908600EE003
:101DF00000F044FBB8A005F061FF4FF4FA7001F069
:101E00000FF895A19548FEF77BFA9549086094482C
:101E100000680028ECD000F031FBB3A005F04EFFC5
:101E20004FF4FA7000F0FCFF8BA18C48FEF768FAC3
:101E30008B4908600EE000F021FBABA005F03EFFEF
:101E40004FF4FA7000F0ECFF83A18448FEF758FAD3
:101E500083490860824800680028ECD000F00EFB3F
:101E6000A6A005F02BFF40F6B83000F0D9FFA7A1DF
:101E70007A48FEF745FA7A490860002095490860DB
:101E80003BE094480068401C9249086000F0F6FA74
:101E90009AA005F013FF4FF47A7000F0C1FF9BA1E8
:101EA0006E48FEF72DFA6E4908608A4800680A28D5
:101EB00017D0884800681E2813D08648006832284A
:101EC0000FD08448006846280BD0824800685A2802
:101ED00007D0804800686E2803D07E4800688228BA
:101EE00002D101F0A1FC08E07A480068962804D1EC
:101EF00001F09AFC13B0BDE8F08F59480068002843
:101F0000BFD001F091FC00201090119012900D9024
:101F10000E900F9000258246514800684F49401AA4
:101F2000821E2C214D4802F0CFF805463DB16D1CB4
:101F3000284606F09EFE0746FEF7E4FB1090484850
:101F4000006800F1020A504606F093FE0746FEF7CD
:101F5000D9FB0D900025AA4600F090FA67A005F085
:101F6000ADFE4FF47A7000F05BFF68A13B48FEF7CE
:101F7000C7F93B49086000205649086018E05548F9
:101F80000068401C5349086000F078FA5BA005F037
:101F900095FE4FF47A7000F043FF5CA12F48FEF7E6
:101FA000AFF92F4908604B4800680A2800D1A1E723
:101FB0002B4800680028E2D0294800682749401AC9
:101FC000821E2C21254802F07FF805463DB16D1C8C
:101FD000284606F04EFE0746FEF794FB1190204877
:101FE000006800F1020A504606F043FE0746FEF77D
:101FF00089FB0E900025AA4600F040FA3FA005F0AC
:102000005DFE4FF47A7000F00BFF40A11348FEF71D
:1020100077F91349086000202E49086078E02D48C0
:102020000068401C2B49086000F028FA33A005F036
:1020300045FE4FF47A7000F0F3FE34A10748FEF736
:102040005FF907490860234800680A2860D151E712
:1020500041540D0A000000004F4B0000C401002055
:10206000140000202A2A2A2A41542020544553547F
:1020700020204F4B2A2A2A2A0D0A000041542B43C4
:10208000474E53535057523F0D0A00002B43474EC3
:1020900053535057523A00002B43474E5353505717
:1020A000523A20310000000041542B43474E535315
:1020B0005057523D310D0A0052454144592100000C
:1020C00041542B43414750530D0A0000737563631D
:1020D000657373001800002041542B434750534848
:1020E0004F540D0A0000000041542B43474E5353F8
:1020F000494E464F3D300D0A0000000041542B432D
:10210000474E5353494E464F0D0A00004E2C0000D7
:1021100067480068002882D0654800686549401A11
:10212000821E2C21634801F0CFFF05463DB16D1C96
:10213000284606F09EFD0746FEF7E4FA12905C483A
:10214000006800F1020A504606F093FD0746FEF7CC
:10215000D9FA0F9058A15046FEF7D2F8861C002EEF
:1021600051D03046FEF719F98046F01DFEF715F9FB
:1021700083462C2102A8FEF7B8F8642098FBF0F102
:1021800000FB118064300790642098FBF0F064211C
:1021900090FBF1F201FB1200401E069042F210701B
:1021A00098FBF0F0059042F210709BFBF0F00830C5
:1021B000049064209BFBF0F090FBF1F201FB120015
:1021C000039064209BFBF0F100FB11B0029002A889
:1021D000FEF71EF8019001A8FEF70CFB07461FB999
:1021E00036A006F08BF885E6387D64382070387CA0
:1021F000401C6070387BA070387A2071387960712B
:102200003878A07100BF4FF00009002712E010A934
:1022100051F827000021FEF791FA0AD00DA951F8D4
:1022200027000021FEF78AFA03D009F1010000F02F
:10223000FF097F1C032FEADBB9F1030F2FD1DDE982
:102240001001FEF7B7F80B901299FEF7B3F8224988
:102250000C90FEF739F98346FEF729FA07463A460D
:102260000B461EA11F4806F073F8DDE90D01FEF7CD
:10227000A1F80B900F99FEF79DF817490C90FEF707
:1022800023F98346FEF713FA07463A460B4613A195
:102290001448103006F05CF813A006F02FF8002563
:1022A000AA4600F0EBF801F0BFFA00BF22E60000FA
:1022B00014000020C4010020450000002A2A2A2A18
:1022C00052544320555044415445204552524F5298
:1022D0002A2A2A2A0D0A000000004040252E3666D0
:1022E00000000000BD2000202A2A2A2A474E53530E
:1022F000204745542A2A2A2A0D0A00002DE9F041D8
:1023000007461DA005F0DAFC4FF4FA7000F088FDD6
:102310001CA11E48FDF7F4FF1D4908600EE000F007
:10232000ADF815A005F0CAFC4FF4FA7000F078FD86
:1023300014A11648FDF7E4FF154908601448006829
:102340000028ECD013A11148FDF7DAFF041E00D0DD
:10235000641D15213846FDF7C8FF3D46002605E0FF
:1023600014F8010B05F8010B701CC6B2142EF7DB34
:1023700000F084F8BDE8F08141542B4349434349C0
:10238000440D0A002B49434349443A00C40100204C
:10239000140000204349443A0000000010B513A087
:1023A00005F08CFC4FF4FA7000F03AFD134914A0CC
:1023B00005F0A4FF14A11148FDF7A2FF154908601C
:1023C0000EE000F05BF814A005F078FC4FF4FA7012
:1023D00000F026FD14A10948FDF792FF0D490860A1
:1023E0000C4800680028ECD010BD000041542B437D
:1023F00049504F50454E3F0D0A000000C4010020D7
:1024000025730D0A000000002B4349504F50454EE4
:102410003A0000001400002041542B4E45544F5008
:10242000454E0D0A000000004E6574776F726B20F8
:10243000697320616C7265616479206F70656E6587
:102440006400000070B503460C464FF6FF71002291
:102450000FE0985C80EA1121002507E001F00106F9
:10246000490816B14AF2010041406D1C082DF5D310
:10247000521CA242EDD388B270BD000010B564209A
:1024800000F0CEFC00200449C1F804014FF4807133
:102490000148FDF72AFF10BDC401002070B50646B3
:1024A0000C4604F08000802808D104F07F0000EB87
:1024B000800106F58E7000EBC10507E004F07F0097
:1024C00000EB800106F55D7000EBC10504F07F00B4
:1024D000287004F08000C00968702946304605F075
:1024E000ABF8002070BD70B506460C4604F08000C5
:1024F000802808D104F07F0000EB800106F58E7083
:1025000000EBC10505E004EB840106F55D7000EB0E
:10251000C1050020A87004F07F002870C4F3C0102B
:1025200068702946304605F05FF8002070BD70B530
:1025300005460C4604F08000802805D104F07F0198
:10254000284605F073FA02E0284605F049FA002013
:1025500070BD2DE9F04106460D4690461F4605F038
:102560008000802808D105F07F0000EB800106F58F
:102570008E7000EBC10407E005F07F0000EB8001E6
:1025800006F55D7000EBC10405F07F00207005F0DA
:102590008000C0096070C4F80880E770607808B1F6
:1025A0002078E080022F01D10020207121463046A2
:1025B00004F0CEFF0020BDE8F0812DE9F041054692
:1025C0000E461746984606F07F0000EB800105F5A1
:1025D0005D7000EBC104E760C4F814800020A061C6
:1025E000607006F07F002070E878012800D1276134
:1025F000207820B92146284604F0CEFE03E021468B
:10260000284605F07AF80020BDE8F08108B50022E0
:102610000092009A61F30A12009202691268009B0C
:102620001A4303691A6008BD70B506460C4604F0EB
:102630008000802808D104F07F0000EB800106F5BF
:102640008E7000EBC10505E004EB840106F55D70BA
:1026500000EBC1050120A87004F07F002870C4F3CE
:10266000C01068702946304605F015F8002070BD8E
:102670002DE9F04107460D461646984605F07F00C5
:1026800000EB800107F58E7000EBC1040120607043
:1026900005F07F002070E66026610020A061C4F88C
:1026A0001480207820B92146384604F075FE03E0F6
:1026B0002146384605F021F80020BDE8F0811CB520
:1026C0000446204604F033FEE068C06800902046CF
:1026D00005F0D6F903280BD10020A0704FF400704C
:1026E000A080009820F4705000F51050009009E090
:1026F0000120A0704020A080009820F4705000F5C8
:10270000A05000900098E168C860002001900198F6
:1027100020F4005000F5005001900198E1684861F4
:1027200001201CBDF8B50546002400200090284675
:1027300005F0E5F9064690E006F0010000287DD09E
:10274000E1B2284600F002FB0090009800F0010082
:1027500030B3012000FA04F72869406BB8432969B7
:10276000486300200090009820F00100401C009079
:1027700005F1180050F8240000998160E1B2394851
:102780000068426828469047E878012808D13CB99B
:1027900040F21110405D042802D1284604F0A7FE43
:1027A0000098C0F3C00060B100200090009820F0B5
:1027B00008000830009005F1180050F82400009936
:1027C00081600098C0F3001060B100200090009874
:1027D00020F010001030009005F1180050F824008F
:1027E000009981600098C0F3801060B100200090D3
:1027F000009820F040004030009005F1180050F89B
:102800002400009981600098C0F3400060B100206E
:102810000090009820F00200801C009005F1180044
:1028200050F82400009981600098C0F3C01028B1CE
:102830002146284600F09EFA002000E00BE00090C0
:10284000009820F080008030009005F1180050F8CA
:10285000240000998160641C7608002E7FF46CAF20
:102860000120F8BDD00000207CB5044600250020E2
:102870000190204605F04BF906466FE006F0010096
:10288000002869D0E9B2204605F049F90190019885
:1028900000F00100C8B300200190019820F0010071
:1028A000401C019004F1540050F82500019981600A
:1028B000E078012817D104F1540050F82500006990
:1028C000009005EB850104F55D7000EBC1008068A8
:1028D0000099C1F31201411A05EB850204F55D7000
:1028E00000EBC2008161E9B21E4800680268204620
:1028F0009047E078012808D13DB940F21110005D01
:10290000052802D1204604F0F2FD0198C0F34000F2
:1029100060B100200190019820F00200801C01901D
:1029200004F1540050F82500019981600198C0F32A
:10293000C00088B10B4800688168204688470020A5
:102940000190019820F008000830019004F1540033
:1029500050F82500019981606D1C7608002E8DD1FC
:1029600001207CBDD00000203EB50446A07A70B1A5
:10297000D4F80C010090009820F00200009000981C
:1029800020F0010000900099D4F80C0101600020B3
:102990000190019820F00100401C019020694068DE
:1029A0000199884321694860084800688169204688
:1029B000884700200290029820F0004000F100407B
:1029C00002900298E168486101203EBDD0000020DD
:1029D0007CB5044600200190019820F010001030D2
:1029E0000190E068806901998843E1688861E06846
:1029F000006A0090009800F00F0000EB800104F5E1
:102A00005D7000EBC1050098C0F3434007282DD24C
:102A1000DFE800F02C04051D1E2C1F0027E00098A5
:102A2000C0F30A1090B10098C0F30A122046E9687A
:102A300005F07FF8E8680099C1F30A110844E860DE
:102A4000A8690099C1F30A110844A8610FE00EE0DB
:102A50000DE0082204F2CC51204605F06AF8A8697E
:102A60000099C1F30A110844A86100E000BF00BF4B
:102A7000E068806901990843E168886101207CBDB4
:102A800038B5044608480068C168204688470020D9
:102A90000090009820F00800083000900098E1684D
:102AA0004861012038BD0000D00000201FB5044659
:102AB000002000904FF48970005D0090234800686A
:102AC0004169204688472069806801900020039072
:102AD000039820F4006000F5006003900398E1681B
:102AE0004861A07A70B3019800F0010050B340F241
:102AF0001510005D012825D19DF80000032821D183
:102B000000200290029820F00100401C0290D4F8AE
:102B10000C01006802990843D4F80C11086002986F
:102B200020F00200801C0290D4F80C010068029989
:102B30000843D4F80C1108600548006840F006000E
:102B400003490860012004B010BD0000D00000203F
:102B500010ED00E030B587B00446002002900690EA
:102B60000590049003900190029820F00100401C11
:102B700002902069406802998843216948600021D9
:102B8000204604F053FF00250BE0FF2104F118005C
:102B900050F82500816004F1540050F82500816050
:102BA0006D1C6078A842F0D84FF0FF312069816138
:102BB00006986FF30F00401C0690069880B200F54F
:102BC0008030069006992069C161059820F00800C0
:102BD00008300590059820F00100401C05900598EC
:102BE00020F00200801C059005992069416104983D
:102BF00020F00100401C0490049820F008000830E8
:102C00000490049820F00200801C0490049920692C
:102C10000161206900680390039820F4FE6003902E
:102C2000039920690160204604F061FC00200190B6
:102C3000019820F4805000F5805001900198E168DF
:102C4000486104480068016920468847012007B0B0
:102C500030BD0000D00000202DE9F04106460F46AF
:102C60003946304604F07AFF01214FF489708155CE
:102C70000021801C8155002511E005EB850106F53A
:102C80008E7000EBC104012060702570E58000208B
:102C9000E0704020A0600020E06060616D1C7078F2
:102CA000A842EAD8002510E005EB850106F55D7025
:102CB00000EBC104002060702570E580E0704020CA
:102CC000A0600020E06060616D1C7078A842EBD8C5
:102CD000304604F01BFB304604F048F90021304632
:102CE00004F0A4FF304604F0D4F9304604F067FE47
:102CF000BDE8F08138B50446002000900748006820
:102D0000C16920468847009820F4801000F58010A3
:102D100000900098E1684861012038BDD000002093
:102D200038B504460020009007480068016A204634
:102D30008847009820F4001000F5001000900098DB
:102D4000E1684861012038BDD000002030B502465E
:102D500015692B6915696C6B24FA01F505F00105FD
:102D600043EAC51302F1180555F82150AD6805EA8C
:102D7000030030BD2DE9F84307460E46002500202C
:102D8000009006EB860107F58E7000EBC104D4E9D4
:102D90000501451AA068A84200D2A568E81C4FEAC0
:102DA000900807F1180050F82600806900901BE099
:102DB000D4E90501451AA068A84200D2A568E81C1C
:102DC0004FEA9008ABB2F2B23846E16804F055FF22
:102DD000E0682844E060A0692844A06107F1180079
:102DE00050F8260080690090009880B2404506D9CE
:102DF000D4E90510884202D260690028D8D10120A8
:102E0000BDE8F883704701460A2091FBF0F200FB11
:102E100012100A2291FBF2F240EA0210C0B270478F
:102E200000B5034603E04FF47A7000F011F8181E65
:102E3000A3F10103F7D100BD10B5044603E04FF440
:102E40007A70FFF7EDFF201EA4F10104F7D110BD49
:102E500000EBC001C9004FF0E022516100219161F7
:102E60000521116100BF4FF0E021096901F48031B3
:102E70000029F8D004214FF0E022116170470000D2
:102E8000F8B506460D4614466378227806A1284612
:102E900005F05EFAA078009063782A4606A13046D5
:102EA00005F056FAF8BD0000303A2F253032645F45
:102EB000253032640000000025732F253032645F16
:102EC000253032642E747874000000007CB501AAAD
:102ED000694608A006F09BFB05460DB101207CBDAC
:102EE00001984089009900FB01F40CB10020F6E73D
:102EF0000120F4E7303A00002DE9F04FC9B08246D6
:102F00008B46144659463EA807F00AFA8146B9F1A5
:102F1000000F0ED0FFF7DAFF012802D149B0BDE85B
:102F2000F08F584606F0C5FC8146B9F1000F00D07D
:102F3000F4E73EA806F05FFBFFF7C8FF012800D1C9
:102F4000ECE713225146404807F0E8F88146B9F112
:102F5000000F73D100203C903D9080211CA8FDF70C
:102F6000C4F92379A27839A13CA805F0F1F93A49CE
:102F7000D1F82B00FDF79BFB05460E463649C86984
:102F8000FDF795FB074688463349D1F81200FDF757
:102F90008EFBCDE91A013049D1F82100FDF787FBFE
:102FA000CDE918012C49D1F80D00FDF780FBCDE9E2
:102FB000160129498868FDF77AFBCDE914012649F5
:102FC000D1F81700FDF773FBCDE912012249D1F8C2
:102FD0002600FDF76CFBCDE90C78CDE90E56CDE966
:102FE0001001DDE91A01CDE90A01DDE91801CDE999
:102FF0000801DDE91601CDE90601DDE91401CDE99D
:103000000401DDE91201CDE90201DDE910013CAA6C
:10301000CDE9000111491CA805F09AF90A48C168D8
:1030200006F077FB1CA8FDF787F905460C4B2A46EE
:103030001CA9054807F0FBF9814600BF024806F0CD
:10304000C9FA00BF6AE70000083700202530326463
:103050005F25303264000000D40E0020F0B8000874
:103060007800002008B50121082001F0D1FB4FF4C1
:103070008070ADF8000003208DF8020014208DF858
:1030800003006946084800F011F84FF40070ADF8ED
:10309000000003208DF8020014208DF8030069461B
:1030A000014800F003F808BD000C01402DE9F04193
:1030B000024600250026002000230024002791F866
:1030C00003C00CF00F0591F803C00CF0100CBCF11C
:1030D000000F03D091F802C04CEA050591F800C03A
:1030E000BCF1000F31D0146800202BE04FF0010C30
:1030F0000CFA00F3B1F800C00CEA03069E4220D19E
:1031000083004FF00F0C0CFA03F7BC4305FA03FCE5
:103110004CEA040491F803C0BCF1280F06D14FF02B
:10312000010C0CFA00FCC2F814C00AE091F803C0CC
:10313000BCF1480F05D14FF0010C0CFA00FCC2F8AD
:1031400010C0401C0828D1D31460B1F800C0BCF1F5
:10315000FF0F34DD546800202EE000F1080C4FF022
:10316000010808FA0CF3B1F800C00CEA03069E420D
:1031700021D183004FF00F0C0CFA03F7BC4305FA82
:1031800003FC4CEA040491F803C0BCF1280F05D1FC
:1031900000F1080C08FA0CF8C2F8148091F803C08A
:1031A000BCF1480F07D100F1080C4FF0010808FAF4
:1031B0000CF8C2F81080401C0828CED35460BDE83B
:1031C000F0810000F0B50A4600230024002100250C
:1031D00000F00046B6F1004F02D11D4EF16901E04A
:1031E0001B4E7168C0F3034583B200F44016B6F578
:1031F000401F08D121F07061154E766826F0706688
:10320000134F7E6012E000F48016B6F5801F06D1E1
:10321000032606FA05F4A14341F0706106E0460D6D
:10322000360103FA06F6B14341F0706122B1460D52
:10323000360103FA06F6314300F00046B6F1004FBE
:1032400002D1034EF16101E0014E7160F0BD00005A
:10325000000001400246002093680B400BB10120A2
:1032600000E00020704741617047016170470AB17A
:10327000016100E04161704708B50121042001F0BF
:10328000C7FA0121102001F0C3FA10208DF80300C5
:10329000C002ADF8000003208DF8020069460D4819
:1032A000FFF704FF4FF400410A48FFF7DCFF10204E
:1032B0008DF803008001ADF8000003208DF80200B6
:1032C00069460548FFF7F2FE4FF480610248FFF7B8
:1032D000CAFF08BD000801400010014010B54FF4BE
:1032E00080610648FFF7C1FF40F6B830FFF798FD50
:1032F0004FF480610148FFF7B6FF10BD0010014098
:1033000010B54FF480610648FFF7AFFF6420FFF768
:1033100087FD4FF480610248FFF7A5FF10BD000054
:10332000001001402DE9F04FADF5397D0446894686
:103330009246DDF808B3B4A9204607F095FAB4AA7E
:1033400056A1AFA805F004F84FF400712FA8FCF7C0
:10335000CCFFD4F82B00FDF7AAF905460E46D4F8A9
:103360001700FDF7A4F907468846D4F82600FDF7B4
:103370009EF9CDE92A01D4F82100FDF798F9CDE9AD
:103380002801E069FDF793F9CDE92601D4F8120090
:10339000FDF78DF9CDE92401D4F80D00FDF787F98B
:1033A000CDE92201A068FDF782F9CDE920012F20A7
:1033B000005DCDE91C561E90E07ECDE918781A908C
:1033C0002A20005D1690DDE92A01CDE914012520AF
:1033D000005D1290DDE92801CDE910012020005D9B
:1033E0000E90DDE92601CDE90C01A07D0A90DDE912
:1033F0002401CDE90801607C0690DDE92201CDE9D8
:103400000401207B0290DDE92001B4AACDE900018E
:1034100025492FA804F09CFF2FA80521CDE901A97B
:10342000CDE9031040F2DB701623AFAA1FA1009074
:103430002E4804F08DFF2D48FCF77EFF85B229460B
:103440002A48FEF7FFFF2E902FA8FCF775FF80B2E9
:103450002D902648FCF770FF0A3080B22C902C98F3
:10346000584508DD22A004F049FF4FF0FF300DF56C
:10347000397DBDE8F08F4FF480612148FCF735FFBE
:103480001A48FCF759FF05462E98184B2A461DA1ED
:1034900000901B4804F05CFF0020E8E7252E313443
:1034A000733030300000000040B70008514E3D2519
:1034B000733B53543D25643B434E3D25643B50577D
:1034C0003D25733B4D4E3D25733B466C61673D2565
:1034D000643B504E554D3D313B504E4F3D313B438B
:1034E000503D26262573262600000000D408002023
:1034F000BBBAB3E5C7F8B2BBD7E30D0A00000000C2
:10350000D404002023232530346425732530345817
:103510000D0A000001A007F0DBF8000048617264AA
:103520000000000070B504462046FDF7C0F80546CF
:1035300000220A4BFDF7CEF803D800200849087096
:103540000BE008492046FDF703F903D801200449A0
:10355000087002E002200249087070BD000025409A
:103560003A0000200000204110B54FF480700C4953
:10357000086000F02FF94FF400700949086000F06E
:1035800029F94FF480700649091F086000F022F9FC
:103590004FF480700249086000F01CF910BD000073
:1035A000140C014010B54FF480700C49086000F015
:1035B00011F94FF400700949091F086000F00AF979
:1035C0004FF480700549091F086000F003F94FF4BB
:1035D00080700249086000F0FDF810BD140C014035
:1035E00070B508250024A8011249086016E060069D
:1035F000040E4FF480700F49091D086000F0EAF8CE
:103600004FF480700B49086000F0E4F8094808386E
:10361000006800F4007008B144F00104281EA5F110
:103620000101CDB2E3D14FF480700249091D086059
:10363000204670BD100C014070B5044608251DE001
:103640004FF480701249086000F0C4F804F0800064
:1036500028B14FF400700E49091F086003E04FF4D1
:1036600000700B4908606006040E00F0B3F84FF4D8
:1036700080700749091F086000F0ACF8281EA5F10A
:103680000101CDB2DCD14FF480700149086070BDFA
:10369000140C014010B54FF400701149086000F09F
:1036A00099F84FF480700E49086000F093F80C48C8
:1036B0000838006800F4007008B9002010BD4FF40D
:1036C00000700749091D086000F084F84FF480700D
:1036D0000349091D086000F07DF80120EEE70000B5
:1036E000100C014010B54FF480700C49086000F0D8
:1036F00071F84FF400700949086000F06BF84FF45E
:1037000080700649091F086000F064F84FF40070EB
:103710000249091F086000F05DF810BD140C01405B
:1037200010B54FF480701249086000F053F84FF460
:1037300000700F49091F086000F04CF84FF48070CA
:103740000B49091F086000F045F809480C3800686B
:1037500000F4007028B14FF4807005490860002023
:1037600010BD4FF48070024908600120F8E70000A6
:10377000140C01402DE9F04104460E4617461D4643
:10378000642C01D104F089FDFFF784FF2046FFF788
:1037900053FFFFF7C5FF20B9FFF7A4FF0020BDE8E6
:1037A000F0813046FFF748FFFFF7BAFF05E015F854
:1037B000010BFFF741FFFFF7D7FE381EA7F101010C
:1037C000CFB2F4DCFFF78EFF642C01D104F042FD90
:1037D0000120E4E76C2001E0411EC8B20028FBD1C3
:1037E000704710B51420FFF733FB10BD10B5FFF77D
:1037F00039FC10BD4CF6CC40014908607047000010
:103800000030004010B545F2555000F021F8062078
:1038100000F012F840F6FF7000F014F800F004F821
:10382000FFF7E8FF10BD00004AF6AA200149086032
:1038300070470000003000400149486070470000B8
:1038400000300040014988607047000000300040AF
:1038500001490860704700000030004008B50121B0
:10386000102000F0D5FF10208DF803004001ADF8C6
:10387000000003208DF8020069460448FFF716FC9B
:103880004FF400710148FFF7F0FC08BD0010014043
:1038900008B50121082000F0BBFF10208DF80300BF
:1038A0000002ADF8000003208DF8020069460448CC
:1038B000FFF7FCFB4FF480510148FFF7D6FC08BD31
:1038C000000C01402DE9F047DEB007460C461546D6
:1038D0005AA9384606F0C8FF5AAA27A155A804F0ED
:1038E00037FD402145A8FCF700FD4FF4807105A885
:1038F000FCF7FBFC234901F110005AAB22A2CDE9F1
:103900000001402145A804F009FD45A808212B46E7
:1039100055AACDE90041029024A105A804F018FDA4
:1039200005A8FCF709FD86B2314605A8FEF78AFD19
:10393000804645A8FCF700FD1FFA80F94FF480612E
:103940002748FCF7D2FC05AB324626A12448CDF827
:10395000008004F0FDFC2248FCF7EEFC8246524653
:1039600024A103A804F0F4FC1D4903A8FEF7EAF81B
:103970005EB0BDE8F0870000252E31347330303062
:1039800000000000BD2000204461746154696D6531
:103990003D25733B4C6E673D25732C4C61743D2572
:1039A000733B53423152533D31000000514E3D258F
:1039B000733B53543D37333B434E3D333034313BFF
:1039C00050573D25733B4D4E3D25733B466C61671B
:1039D0003D25643B43503D262625732626000000E6
:1039E000D404002023232530346425732530345833
:1039F0000D0A00002564000008B50121102000F028
:103A000007FF14208DF803004FF4C070ADF80000DC
:103A100003208DF8020069460448FFF747FB4FF486
:103A2000C0710248FFF721FC08BD000000100140F2
:103A30002DE9F04105460F46164600F076FAA02023
:103A400000F051FA00F012FA281200F04CFA00F0DF
:103A50000DFAE8B200F047FA00F008FA012804D1A4
:103A600000F077FA0120BDE8F08100F05EFAA120B5
:103A700000F039FA00F0FAF9012803D100F069FAF0
:103A80000120F0E7002410E000F005FA3855711E1F
:103A9000A14201D1012100E00021084600F014FA02
:103AA0000A20FFF7D5F9601CC4B2B442ECDB00F089
:103AB00050FA0020D7E72DE9F04104460E4617469C
:103AC00000F033FA10B10120BDE8F081A02000F031
:103AD0000AFA00F0CBF9012803D100F03AFA0120EC
:103AE000F2E7201200F0FFF900F0C0F9E0B200F0B8
:103AF000FAF900F0BBF9002506E0705D00F0F3F97B
:103B000000F0B4F9681CC5B2BD42F6DB00F021FA42
:103B10000A20FFF785F90020D6E7000010B504461B
:103B20000D48007B48B90C48806830B10B480078DC
:103B300018B901212046FEF777FD81212046FEF7C6
:103B400073FD06480078022805D11F23024A01218F
:103B50002046FEF732FD10BDB0870020E5000020B2
:103B600010B504462B4840682B49486029488068B6
:103B700088600121204602F002FC1F2810D1254850
:103B80000068264988420BD12248407B012807DC87
:103B90002048807B012803DB1E48807B10280CDD39
:103BA0001C49487B2022052101F0FEFB02201C4914
:103BB00008702046FFF7B2FF2AE01648417B00F16B
:103BC0000F02204601F046F9002803DA2046FFF7ED
:103BD000A5FF1DE013480078022819D0114800788D
:103BE000012815D00F480078032811D00E4800880E
:103BF000002806DD0C4802880C49204600F0E0F859
:103C000006E00948008818B90021204600F0B8F8FD
:103C100010BD0000B0870020D087002055534243DC
:103C2000E5000020E4000020E2000020B067002052
:103C300070B505460C460C480078022807D1812152
:103C40002846FEF7F1FC0020074908700BE004F05D
:103C50008000802807D104480078012803D0012182
:103C6000284600F08DF870BDE500002070B50446D0
:103C70000D4610480078022804D0032811D00428EB
:103C800014D10DE00C48417B00F10F02204601F0F9
:103C9000E1F8002803DA0121204600F071F806E07F
:103CA00000BF0021204600F06BF800E000BF00BF1D
:103CB00070BD0000E4000020B087002070B504460D
:103CC0000D460D48007810B1012812D103E02046BE
:103CD000FFF746FF0EE00948417B00F10F02204646
:103CE00001F0B8F8002803DA0121204600F048F876
:103CF00000E000BF00BF70BDE4000020B0870020DE
:103D00000021014A11707047E400002010B50446FC
:103D100000200C4908700C4908700C4800680168C4
:103D20000020884701212046FEF701FC8121204622
:103D3000FEF7FDFB1F23064A01212046FEF73DFC4E
:103D400010BD0000E4000020E500002098010020E4
:103D5000B087002010B504460020064908700120F5
:103D6000054908701F23054A01212046FEF725FC5E
:103D700010BD0000E4000020E5000020B087002016
:103D800070B505460C460A480A490860084604739F
:103D90000020094908700D23064A81212846FEF7B4
:103DA00067FC1F23054A01212846FEF706FC70BD6B
:103DB00055534253D0870020E4000020B0870020F4
:103DC00070B506460D4614460C488068A04202D2E3
:103DD0000A48806800E0204684B209488068001BD9
:103DE00007498860002008730420064908702346AC
:103DF0002A4681213046FEF73BFC70BDB08700208B
:103E0000D0870020E400002001A006F061FC000043
:103E10004D656D0030B502460B464FF6FF70002130
:103E200012E0545C604000240AE000F0010525B176
:103E300040104AF20105684000E04010651CECB2F9
:103E4000082CF2DB4C1CA1B29942EADB30BD000029
:103E500010B54FF480710448FFF7FCF904460A20BE
:103E6000FEF7F6FF204610BD0010014010B50020FF
:103E700000F07EF8012000F087F8012000F078F8CB
:103E80000A20FEF7E5FFFFF7E3FF0446002000F0FD
:103E90006FF8204610BD70B50025012000F074F8C1
:103EA00000240DE0012000F063F8FFF7D1FF10B10E
:103EB000802020410543002000F05AF8601CC4B265
:103EC000082CEFDB284670BD10B50446002000F03A
:103ED0004FF8204600F058F8012000F049F8002083
:103EE00000F046F810BD70B50546002417E000202C
:103EF00000F03EF880212141294009B1012100E074
:103F00000021084600F040F80A20FEF7A1FF01203A
:103F100000F02EF80A20FEF79BFF601CC4B2082CAC
:103F2000E5DB002000F024F870BD10B5012000F0A2
:103F30002BF8012000F01CF8FFF78AFF08B90120D8
:103F400010BD002000F020F8002000F011F8002043
:103F5000F6E710B5002000F00BF8002000F014F890
:103F6000012000F005F8012000F00EF810BD00005F
:103F700010B50446224680210248FFF778F9FFF782
:103F800030FC10BD0010014010B5044622464FF42D
:103F900080710348FFF76BF9FFF723FC10BD0000A9
:103FA0000010014008B50121182000F031FC10205C
:103FB0008DF803004FF44040ADF8000003208DF869
:103FC000020069461248FFF771F810208DF80300CF
:103FD0004020ADF8000003208DF8020069460D482E
:103FE000FFF764F848208DF803004FF40050ADF857
:103FF000000003208DF8020069460548FFF756F8D7
:10400000012000F055F8002000F046F808BD00003F
:10401000000C01400010014010B54FF4005102485F
:10402000FFF718F910BD0000000C014010B500208A
:1040300000F03EF810BD10B5012000F039F810BDB9
:1040400070B505460026002417E080212141294053
:1040500009B1012100E00021084600F013F8012019
:1040600000F01AF8FFF7D8FF10B180202041064376
:10407000002000F011F8601CC4B2082CE5DB3046CB
:1040800070BD000010B50446224640210148FFF7EC
:10409000EEF810BD0010014010B5044622464FF462
:1040A00000410248FFF7E3F810BD0000000C01409A
:1040B00010B5044622464FF480410248FFF7D7F876
:1040C00010BD0000000C014030B503460024002064
:1040D00004E01D5C8D4200D11C18401C904202D2AD
:1040E0001D5C002DF5D1204630BD704770B5002114
:1040F00000230F22C47804B3154C246804F4E06450
:10410000C4F5E064210AC1F10403CA40447804FA0A
:1041100003F184781440214309010E4C0678A1551F
:10412000047804F01F050124AC4005786D11AD0042
:1041300005F1E025C5F8004109E0047804F01F0509
:104140000124AC40044D0678761145F8264070BD38
:104150000CED00E000E400E080E100E002490143F2
:10416000024A1160704700000000FA050CED00E003
:1041700010B54FF400710248FFF777F810BD00004A
:104180000010014010B54FF400710248FFF76BF8C2
:1041900010BD00000010014010B5024802F050FAB6
:1041A00010BD0000E020002010B5FFF73DFB05A08A
:1041B00004F0A4F803F098FD07A004F09FF807F0BE
:1041C00059F810BD45524153452053544152542093
:1041D0002020202000000000455241534520464940
:1041E0004E4953480D0A000010B5FFF71DFB03A010
:1041F00004F084F807F03EF810BD00005468652014
:10420000706172616D65746572284750532920682A
:104210006173206E6F74206265656E207574696CC1
:10422000697A65642E0D0A002DE9F05F07460E4697
:10423000DFF8D88036A14046FCF785F830B9334620
:104240001622394633A004F059F849E041463DA012
:1042500004F054F80024A1460025A3463CA14046A2
:10426000FCF74EF8041E18D0E41C3B212046FCF756
:1042700059F8B0F100090CD020213846FCF735F888
:10428000BA4603E014F8010B0AF8010B4C45F9D3C8
:1042900000BF39462FA004F031F832A14846FCF7A0
:1042A0002FF8051E18D02D1D3B212846FCF73AF8A3
:1042B000B0F1000B0CD020213046FCF716F8B246C6
:1042C00003E015F8010B0AF8010B5D45F9D300BFB7
:1042D000314626A004F012F828A004F00FF800BF21
:1042E000202239460020FFF7E6FB0A20FEF798FD62
:1042F000202231461046FFF7DEFB0A20FEF790FD34
:1043000006F0B8FFFFF790FABDE8F09FA41F002069
:10431000000000006D6E3D25733B73743A25643BCD
:104320007077643D25733B6D696E3D353B74656EFA
:104330003D303B686F75723D303B6461793D303B89
:104340000D0A0000706172616D3A25730D0A00005C
:104350006D6E3D004D4E636F6E6669673A25730D55
:104360000A0000007077643D00000000505744636D
:104370006F6E6669673A25730D0A00005468652000
:1043800075706C6F61642074696D652835206D6986
:104390006E2920616E6420535428323229206861CE
:1043A0007665206E6F74206265656E2061646A7543
:1043B000737465640D0A00002DE9F05F07460D4631
:1043C000FFF732FADFF8C89032A14846FBF7BBFF8F
:1043D00028B92A46394630A003F090FF44E0494608
:1043E00032A003F08BFF0024A0460026A34632A192
:1043F0004846FBF785FF041E18D0241D3B212046AC
:10440000FBF790FFB0F100080CD020213846FBF7F5
:104410006CFFBA4603E014F8010B0AF8010B44459F
:10442000F9D300BF394626A003F068FFB8F1000FAA
:1044300019D008F107063B213046FBF773FFB0F1B6
:10444000000B0CD020212846FBF74FFFAA4603E0C3
:1044500016F8010B0AF8010B5E45F9D300BF294697
:104460001BA003F04BFF00BF202239464020FFF77E
:1044700022FB0A20FEF7D4FC202229466020FFF709
:104480001AFB0A20FEF7CCFC06F0F4FEBDE8F09F14
:10449000A41F0020000000006970313D25733B70AF
:1044A0006F7274313D25733B0D0A000070617261BB
:1044B0006D3A25730D0A00006970313D000000005F
:1044C0004950636F6E6669673A25730D0A000000F4
:1044D000504F5254636F6E6669673A25730D0A0038
:1044E00010B5FFF7A1F903A003F008FF06F0C2FE24
:1044F00010BD000054686520706172616D6574655F
:10450000722853414D504C452920686173206E6FCD
:1045100074206265656E207574696C697A65642EB5
:104520000D0A000010B586B0FFF77EF90020049058
:104530000590082204A903F00EFC25A003F0DEFE7E
:10454000002405E004A8015D25A003F0D7FE641C4B
:10455000082CF7DB24A003F0D1FE002003F035FC8B
:1045600022A207CA01AB07C3082201A9002003F059
:10457000CCFB002004900590082204A903F0EBFB7B
:104580001DA003F0BBFE002405E004A8015D14A0FB
:1045900003F0B4FE641C082CF7DB13A003F0AEFE9E
:1045A0009DF81000312807D19DF81700382803D155
:1045B00016A003F0A3FE02E017A003F09FFE002068
:1045C00003F003FC06F056FEFFF72EF906B010BD0F
:1045D0004F726967696E616C20446174613A0000D2
:1045E00025303278200000000D0A000031323334CB
:1045F0003536373800000000526561642057726913
:104600007474656E20446174613A0000546573747B
:10461000204F6B0D0A0000005465737420457272C0
:104620006F720D0A000000007FB50446FFF7FCF82A
:10463000214E22A13046FBF786FE70B9A079617940
:104640002279CDE900210290A3786278207800F5E4
:10465000FA611BA003F052FE2BE03046FBF79DFEF3
:10466000039021A0039903F049FE03A8FCF7C2F8C8
:104670000546287D64382070287C401C6070287BAB
:10468000A070287A2071287960712878A07120465E
:1046900000F0A4FAA07961792279CDE90021029095
:1046A000A3786278207800F5FA6112A003F026FE64
:1046B00000BF06F0DFFD7FBDA41F0020000000004A
:1046C00041542B54494D453A253034642D25303220
:1046D000642D2530326420253032643A253032642E
:1046E0003A253032640D0A0074696D653A25640D0F
:1046F0000A0000004E45572054494D453A25346480
:104700002D253032642D2530326420253032643A34
:10471000253032643A253032640D0A0070470000BB
:104720002DE9F047FCF768FE81464846FBF7BAFFE3
:1047300007460C49FBF7C8FE06460B49FBF7C4FECB
:1047400005460A49FBF78EFE04462046FBF7AFFFFD
:104750000746074A074BFBF7F5FE0546FBF7D2FF76
:10476000BDE8F08700F07F450000204100007D4358
:104770009A9999999999D93F10B5FFF755F803F08F
:1047800047FD6420FEF74CFBFDF734F86420FEF78C
:1047900047FB06F06FFD10BD01460020034A50683C
:1047A00020F4404008435060704700000010024071
:1047B00029B1064A52690243044B5A6104E0034A94
:1047C00052698243014B5A61704700000010024059
:1047D00029B1064AD2690243044BDA6104E0034A74
:1047E000D2698243014BDA61704700000010024039
:1047F00029B1064A12690243044B1A6104E0034AD4
:1048000012698243014B1A61704700000010024098
:1048100029B1064A92690243044B9A6104E0034AB3
:1048200092698243014B9A61704700000010024078
:1048300029B1064AD2680243044BDA6004E0034A15
:10484000D2688243014BDA607047000000100240DA
:104850002DE9F0410021002200250023002600243C
:1048600000278C46DFF86081D8F8048008F00C013E
:1048700021B1042907D0082959D109E0DFF84C817A
:10488000C0F8008058E0DFF84481C0F8008053E0B1
:10489000DFF83481D8F8048008F47012DFF828813A
:1048A000D8F8048008F48035920C0D2A01D0921CAF
:1048B00000E0062235B9DFF8188102FB08F8C0F8DD
:1048C000008033E0DFF80081D8F82C8008F48036CF
:1048D000DFF8F480D8F82C8008F00F0808F1010404
:1048E00046B9DFF8E880B8FBF4F808FB02F8C0F836
:1048F00000801BE0DFF8D080D8F82C80C8F30318C4
:1049000008F10107DFF8C080D8F82C80C8F303282D
:1049100008F1020CDFF8B480B8FBF7F808FB0CF8DC
:10492000B8FBF4F808FB02F8C0F8008004E0DFF8F8
:104930009C80C0F8008000BF00BFDFF88C80D8F8F2
:10494000048008F0F0010909DFF8888018F80130C8
:10495000D0F8008028FA03F8C0F80480DFF86880F7
:10496000D8F8048008F4E061090ADFF8688018F8D4
:104970000130D0F8048028FA03F8C0F80880DFF886
:104980004880D8F8048008F46051C90ADFF84480F0
:1049900018F80130D0F8048028FA03F8C0F80C8029
:1049A000DFF82480D8F8048008F44041890BDFF850
:1049B000288018F80130D0F80C80B8FBF3F8C0F864
:1049C0001080BDE8F0810000001002400024F400D7
:1049D00000127A00000000201000002010B588B0FE
:1049E000044601218804FFF7F3FE01210820FFF7A8
:1049F0000FFF01212020FFF70BFF18208DF81F006B
:104A00004FF48060ADF81C0003208DF81E0007A94C
:104A10002648FEF74BFB48208DF81F004FF400603E
:104A2000ADF81C0003208DF81E0007A91F48FEF7F3
:104A30003DFB03940020ADF818000C20ADF81600E3
:104A40000020ADF81400ADF81200ADF8100003A975
:104A5000174801F00DFA012240F22551144801F0E7
:104A6000E2F927208DF8080001208DF80B008DF861
:104A7000090002208DF80A0002A8FFF737FB012188
:104A80000B4801F03FF90420ADF8040010208DF828
:104A9000070003208DF8060001A90648FEF706FB73
:104AA00004210448FEF7DFFB08B010BD000C0140F4
:104AB000004800400014014010B504210148FEF7F1
:104AC000D2FB10BD0014014070B505460E4600F043
:104AD00025F84FF4FA70FEF7BBF900240CE000BF94
:104AE00080210D4801F068F90028F9D0295D0A48B5
:104AF00001F02FFA601CC4B2B442F0DB00BF802189
:104B0000054801F059F90028F9D00220FEF788F98C
:104B1000FFF7D2FF70BD00000048004010B504212F
:104B20000148FEF7A2FB10BD0014014070B5044619
:104B3000FEF7B0FD6420FEF77FFDFEF7F1FD18B92A
:104B4000FEF7D0FD002070BD0020FEF775FDFEF7DA
:104B5000E7FDFEF79FFD6520FEF76EFDFEF7E0FD29
:104B6000FEF73EFD0546FCF72FFDA071FEF7FCFCAD
:104B7000FEF736FD0546FCF727FD6071FEF7F4FCF5
:104B8000FEF72EFD00F07F052846FCF71DFD207185
:104B9000FEF7EAFCFEF724FD0546FCF715FDE07084
:104BA000FEF7E2FCFEF71CFD0546FCF70DFDA070CC
:104BB000FEF7DAFCFEF714FD0546FCF705FD607014
:104BC000FEF7D2FCFEF70CFD0546FCF7FDFC20705D
:104BD000FEF7E8FCFEF786FD0120B4E770B5044659
:104BE00003F05BFBFEF756FD6420FEF725FDFEF7A4
:104BF00097FD18B9FEF776FD002070BD0020FEF786
:104C00001BFDFEF78DFDA079382808DCA179C91CB1
:104C1000C8B2FEF7F8F80546FEF70EFD02E059208F
:104C2000FEF70AFDFEF77CFD6079FEF7ECF805461D
:104C3000FEF702FDFEF774FD2079FEF7E4F840F080
:104C400080052846FEF7F8FCFEF76AFDE078FEF7DF
:104C5000DAF80546FEF7F0FCFEF762FDA078FEF7F5
:104C6000D2F80546FEF7E8FCFEF75AFD6078FEF73D
:104C7000CAF80546FEF7E0FCFEF752FD2078FEF785
:104C8000C2F80546FEF7D8FCFEF74AFDFEF72AFDFE
:104C900003F0E0FA0120B0E710B50024002012492B
:104CA000087008201149087008211148FFF70CFF0F
:104CB00005E01420FEF7B4F804F1140084B20B48A8
:104CC0000078401E08490978884202DDB4F5FA7F71
:104CD000EFDB062207490648FBF750FB08B9002026
:104CE00010BD0120FCE70000210000202200002070
:104CF0002C000020090F00202DE9F04104460F464A
:104D000015461E46202221460020FEF791FE0A206D
:104D1000FEF786F8202239461046FEF789FE0A2063
:104D2000FEF77EF8202229464020FEF781FE0A2069
:104D3000FEF776F8202231466020FEF779FE0A2041
:104D4000FEF76EF8102209495001FEF771FE0A20A5
:104D5000FEF766F81022054910314FF40870FEF78F
:104D600067FE0A20FEF75CF8BDE8F081BD20002058
:104D700070B506460C461546601907490968884211
:104D800007D921220521304600F00EFB4FF0FF30FD
:104D900070BD0020FCE700008800002030B504460C
:104DA0000A46507800F0010010B10E4B07210CE0CC
:104DB0000D480068C06904EBC40500EB8503187951
:104DC000411D1079884200DC11790848018004E017
:104DD000481E81B2585C064D68540029F8D1002065
:104DE00030BD000068B6000898010020E2000020F5
:104DF000B067002010B502460B4608210648018026
:104E000005E0481E81B20548405C054C605400290D
:104E1000F7D1002010BD0000E200002077B60008A6
:104E2000B067002010B502460B46082106480180F5
:104E300005E0481E81B20548405C054C60540029DD
:104E4000F7D1002010BD0000E20000206FB600087E
:104E5000B067002070B505460E461446324805601E
:104E6000207823283ED00DDC1A2831D005DCB0B1E3
:104E7000032819D012284ED11BE01B281ED01E2853
:104E800049D120E02A283CD004DC25282FD028282E
:104E900041D131E02F2839D05A283CD11DE021469C
:104EA000304600F0A7FA70BD2146304600F030FAD7
:104EB000F9E721463046FFF771FFF4E72146304617
:104EC00000F090FAEFE72146304600F08BFAEAE76F
:104ED00021463046FFF7A6FFE5E721463046FFF7BB
:104EE00089FFE0E72146304600F0CEF9DBE72146B6
:104EF000304600F06DF9D6E72146304600F0E4F880
:104F0000D1E72146304600F0C5FACCE721463046CD
:104F100000F098FAC7E720220521304600F044FA55
:104F20004FF0FF30BFE700009C0000202DE9F0416A
:104F3000054627480068B0F5005F02D224480068A3
:104F400001E04FF40050044622480068B4FBF0F042
:104F500086B2204800232049026803C9FBF726F9DE
:104F600007461E48006833463A461D49D0F810C02F
:104F70002846E047002808DA11220421284600F0DC
:104F800013FA4FF0FF30BDE8F0812346144A812127
:104F900014480068FDF76CFB0F48D0E90020121997
:104FA00040F100000C49C1E9002009480068001BDD
:104FB000074908600C488068001B0B49886004485A
:104FC000006810B90320094908700020DBE70000E1
:104FD000980000208400002090000020980100200C
:104FE000B06700209C000020D0870020E400002053
:104FF0002DE9F04105462D480068B0F5005F02D26A
:105000002A48006801E04FF4005004462848006830
:10501000B4FBF0F086B2264800232649026803C993
:10502000FBF7C4F807462448006833463A4623494C
:10503000D0F814C02846E047002808DA03220421EB
:10504000284600F0B1F94FF0FF30BDE8F081194873
:10505000D0E90020121940F100001649C1E90020F2
:1050600012480068001B1149086015488068001B41
:10507000134988600D48006828B90021114800686C
:10508000FEF77EFE10E009480068B0F5005F02D22E
:105090000648006801E04FF4005083B2074A01213E
:1050A00008480068FDF789FA0020CEE79800002044
:1050B000840000209000002098010020B0670020AC
:1050C000D08700209C0000202DE9F04105460C46C9
:1050D00038480078002864D13748007B00F0800011
:1050E000802809D03449487B2022052100F05CF952
:1050F0004FF0FF30BDE8F0813048006881682846F5
:10510000884738B13A220221284600F04DF94FF085
:10511000FF30EFE7A0780006E17840EA014021790E
:1051200040EA012061790843C117254A03C2207A69
:10513000E17940EA0120234908600846008882B2EC
:105140001F4801682846FFF713FE002802DA4FF0D7
:10515000FF30CFE70220174908701948D0E9003224
:10516000194800680021A3FB006702FB007003FBE5
:1051700001001349C1E9006012480068124909683A
:105180004843104908600C4880680968884208D084
:105190000949487B2022052100F006F94FF0FF3035
:1051A000A8E74FF40050094908802846FFF7BEFEE3
:1051B000A0E70000E4000020B08700209801002054
:1051C000900000209800002084000020E2000020D1
:1051D00070B504460D461F4800681F4A1F494368C2
:1051E0002046984738B13A220221204600F0DCF8E8
:1051F0004FF0FF3070BD19480068401E000E18497E
:10520000087016480068401E000C4870134800885B
:10521000401E000A887011480078401EC8700E4871
:105220000068000E08710C480068000C48710A48BC
:105230000088000A887108480078C8710820094968
:105240000880054802680548016807A003F056F881
:105250000020CFE798010020840000208800002073
:10526000B0670020E20000204361706163697479D7
:105270003A20626C6F636B733D256C752C207369EB
:105280007A653D256C750A007CB505460E460024FE
:1052900004E000201B490855601C84B20C2CF8DB8C
:1052A0001948006801AA694643682846984738B1FA
:1052B0003A220221284600F077F84FF0FF307CBDFB
:1052C00008201049C8700098401E000E0871009810
:1052D000401E000C48710098401E000A887100981A
:1052E000401EC871022008720198000C4872019893
:1052F000000A88720198C8720C20044908800020B6
:10530000DDE70000B067002098010020E2000020E7
:1053100010B50346002204E000201E4CA054501C8F
:10532000C2B2122AF8DB70201A4C20700C20E071F7
:1053300019480078194C2478A04221D01848164CFE
:10534000247810F83400134CA0701548124C2478BF
:1053500000EBC40040790F4C207311480E4C2478A8
:1053600000EBC40000790B4C60730B480078401CC4
:10537000094C207020460078042801D100202070BC
:105380001220084C20800879122801DC087920803E
:10539000002010BDB06700208000002081000020A8
:1053A00050670020E200002030B50C4B0C4C2478F4
:1053B00003F834101302094C094D2D7804EBC50491
:1053C0006360074B1B785B1C054C237023461B78DE
:1053D000042B01D10023237030BD00005067002052
:1053E0008100002002460020014B18807047000019
:1053F000E200002070B504460D460F48806840B1B9
:105400000D49487B20220521FFF7CEFF4FF0FF30EA
:1054100070BD0A48006881682046884738B13A2242
:1054200002212046FFF7C0FF4FF0FF30F0E70020D9
:105430000349088000BFEBE7B087002098010020F7
:10544000E200002070B505460C46607800F00200CE
:10545000022807D1242205212846FFF7A5FF4FF097
:10546000FF3070BD0848008882B2084801682846AD
:10547000FFF77EFC002802DA4FF0FF30F1E7002052
:105480000349088000BFECE798000020900000204E
:10549000E20000202DE9F04105460C46474800781F
:1054A00000286ED14648007B00F08000802809D19A
:1054B0004349487B20220521FFF776FF4FF0FF305C
:1054C000BDE8F0813F48006881682846884738B1C8
:1054D0003A2202212846FFF767FF4FF0FF30EFE73F
:1054E00038480068C1682846884738B12722022119
:1054F0002846FFF759FF4FF0FF30E1E7A07800069C
:10550000E17840EA0140217940EA012061790843CD
:10551000C1172D4A03C2207AE17940EA01202B49C4
:1055200008600846008882B2274801682846FFF7CD
:105530001FFC002802DA4FF0FF30C1E722480CC8F8
:10554000234800680021A2FB006703FB007002FBF8
:1055500001001D49C1E900601C4800681C49096838
:1055600048431A490860164880680968884209D08B
:105570001349487B20220521FFF716FF4FF0FF302B
:105580009EE714E001200D49087010480068B0F54E
:10559000005F02D20D48006801E04FF4005083B272
:1055A0000C4A01210C480068FDF707F803E0284683
:1055B000FFF71EFD84E7002082E70000E4000020E2
:1055C000B087002098010020900000209800002063
:1055D00084000020B06700209C000020F8B504463D
:1055E0000D46164614B14FF0FF30F8BD0020009074
:1055F0006A46012103F057FF10B14FF0FF30F4E786
:105600004FF480503060009828600020EDE70020C3
:105610007047000010B504462CB105A002F06EFEE4
:105620004FF0FF3010BD02F06CFB0020FAE70000E5
:105630005553422044455649434520494E4954203C
:105640004552524F52000000014609B900207047F0
:105650004FF0FF30FBE70146002070472DE9F04195
:1056600004460D4616461F461CB14FF0FF30BDE8FC
:10567000F0813B4632462946002003F032FF08B94C
:105680000020F4E74FF0FF30F1E72DE9F041044648
:105690000D4616461F461CB14FF0FF30BDE8F081A5
:1056A0003B4632462946002003F064FF08B900203B
:1056B000F4E74FF0FF30F1E7704710B500F002F863
:1056C00010BD00000CB50020019000903F4800681C
:1056D00040F480303D49086000BF3C48006800F459
:1056E000003000900198401C0190009818B9019872
:1056F000B0F5A06FF1D13548006800F4003010B16A
:105700000120009001E000200090009801285CD169
:105710002F48006840F010002D49086008460068D6
:1057200020F0030008600846006840F002000860AE
:105730002648406825494860084640684860084651
:10574000406840F4806048600846C06A21490840CB
:105750001E49C8620846C06A1F4908431B49C862FF
:105760000846006840F08060086000BF1748006885
:1057700000F000600028F9D01448406820F47C1044
:10578000124948600846406840F4E81048600846FE
:10579000006840F08070086000BF0C48006800F0AE
:1057A00000700028F9D00948406820F0030007493C
:1057B00048600846406840F00200486000BF034867
:1057C000406800F00C000828F9D10CBD0010024020
:1057D0000020024000F0FEFF180701003EB505461C
:1057E0000C4620788DF8000060788DF80100A078D4
:1057F0008DF80200E0788DF8030020798DF8040020
:1058000060798DF80500A0798DF806008DF80750B5
:10581000FF208DF80800D2208DF809006B460A227F
:1058200007216420FDF7A6FF3EBD704710B516485E
:10583000006840F0010014490860084640681349B8
:1058400008401149486008460068114908400E495F
:1058500008600846006820F4802008600846406818
:1058600020F4FE0048600846006820F0A050086060
:105870004FF47F0088600020C862FFF71EFF4FF0E2
:1058800000600449086010BD001002400000FFF0F5
:10589000FFFFF6FE08ED00E010B50121880700F0DB
:1058A0004BF801282DD11748FFF740F915484079EA
:1058B000052190FBF1F201FB120058B911488079E3
:1058C00040B90020104908700E48407910B90020F6
:1058D0000E4908700B49887900EBD0714910A0EB94
:1058E000410129B94FF480510948FDF7BEFC04E09D
:1058F0004FF480510648FDF7B6FC0121880700F0FF
:105900000CF810BD5900002050000020510000206C
:10591000000C0140CA4302827047CA4302827047AA
:1059200021B1028842F00102028004E002884FF6B1
:10593000FE731A400280704730B5024600200023F3
:105940000024158A05EA0103958905EA010413B1CB
:105950000CB1012000E0002030BD1AB183890B4357
:10596000838102E083898B438381704701894FF6ED
:10597000F872114001817047002202881D4B984245
:105980000ED01D4B98420BD0B0F1804F08D01B4B6E
:10599000984205D01A4B984202D01A4B984204D133
:1059A0004FF68F731A404B881A43174B984207D013
:1059B000164B984204D04FF6FF431A40CB881A4347
:1059C00002808B8883850B8803850A4B98420BD015
:1059D000094B984208D00E4B984205D00D4B984287
:1059E00002D00D4B984201D10B7A038601238382AA
:1059F00070470000002C01400034014000040040CA
:105A000000080040000C004000100040001400405E
:105A10000040014000440140004801401FB5012101
:105A20000846FEF7D5FE4FF08040FFF79FFF0020AD
:105A3000ADF80A00ADF8060042F20F70ADF80800AC
:105A400041F61F40ADF8040000208DF80C0001A9BC
:105A50004FF08040FFF790FF01218807FFF75AFFC2
:105A6000012211469007FFF778FF1C208DF80000F7
:105A700001208DF8030002208DF8010001208DF82F
:105A800002006846FEF732FB01218807FFF748FF56
:105A90001FBD000070B540F22551104800F099F983
:105AA000012810D10D4800F04FFAC5B20B4800F0A4
:105AB0004BFAC4B2204603F075FD40F22551074869
:105AC00000F011F900BF0821044800F075F9012821
:105AD00003D10821014800F0FDF870BD00380140F5
