:020000040800F2
:10000000A013002005010008D7310008D1270008FF
:10001000FF2E0008E5140008294900080000000030
:100020000000000000000000000000004140000847
:100030007522000800000000F9370008B3410008ED
:100040001F0100081F0100081F0100081F01000810
:100050001F0100081F0100081F0100081F01000800
:100060001F0100081F0100081F0100081F010008F0
:100070001F0100081F0100081F0100081F010008E0
:100080001F0100081F0100081F0100081F010008D0
:100090001F0100081F0100081F0100081F010008C0
:1000A0001F0100081F0100081F0100081F010008B0
:1000B000214200081F0100081F0100081F0100085D
:1000C0001F0100081F0100081F0100081F01000890
:1000D0001F0100083944000885440008254600082F
:1000E0001F0100081F0100081F010008DFF810D0E1
:1000F00000F07EFD00480047E9590008AFF300809A
:10010000A01300200648804706480047FEE7FEE7A8
:10011000FEE7FEE7FEE7FEE7FEE7FEE7FEE7FEE7B7
:10012000B5410008ED00000838B5D0E90221491EAC
:1001300001EB410102EBC1014268C1EB011102EB8D
:1001400081010268C1EB011102EB8102D0E90431A7
:1001500001EB410103EB81013023A1F5527191FBC9
:10016000F3F4174D6C4302EBC41291FBF3F403FB61
:10017000141100921A2902DB124B1A4400920C222D
:1001800091FBF2F3104C6343009C04EBC313009308
:1001900091FBF2F302FB13110C4A08E0491E40F2F6
:1001A000A324535C6343009C04EBC3130093002916
:1001B000F4DC0146684600F0C1FA009838BD000042
:1001C0003F0C0F008051010067C203004B5E000826
:1001D00040EA01039B0703D009E008C9121F08C0C9
:1001E000042AFAD203E011F8013B00F8013B521E49
:1001F000F9D27047D2B201E000F8012B491EFBD2C0
:1002000070470022F6E710B513460A460446194621
:10021000FFF7F0FF204610BD30B505462A460B46D5
:1002200012F8010B13F8014B08B1A042F8D01CB131
:10023000002802D06D1CF1E7284630BDCAB2401E2E
:1002400010F8011F8A4202D00029F9D1002070471E
:10025000421C10F8011B0029FBD1801A704710B511
:10026000002200E0521C835C8C5CA34201D1002B75
:10027000F8D1D8B2E1B2401A10BD30B50446002022
:10028000034600E05B1C934203D2E05CCD5C401B64
:10029000F8D030BD70B5064604F0C8FE04680546C7
:1002A0000A220021304600F0DDFA2C6070BDF0B467
:1002B00080EA0102D40F4200B2EB410F02D20246A3
:1002C000084611464A0042D0C30DDDB2C1F3C75201
:1002D000AD1A202D35DAC1F3160141F4000204B144
:1002E0005242C5F1200602FA06F12A411044B3EB4E
:1002F000D05F23D0C4B1012DA0EBC35009DCF0BC0A
:100300004FF0004202EAC352DBB200F5000000F0F9
:10031000EABA400000F1807000EBC350A0F1807099
:1003200040EAD170490009E0490841EAC071A0EBF8
:10033000C35000F50000400800EBC350F0BC00F0D3
:10034000C9BA6142012202EB4101001BF6E7F0BC91
:10035000704781F00041AAE780F00040A7E780EAFB
:10036000010210B502F00043400022D04A001FD025
:10037000010E01EB1261C0F35600C2F3560240F4C5
:10038000000042F40002A0FB022000047F391404A4
:1003900000D0401C50EA124001D44000491EC2B2B5
:1003A0000C0604EBD010401C4008802A02D003E069
:1003B000002010BD20F00100002900DA00201843C1
:1003C00010BD30B480EA010202F0004530F0004276
:1003D00021F0004013D090B1C30DD40DC2F316012B
:1003E000C0F31600E41A41F4000140F400027D3429
:1003F000914201D3641C00E04900002C02DA30BCB9
:10040000002070474FF400000023914201D3891A65
:10041000034340084FEA4101F7D151B1914202D163
:100420004FF0004105E002D24FF0010101E06FF012
:10043000010103EBC450284430BC00F04BBA2DE955
:10044000FE4F804681EA0300C00F0C46009021F069
:10045000004123F00045B8EB0200A94105D2404617
:10046000214690461C460B46024623F000401043AE
:1004700047D0270DC7F30A00C3F30A510290401A70
:10048000019040286BDAC3F3130040F4801B0098FE
:10049000924620B10023D2EB030A63EB0B0B0198C9
:1004A0005946C0F14002504600F021F906460D467B
:1004B00050465946019A00F029F910EB08006141B5
:1004C000002487EA115284EAE7731A4340D0009A65
:1004D00062B3019A012A4FEA075215DC001B61EB57
:1004E00002014FF0004202EA0752CDE90042001C2F
:1004F00041F5801132462B4600F032FA03B0BDE8D8
:10050000F08F40462146F9E7001B61EB0201001C19
:1005100041F5801300185B412018A2F5001747EB46
:10052000030140EAD570B6196D4111E06D084FEA3C
:10053000360645EAC0754FEA0752001B61EB02011F
:10054000001C41F5801149084FEA30000019514163
:1005500032462B4603B0BDE8F04F00F0F2B90098E8
:10056000012240000023D0EB020263EBE07300980D
:1005700021464FEAE074B8EB000061EB0401E9E7C3
:1005800083F000435BE781F0004158E7C10F80EA48
:10059000E0700844CA079623002100F0A4B996230E
:1005A0000022114600F09FB900F0004230F00040F8
:1005B0000AD0C10D01F56071C0F3160042EA015185
:1005C000C2084007114370470020014670470000F1
:1005D00030B5041E71F1000404DB4FF000444042CA
:1005E00064EB0101141E73F1000405DB1C464FF09F
:1005F0000043524263EB0403994208BF904230BD6E
:1006000001F0004330B421F0004150EA010206D06D
:100610000A0DA2F56072C1F31301002A02DC30BC9E
:1006200000207047440F44EAC104C100E01830BC08
:1006300000EBC25000F04EB9002801DBC0F10040D1
:10064000002901DBC1F1004181427047002801DB34
:10065000C0F10040002901DBC1F100418842704730
:1006600030B50B46014600202022012409E021FA82
:1006700002F59D4205D303FA02F5491B04FA02F57F
:100680002844151EA2F10102F1DC30BD2DE9F05F16
:100690000546002092469B468846064681464024F1
:1006A0001BE0284641464746224600F0B3FA53462F
:1006B0005A46C01A914110D311461846224600F0FE
:1006C00016F82D1A67EB01084F462246012000213B
:1006D00000F00DF817EB00094E41201EA4F10104B3
:1006E000DFDC484631462A464346BDE8F09F202AD3
:1006F00004DB203A00FA02F1002070479140C2F179
:10070000200320FA03F3194390407047202A06DBA8
:10071000CB17203A41FA02F043EAE07306E041FACF
:1007200002F3D040C2F120029140084319467047BD
:10073000014900F003B80000700F002010B50068F8
:100740003C22B0FBF2F302FB1303B0FBF2F00B60B0
:10075000B0FBF2F302FB1303B0FBF2F018224B6084
:10076000B0FBF2F302FB1303B0FBF2F0021D8B604F
:100770000723B2FBF3F403FB1422800040F2B553CD
:1007800000F66C308A61B0FBF3F2B0FBF3F403FBCC
:100790001400443280084A61C8613B2802D39207A2
:1007A00000D0401C0022074C13460A61E25C8242E2
:1007B00003D8801A5B1C0B61F8E7401CC860084630
:1007C00010BD0000575E00080FB4002300B589B0CB
:1007D0000CA900910B996FF00042CB601E4B069361
:1007E0001E4B07930423CDE901321D4A08920246AD
:1007F0006B46002000F0C0FA09B05DF814FB70B53C
:1008000086B006464FF0FF300091CDE9010100208F
:1008100015460C4604903246694604A8FFF7D4FFFB
:1008200002460498211825B108B1084600E0204688
:100830002860049800280DD0002A02DD0098884224
:1008400008D0081B0094CDE901043246694604A88B
:10085000FFF7BAFF06B070BDB10F0008CF0F000858
:100860003D0C00082DE9F04791460F4680460446AE
:10087000002614F8015B2DB100F0DCF90068405D42
:10088000C007F6D12B2D02D02D2D18D0641E4A465C
:100890003946204600F0ACFB27B13968A14201D1AE
:1008A000C7F8008071054FF002040BD540420028C4
:1008B00003DD04F0BBFB0460A007BDE8F08746F44D
:1008C0008066E4E70028F8DA04F0B0FB04606FF01B
:1008D0000040F2E70029A8BF7047401C490008BF4C
:1008E00020F00100704710B4B0FA80FC00FA0CF060
:1008F00050EA010404BF10BC704749B1CCF1200498
:1009000021FA04F411FA0CF118BF01212143084324
:10091000A3EB0C01CB1D4FEA00614FEA102042BF50
:10092000002010BC704700EBC35010440029A4BF46
:1009300010BC7047401C490008BF20F0010010BCEB
:10094000704710B5141E73F1000408DA401C41F121
:10095000000192185B411A4301D120F0010010BD43
:100960002DE9F04D92469B4611B1B1FA81F202E0B9
:10097000B0FA80F220329046FFF7B9FE04460F46E7
:1009800040EA0A0041EA0B0153465A46084313D095
:10099000114653EA010019D0C8F14002504600F058
:1009A00039F905460E46504659464246FFF79FFE26
:1009B000084305D0012004E020463946BDE8F08D0B
:1009C0000020054346EAE0762C4337430A98630546
:1009D000E40AA0EB08000022FD0A44EA47540A306A
:1009E00002D500200146E9E7010510196941DDE95A
:1009F000084500196941BDE8F04DA2E72DE9FE4F19
:100A000081EA030404F0004421F0004100944FF017
:100A1000000B23F0004350EA01045ED052EA0304C5
:100A20005BD0C3F30A54C1F30A552C44A4F2F33447
:100A30000194A0FB0254C1F3130141F48011C3F3EC
:100A4000130343F4801301FB024400FB034E840AAA
:100A5000970A44EA815447EA8357A4FB0768029542
:100A60008D0A05FB07854FEA932C04FB0C542705E0
:100A7000029D4FEA065847EA1637B5EB08056EEBBC
:100A8000070C870E920E47EA811742EA8312A7FBF2
:100A90000201B6EB0B0164EB00042B0D43EA0C33AF
:100AA0005E1844EB1C50DA465146E7FB0201C5F3E1
:100AB00013044FEA0B3343EA14534FEA0432019C08
:100AC00043EA0603A4F10C040294009CCDE900B4AF
:100AD000FFF746FF03B0BDE8F08F00200146F9E7BD
:100AE0002DE9F04D81EA030404F0004B21F00045AC
:100AF00014464FF0000A23F0004150EA050220D0CE
:100B000054EA01021DD0C5F30A570246C5F3130388
:100B1000C1F31300C1F30A5640F4801543F4801367
:100B2000A7EB0608101BD64608F2FD3873EB05004C
:100B300002D308F1010801E092185B41B8F1000FFF
:100B400003DA00200146BDE8F08D00204FF480114B
:100B5000064684460EE0171B73EB050705D3121BF0
:100B600063EB050306434CEA010C49084FEA3000E9
:100B700092185B4150EA0107EDD152EA030012D00E
:100B800082EA040083EA0501084305D0101BAB414B
:100B900006D20122002306E000224FF0004302E0CB
:100BA0006FF0010253101AEB06004CEB085110EBEA
:100BB0000A0041EB0B01BDE8F04DFFF7C2BEC1F3E7
:100BC0000A52C1F3130140F2FF3341F480119A42FB
:100BD00002DA00200146704740F233439A42A2F203
:100BE000334202DC524200F015B8FFF780BD00002E
:100BF000064C074D06E0E06840F0010394E807006A
:100C000098471034AC42F6D3FFF774FAB46000088A
:100C1000D4600008202A04DB203A21FA02F00021E7
:100C2000704721FA02F3D040C2F1200291400843FC
:100C30001946704700487047E45E000810B5044646
:100C4000FFF7F8FF0068005D00F0010010BD000034
:100C50002DE9FF4F087883B09946FF2805D0491C3D
:100C60002D2804D00024002008E000200BE00124FF
:100C7000F9E700EB800003EB4000491C0B78FF2BE9
:100C8000F7D104B1404200230293147819461D465F
:100C90002D2C01D02B2C04D1521C2D2C13D0002430
:100CA0000294AA461478FF2C0FD00A25A3FB0578DE
:100CB00001FB05814FF0000C03FB0C11521CE319E2
:100CC0004AEB0101EEE70124EAE7814453EA01001F
:100CD00002D019F5C87F06DA03980021C0E9001197
:100CE00007B0BDE8F08F0025AE4E2F46DFF8B88282
:100CF000184600F0DAF9CDE90001B9F1000002DA96
:100D0000C9F1000400E004460023A74A1AEB030BD4
:100D100042EB045A12E0E00707D02A463346384631
:100D20004146FFF76BFE074688462A463346104683
:100D30001946FFF763FE05460E466410002CEAD103
:100D4000DDE90001B9F1000F5A46534606DAFFF714
:100D5000C7FE3A464346FFF7C3FE05E0FFF74EFEE7
:100D60003A464346FFF74AFE029A0AB181F0004133
:100D7000039AC2E90001B3E72DE9FF4F1F468DB08A
:100D8000D7E901464FF0FF382E2045464FF00009C5
:100D90000B90B9696D1C0E988847396A824688475E
:100DA0000028F6D1BAF1FF3F0AD024F4D064002E17
:100DB00011DDBAF12B0F08D0BAF12D0F0BD102E0E3
:100DC000404611B08DE744F48064B9696D1C0E98FB
:100DD00088478246761E6946600501D52D2000E0D1
:100DE0002B208DF8000001F1010B0DF1200809E026
:100DF000B9696D1C0E98884782460F9844F40074B8
:100E0000761E0560002E02DDBAF1300FF0D00B998E
:100E10008A453ED144F0800406E00F99681CA9F190
:100E2000010944F400740860B9696D1C761E0E98BF
:100E3000884782463028F0D02BE00B998A4505D1AF
:100E4000200603D444F08004761E18E0504604F0D7
:100E5000CFF908B30DF11301761E44F400748B45ED
:100E600008D2AAF130000BF8010B200607D5A9F132
:100E7000010003E0200602D409F101008146A0052B
:100E800002D50F99681C0860B9696D1C0E988847D7
:100E90008246002ED1DC53E0002E51DDBAF1650F01
:100EA00002D0BAF1450F4BD1A00549D5B9696D1CE7
:100EB00024F44074761E0E9888478246002E0CDD7E
:100EC0002B2804D0BAF12D0F07D144F48074B969EE
:100ED0006D1C0E9888478246761EE00501D52D21AF
:100EE00000E02B2108F8011BCDF82C8021E00DF14A
:100EF0002901761E44F4007488450CD2AAF1300012
:100F000010F0FF0088F8000002D10B99884509D93C
:100F100008F1010806E0E00501D5244801E042F2AD
:100F20000F708146B9696D1C0E98884782460F98EC
:100F30000560002E04DD504604F05AF90028D6D191
:100F4000F9690E988847FF208BF8000088F80000A8
:100F50000020069007904B466A4608A906A8FFF7AE
:100F600077FEA00502D46FF001002AE714F0240FE9
:100F70000AD0E00714D1DDE906123868031D3B6092
:100F80000068C0E900120BE0DDE90601FFF738FB5D
:100F90000146E00704D13868021D3A60006801602C
:100FA00028460EE7000014400000F03FF1D8FFFF94
:100FB000426842B1016811F8013B23B1521EC0E9F9
:100FC0000012184670470121C160881E70474268B0
:100FD0005AB1C368016843B983688B4205D0491E82
:100FE000521CC0E90012002070474FF0FF307047DC
:100FF0002DE9F05F82460078002715468B460AF1FE
:101000000104B946302801D09DB113E014F8010B5A
:101010000127782803D0582801D045B10AE00DB146
:10102000102D07D10027102514F8010B02E0082528
:1010300000E00A250026B0460EE005FB080005FB8F
:1010400006F1012701EB10461FFA80F8B6F5803F44
:1010500000D3B94614F8010B294600F018F800280F
:10106000EBDABBF1000F05D00FB1641E00E054466F
:10107000CBF80040B9F1000F06D003F0D7FF0221F2
:101080000160C81EBDE8F09F48EA0640FAE73A282A
:1010900000D2303820F02002412A01D3A2F13700DB
:1010A000884201D34FF0FF3070470EB540F2334213
:1010B00002920022CDE900221346FFF751FC03B053
:1010C00000BD10B501F05CFA02F0C8F8642001F030
:1010D000ECF810BD10B502F0CBF8322001F0E5F8C5
:1010E00001F060FA322001F0E0F81A4800F0A2FCAA
:1010F00018480078192802DB164802F0DBFD164874
:1011000000F0E4FF00F07EFA00F042FB13491448BF
:1011100000F08AFA01F0E0FC0F48FFF799F8142874
:1011200005D10D4B0F4A10490A4800F0DDF90D4A70
:101130000D49084801F0B8FD10220C49500101F09A
:10114000ACFE1022094910314FF4087001F0A5FEE1
:1011500010BD0000850000203A0F00201A0F00206B
:10116000FA0E0020DA0E0020BA0E00204F0F0020E9
:1011700021B1826842F00102826003E0826822F0BD
:10118000010282607047014600208A6802F0040272
:101190000AB1012000E0002070470146C86C80B20F
:1011A00070470246002013680B400BB1012000E09D
:1011B00000207047014600208A6802F008020AB148
:1011C000012000E00020704730B5024600200023D7
:1011D00050680F4C20400D790C6844EA05242043E8
:1011E000506090680B4C2040D1E902542C434D795B
:1011F00044EA450420439060D06A20F470000C7CDF
:10120000641EE4B2234340EA0350D06230BD0000C4
:10121000FFFEF0FFFDF7F1FFF0B504460D4600209C
:101220000021092D11DDE068A5F10A0606EB46074D
:10123000072606FA07F18843A5F10A0606EB4606DB
:1012400003FA06F10843E0600CE0206905EB45076E
:10125000072606FA07F1884305EB450603FA06F16F
:1012600008432061072A0FDA606B561E06EB8607DB
:101270001F2606FA07F18843561E06EB860605FA76
:1012800006F10843606322E00D2A0FDA206BD61FB7
:1012900006EB86071F2606FA07F18843D61F06EBE2
:1012A000860605FA06F10843206310E0E06AA2F121
:1012B0000D0606EB86071F2606FA07F18843A2F102
:1012C0000D0606EB860605FA06F10843E062F0BD5E
:1012D000816841F008018160704721B1826842F461
:1012E000A002826003E0826822F4A002826070475C
:1012F000816841F0040181607047000010B5012150
:101300000648FFF7EAFF00BF02210448FFF749FF44
:101310000028F9D00148FFF740FF10BD002401402C
:1013200000B587B00121480202F0DEFA0121042055
:1013300002F0DAFA002002F0ABFA00208DF81B0070
:101340008020ADF8180003208DF81A0006A919486E
:1013500000F0FEFF0523012207211748FFF75CFF7D
:101360000020019004904FF46020039000208DF83D
:1013700009008DF8080001208DF8140001A90E481D
:10138000FFF722FF01210C48FFF7F2FE0A48FFF7A2
:101390009FFF00BF0848FFF70DFF0128FAD006485D
:1013A000FFF7A6FF00BF0448FFF7EDFE0128FAD0C3
:1013B00007B000BD00080140002401402DE9FC47B2
:1013C00005460E4617469846DDE90A9A1348007806
:1013D000012820D100201249087000240FE0114894
:1013E00050F834102846FEF73AFF30B90D4800EBAC
:1013F000C40000790A49087003E0601CC4B2122CD2
:10140000EDD300BF43463A4631460548CDE9009A40
:10141000007800F009F8BDE8FC87000058000020C3
:1014200059000020AC5D00082DE9F04704460D4648
:1014300016461F46DDE908890A2C29D2DFE804F0A8
:101440001F05090E1316191C2225484602F05AF9E9
:101450001EE03146284602F01DF819E041463846A4
:1014600001F050FF14E001F02DFF11E002F0A6F8AA
:101470000EE001F007FF0BE002F0C2F808E004F014
:10148000AFFB05E002F0E6F902E000F005F800BF6E
:1014900000BFBDE8F087000070B501F01DFB02F051
:1014A000ADF906463046FFF77FF8044622460B4664
:1014B00003A003F07DFD04F093FB01F00DFB70BD74
:1014C000426174746572793A252E36660D0A000001
:1014D000014601F00F000A1102EB820200EB42000C
:1014E000C0B2704700BFFEE72DE9F04FDDB0804687
:1014F0000C4615461E4659A9404604F053FA59AA0F
:1015000024A154A803F07EFD402144A8FEF779FEF3
:101510004FF4807104A8FEF774FE59AB20A240215D
:1015200044A8009603F054FD44A82B4654AA22A1D7
:10153000CDE9004004A803F065FD04A8FEF788FE8D
:1015400087B2394604A800F065FE814644A8FEF73C
:101550007FFE1FFA80FA4FF480612448FEF751FEA7
:1015600004AB3A4622A12148CDF8009003F04AFD91
:101570001E48FEF76DFE83465A4621A102A803F0DD
:1015800041FD00F0F3FD194902A800F0C3F95DB078
:10159000BDE8F08F252E313473303030000000006C
:1015A0004461746154696D653D25733B494343490A
:1015B000443D257300000000514E3D25733B5354BC
:1015C0003D37343B434E3D323038333B50573D2559
:1015D000733B4D4E3D25733B466C61673D383B4345
:1015E000503D26262573262600000000AC0300206F
:1015F0002323253034642573253034580D0A000028
:101600002564000010B504A003F07AF9642000F00E
:101610004CFE00F01BFE10BD41542B434950434C7F
:101620004F53453D300D0A0070B504460D4630A0BD
:1016300003F066F94FF4FA7000F037FE30A133483A
:10164000FEF7EAFD324908600EE000F0FFFD28A039
:1016500003F056F94FF4FA7000F027FE2DA12B4845
:10166000FEF7DAFD2A490860294800680028ECD016
:101670002FA003F09DFC4FF480713348FEF7C1FDAD
:101680002B46224631A1304803F0BCFC2E4803F023
:1016900037F94FF4FA7000F008FE34A11B48FEF74A
:1016A000BBFD1B49086000203449086015E0334841
:1016B0000068401C3149086031A11448FEF7ACFDB8
:1016C00013490860C82000F0F0FD2C480068642829
:1016D00003DD00202949086003E00D480068002868
:1016E000E5D000BF00F0B2FD01F0F6F970BD0000DA
:1016F00041542B4E45544F50454E0D0A00000000FA
:101700002B4E45544F50454E3A2030009C0000204F
:10171000140000204E6574776F726B20697320612E
:101720006C7265616479206F70656E65640000009D
:101730002A2A2A2A5443502020454E41424C452A09
:101740002A2A2A0D0A000000AC02002041542B4333
:1017500049504F50454E3D302C22544350222C22AC
:101760002573222C25730D0A000000002B2B434902
:10177000504F50454E3A20302C30000018000020C9
:101780002B4349504F50454E3A20302C300000003A
:1017900010B501F0A1F937A003F0B2F84FF47A7058
:1017A00000F083FD36A13A48FEF736FD394908605E
:1017B0000EE000F04BFD2FA003F0A2F84FF47A707A
:1017C00000F073FD2EA13248FEF726FD3149086076
:1017D000304800680028ECD02FA003F0E9FB00F0AF
:1017E00035FD33A003F08CF84FF4FA7000F05DFD86
:1017F00032A12748FEF710FD264908600846006818
:1018000020B123490E312FA003F0D2FB00F01EFDC2
:1018100031A003F075F84FF4FA6000F046FD31A1F5
:101820001B48FEF7F9FC1B4908600846006818B918
:101830002FA11748FEF7F0FC15E000F007FD2FA0E0
:1018400003F05EF84FF47A7000F02FFD2EA11048DF
:10185000FEF7E2FC0F4908600846006818B924A1A9
:101860000B48FEF7D9FC0B4800680028E5D000F0D3
:10187000EDFC10BD41542B4350494E3F0D0A000072
:101880002B4350494E3A2052454144590000000034
:101890009C000020140000202A2A2A2A53494D20A7
:1018A0002052454144592A2A2A2A0D0A00000000E4
:1018B00041542B4353510D0A000000002B43535158
:1018C0003A0000002A2A2A2A4353513A25732A2A29
:1018D0002A2A0D0A0000000041542B434752454775
:1018E0003F0D0A002B43475245473A20302C310028
:1018F0002B43475245473A20302C350041542B4367
:10190000474154543F0D0A002B43474154543A2059
:101910003100000070B504460D464FF4807139481F
:10192000FEF76FFC224638A1364803F06BFB3548C2
:1019300002F0E6FF4FF4FA7000F0B7FC37A1384828
:10194000FEF76AFC3749086000203749086019E053
:1019500035480068401C3449086030A13048FEF723
:101960005BFC304908604FF47A7000F09EFC2E4812
:1019700000680A2806DD00202B49086001202B4959
:10198000087003E0274800680028E1D000BF28461F
:1019900002F0B6FF4FF4FA7000F087FC24A1204853
:1019A000FEF73AFC1F49086000201F49086019E053
:1019B0001D480068401C1C4908601DA11848FEF71E
:1019C0002BFC184908604FF47A7000F06EFC164842
:1019D00000680A2806DD0020134908600120134929
:1019E000087003E00F4800680028E1D000BF00F055
:1019F0002DFC0E480078012802D11E2000F061FC69
:101A000070BD0000AC02002041542B4349505345A7
:101A10004E443D302C25730D0A0000003E000000AE
:101A20009C0000201400002018000020200000204E
:101A30004F4B00002DE9F04F93B0044601F04CF8F5
:101A4000F7A002F05DFF4FF4FA7000F02EFCF6A153
:101A5000F648FEF7E1FBF64908600EE000F0F6FB01
:101A6000EFA002F04DFF4FF4FA7000F01EFCEEA163
:101A7000EE48FEF7D1FBEE490860ED48006800280B
:101A8000ECD0ECA003F094FA00F0E0FBEFA002F041
:101A900037FF4FF4FA7000F008FCF0A1E348FEF7BE
:101AA000BBFBE34908600EE000F0D0FBE7A002F0CA
:101AB00027FF4FF4FA7000F0F8FBE8A1DB48FEF7CF
:101AC000ABFBDB490860DA4800680028ECD0E6A1EF
:101AD000D648FEF7A1FBD6490860084600680028F2
:101AE00024D100F0B3FBE4A002F00AFF40F6B830C6
:101AF00000F0DBFBCCA1CD48FEF78EFBCC490860A3
:101B00000EE000F0A3FBDCA002F0FAFE4FF4FA7046
:101B100000F0CBFBDCA1C548FEF77EFBC4490860A2
:101B2000C34800680028ECD000F090FB00F0D4FF20
:101B3000D7A002F0E5FE40F6B83000F0B6FBD7A122
:101B4000BA48FEF769FBBA4908600020D549086029
:101B50001FE0D4480068401CD249086000F076FBC2
:101B6000CBA002F0CDFE40F6B83000F09EFBCBA13A
:101B7000AE48FEF751FBAE490860CA480068072826
:101B800002D100F0A9FF04E0C64800680E2800D189
:101B900003E0A74800680028DBD000BF00F056FB38
:101BA00000F09AFFC0A002F0ABFE4FF4FA6000F024
:101BB0007CFB9DA19D48FEF72FFB9D4908600EE030
:101BC00000F044FBB8A002F09BFE4FF4FA7000F066
:101BD0006CFB95A19548FEF71FFB9549086094485A
:101BE00000680028ECD000F031FBB3A002F088FEC2
:101BF0004FF4FA7000F059FB8BA18C48FEF70CFBF8
:101C00008B4908600EE000F021FBABA002F078FEEB
:101C10004FF4FA7000F049FB83A18448FEF7FCFA08
:101C200083490860824800680028ECD000F00EFB71
:101C3000A6A002F065FE40F6B83000F036FBA7A182
:101C40007A48FEF7E9FA7A49086000209549086069
:101C50003BE094480068401C9249086000F0F6FAA6
:101C60009AA002F04DFE4FF47A7000F01EFB9BA18B
:101C70006E48FEF7D1FA6E4908608A4800680A2863
:101C800017D0884800681E2813D08648006832287C
:101C90000FD08448006846280BD0824800685A2834
:101CA00007D0804800686E2803D07E4800688228EC
:101CB00002D100F011FF08E07A480068962804D1AC
:101CC00000F00AFF13B0BDE8F08F59480068002803
:101CD000BFD000F001FF00201090119012900D90E5
:101CE0000E900F9000258246514800684F49401AD7
:101CF000821E2C214D4801F05DFA05463DB16D1C58
:101D0000284603F010FE0746FEF77AFC109048487C
:101D1000006800F1020A504603F005FE0746FEF790
:101D20006FFC0D900025AA4600F090FA67A002F023
:101D3000E7FD4FF47A7000F0B8FA68A13B48FEF76F
:101D40006BFA3B49086000205649086018E0554886
:101D50000068401C5349086000F078FA5BA002F06C
:101D6000CFFD4FF47A7000F0A0FA5CA12F48FEF787
:101D700053FA2F4908604B4800680A2800D1A1E7B0
:101D80002B4800680028E2D0294800682749401AFB
:101D9000821E2C21254801F00DFA05463DB16D1C2F
:101DA000284603F0C0FD0746FEF72AFC11902048A4
:101DB000006800F1020A504603F0B5FD0746FEF741
:101DC0001FFC0E900025AA4600F040FA3FA002F04A
:101DD00097FD4FF47A7000F068FA40A11348FEF7BF
:101DE0001BFA1349086000202E49086078E02D484E
:101DF0000068401C2B49086000F028FA33A002F06C
:101E00007FFD4FF47A7000F050FA34A10748FEF7D6
:101E100003FA07490860234800680A2860D151E79F
:101E200041540D0A000000004F4B00009C000020B0
:101E3000140000202A2A2A2A4154202054455354B1
:101E400020204F4B2A2A2A2A0D0A000041542B43F6
:101E5000474E53535057523F0D0A00002B43474EF5
:101E600053535057523A00002B43474E5353505749
:101E7000523A20310000000041542B43474E535347
:101E80005057523D310D0A0052454144592100003E
:101E900041542B43414750530D0A0000737563634F
:101EA000657373001800002041542B43475053487A
:101EB0004F540D0A0000000041542B43474E53532A
:101EC000494E464F3D300D0A0000000041542B435F
:101ED000474E5353494E464F0D0A00004E2C00000A
:101EE00067480068002882D0654800686549401A44
:101EF000821E2C21634801F05DF905463DB16D1C41
:101F0000284603F010FD0746FEF77AFB12905C4866
:101F1000006800F1020A504603F005FD0746FEF78F
:101F20006FFB0F9058A15046FEF776F9861C002EE5
:101F300051D03046FEF7AEF98046F01DFEF7AAF903
:101F400083462C2102A8FEF75CF9642098FBF0F18F
:101F500000FB118064300790642098FBF0F064214E
:101F600090FBF1F201FB1200401E069042F210704D
:101F700098FBF0F0059042F210709BFBF0F00830F7
:101F8000049064209BFBF0F090FBF1F201FB120047
:101F9000039064209BFBF0F100FB11B0029002A8BB
:101FA000FEF7C2F8019001A8FEF7C2FB07461FB971
:101FB00036A002F0FDFF85E6387D64382070387C5D
:101FC000401C6070387BA070387A2071387960715D
:101FD0003878A07100BF4FF00009002712E010A967
:101FE00051F827000021FEF727FB0AD00DA951F870
:101FF00027000021FEF720FB03D009F1010000F0CB
:10200000FF097F1C032FEADBB9F1030F2FD1DDE9B4
:102010001001FEF74CF90B901299FEF748F922498E
:102020000C90FEF7CEF98346FEF7BEFA07463A4615
:102030000B461EA11F4802F0E5FFDDE90D01FEF78A
:1020400036F90B900F99FEF732F917490C90FEF70D
:10205000B8F98346FEF7A8FA07463A460B4613A19D
:102060001448103002F0CEFF13A002F0A1FF0025AB
:10207000AA4600F0EBF800F02FFD00BF22E60000BA
:10208000140000209C000020450000002A2A2A2A73
:1020900052544320555044415445204552524F52CA
:1020A0002A2A2A2A0D0A000000004040252E366602
:1020B000000000004F0F00202A2A2A2A474E5353BF
:1020C000204745542A2A2A2A0D0A00002DE9F0410A
:1020D00007461DA002F014FC4FF4FA7000F0E5F87A
:1020E0001CA11E48FEF798F81D4908600EE000F09C
:1020F000ADF815A002F004FC4FF4FA7000F0D5F82A
:1021000014A11648FEF788F81549086014480068BD
:102110000028ECD013A11148FEF77EF8041E00D071
:10212000641D15213846FEF76CF83D46002605E093
:1021300014F8010B05F8010B701CC6B2142EF7DB66
:1021400000F084F8BDE8F08141542B4349434349F2
:10215000440D0A002B49434349443A009C000020A7
:10216000140000204349443A0000000010B513A0B9
:1021700002F0C6FB4FF4FA7000F097F8134914A070
:1021800002F016FF14A11148FEF746F81549086041
:102190000EE000F05BF814A002F0B2FB4FF4FA700E
:1021A00000F083F814A10948FEF736F80D490860DD
:1021B0000C4800680028ECD010BD000041542B43AF
:1021C00049504F50454E3F0D0A0000009C00002032
:1021D00025730D0A000000002B4349504F50454E17
:1021E0003A0000001400002041542B4E45544F503B
:1021F000454E0D0A000000004E6574776F726B202B
:10220000697320616C7265616479206F70656E65B9
:102210006400000070B503460C464FF6FF710022C3
:102220000FE0985C80EA1121002507E001F001062B
:10223000490816B14AF2010041406D1C082DF5D342
:10224000521CA242EDD388B270BD000010B5084800
:1022500002F0AEFE642000F028F800200449C1F826
:1022600004014FF480710248FDF7CBFF10BD000060
:102270009C000020704701460A2091FBF0F200FB11
:1022800012100A2291FBF2F240EA0210C0B270472B
:1022900001460A2091FBF0F200FB12100A2291FB8A
:1022A000F2F240EA0210C0B2704700B5034603E004
:1022B0004FF47A7000F011F8181EA3F10103F7D162
:1022C00000BD10B5044603E04FF47A70FFF7EDFF50
:1022D000201EA4F10104F7D110BD00EBC001C9001C
:1022E0004FF0E0225161002191610521116100BF91
:1022F0004FF0E021096901F480310029F8D0042170
:102300004FF0E0221161704708B50121082001F06B
:10231000EBFA4FF48070ADF8000003208DF8020056
:1023200014208DF803006946084800F011F84FF4B6
:102330000070ADF8000003208DF8020014208DF825
:1023400003006946014800F003F808BD000C014095
:102350002DE9F0410246002500260020002300243C
:10236000002791F803C00CF00F0591F803C00CF0A2
:10237000100CBCF1000F03D091F802C04CEA050527
:1023800091F800C0BCF1000F31D0146800202BE0A0
:102390004FF0010C0CFA00F3B1F800C00CEA030690
:1023A0009E4220D183004FF00F0C0CFA03F7BC4380
:1023B00005FA03FC4CEA040491F803C0BCF1280FB1
:1023C00006D14FF0010C0CFA00FCC2F814C00AE070
:1023D00091F803C0BCF1480F05D14FF0010C0CFA85
:1023E00000FCC2F810C0401C0828D1D31460B1F81A
:1023F00000C0BCF1FF0F34DD546800202EE000F176
:10240000080C4FF0010808FA0CF3B1F800C00CEA10
:1024100003069E4221D183004FF00F0C0CFA03F704
:10242000BC4305FA03FC4CEA040491F803C0BCF178
:10243000280F05D100F1080C08FA0CF8C2F8148036
:1024400091F803C0BCF1480F07D100F1080C4FF020
:10245000010808FA0CF8C2F81080401C0828CED3F6
:102460005460BDE8F0810000F0B50A460023002466
:102470000021002500F00046B6F1004F02D11D4EAC
:10248000F16901E01B4E7168C0F3034583B200F4AB
:102490004016B6F5401F08D121F07061154E7668E0
:1024A00026F07066134F7E6012E000F48016B6F5D9
:1024B000801F06D1032606FA05F4A14341F070619E
:1024C00006E0460D360103FA06F6B14341F07061AD
:1024D00022B1460D360103FA06F6314300F00046FC
:1024E000B6F1004F02D1034EF16101E0014E71607F
:1024F000F0BD0000000001400246002093680B4040
:102500000BB1012000E0002070474161704701617C
:1025100070470AB1016100E04161704708B50121CF
:10252000042001F0E1F90121102001F0DDF9102073
:102530008DF80300C002ADF8000003208DF8020002
:1025400069460D48FFF704FF4FF400410A48FFF7C2
:10255000DCFF10208DF803008001ADF8000003209F
:102560008DF8020069460548FFF7F2FE4FF48061DE
:102570000248FFF7CAFF08BD0008014000100140F3
:1025800010B54FF480610648FFF7C1FF40F6B83040
:10259000FFF78BFE4FF480610148FFF7B6FF10BDD7
:1025A0000010014010B54FF480610648FFF7AFFFFF
:1025B0006420FFF77AFE4FF480610248FFF7A5FF21
:1025C00010BD0000001001402DE9F04FADF53F7D3A
:1025D000044689469246DDF820B3BAA9204603F0A6
:1025E000E1F9BAAA5CA1B5A802F00CFD4FF40071A4
:1025F00035A8FDF706FE206BFDF7D6FF05460E4613
:10260000D4F82B00FDF7D0FF07468846D4F8170012
:10261000FDF7CAFFCDE93001D4F82600FDF7C4FF6D
:10262000CDE92E01D4F82100FDF7BEFFCDE92C0144
:10263000E069FDF7B9FFCDE92A01D4F81200FDF7F2
:10264000B3FFCDE92801D4F80D00FDF7ADFFCDE9CA
:102650002601A068FDF7A8FFCDE924013420005D24
:10266000CDE9205622902F20005DCDE91C781E90E8
:10267000E07E1A90DDE93001CDE918012A20005DE5
:102680001690DDE92E01CDE914012520005D1290A0
:10269000DDE92C01CDE910012020005D0E90DDE97F
:1026A0002A01CDE90C01A07D0A90DDE92801CDE9E0
:1026B0000801607C0690DDE92601CDE90401207B5C
:1026C0000290DDE92401BAAACDE90001254935A827
:1026D00002F098FC35A80521CDE901A9CDE9031048
:1026E00040F2DB701623B5AA1FA100902E4802F01D
:1026F00089FC2D48FDF7ACFD85B229462A48FFF735
:1027000089FD349035A8FDF7A3FD80B233902648AB
:10271000FDF79EFD0A3080B232903298584508DDB0
:1027200022A002F045FC4FF0FF300DF53F7DBDE8E3
:10273000F08F4FF480612148FDF763FD1A48FDF7E3
:1027400087FD05463498184B2A461DA100901B486A
:1027500002F058FC0020E8E7252E31347330303089
:1027600000000000E85E0008514E3D25733B5354C5
:102770003D25643B434E3D25643B50573D25733B0F
:102780004D4E3D25733B466C61673D25643B504E85
:10279000554D3D313B504E4F3D313B43503D26263C
:1027A0002573262600000000AC070020BBBAB3E565
:1027B000C7F8B2BBD7E30D0A00000000AC0300204D
:1027C0002323253034642573253034580D0A000046
:1027D00000BFFEE770B504462046FDF7E5FE05465E
:1027E00000220A4BFDF7F4FE03D8002008490870C8
:1027F0000BE008492046FDF729FF03D801200449D2
:10280000087002E002200249087070BD00002540F7
:10281000650000200000204110B54FF480700C4985
:10282000086000F02FF94FF400700949086000F0CB
:1028300029F94FF480700649091F086000F022F959
:102840004FF480700249086000F01CF910BD0000D0
:10285000140C014010B54FF480700C49086000F072
:1028600011F94FF400700949091F086000F00AF9D6
:102870004FF480700549091F086000F003F94FF418
:1028800080700249086000F0FDF810BD140C014092
:1028900070B508250024A8011249086016E06006FA
:1028A000040E4FF480700F49091D086000F0EAF82B
:1028B0004FF480700B49086000F0E4F809480838CC
:1028C000006800F4007008B144F00104281EA5F16E
:1028D0000101CDB2E3D14FF480700249091D0860B7
:1028E000204670BD100C014070B5044608251DE05F
:1028F0004FF480701249086000F0C4F804F08000C2
:1029000028B14FF400700E49091F086003E04FF42E
:1029100000700B4908606006040E00F0B3F84FF435
:1029200080700749091F086000F0ACF8281EA5F167
:102930000101CDB2DCD14FF480700149086070BD57
:10294000140C014010B54FF400701149086000F0FC
:1029500099F84FF480700E49086000F093F80C4825
:102960000838006800F4007008B9002010BD4FF46A
:1029700000700749091D086000F084F84FF480706A
:102980000349091D086000F07DF80120EEE7000012
:10299000100C014010B54FF480700C49086000F035
:1029A00071F84FF400700949086000F06BF84FF4BB
:1029B00080700649091F086000F064F84FF4007049
:1029C0000249091F086000F05DF810BD140C0140B9
:1029D00010B54FF480701249086000F053F84FF4BE
:1029E00000700F49091F086000F04CF84FF4807028
:1029F0000B49091F086000F045F809480C380068C9
:102A000000F4007028B14FF4807005490860002080
:102A100010BD4FF48070024908600120F8E7000003
:102A2000140C01402DE9F04104460E4617461D46A0
:102A3000642C01D102F08BFAFFF784FF2046FFF7E8
:102A400053FFFFF7C5FF20B9FFF7A4FF0020BDE843
:102A5000F0813046FFF748FFFFF7BAFF05E015F8B1
:102A6000010BFFF741FFFFF7D7FE381EA7F1010169
:102A7000CFB2F4DCFFF78EFF642C01D102F044FAF0
:102A80000120E4E76C2001E0411EC8B20028FBD120
:102A9000704710B51420FFF720FC10BD10B5FFF7EC
:102AA00033FC10BD4CF6CC40014908607047000073
:102AB0000030004010B545F2555000F021F80620D6
:102AC00000F012F840F6FF7000F014F800F004F87F
:102AD000FFF7E8FF10BD00004AF6AA200149086090
:102AE0007047000000300040014948607047000016
:102AF000003000400149886070470000003000400D
:102B000001490860704700000030004008B501210D
:102B1000102000F0E9FE10208DF803004001ADF810
:102B2000000003208DF8020069460448FFF710FCFE
:102B30004FF400710148FFF7EAFC08BD00100140A6
:102B400008B50121082000F0CFFE10208DF8030009
:102B50000002ADF8000003208DF802006946044829
:102B6000FFF7F6FB4FF480510148FFF7D0FC08BD9A
:102B7000000C014010B500240020314908700720E6
:102B8000304908700821304801F00AF805E01420A7
:102B9000FFF78BFB04F1140084B22A480078401E32
:102BA00027490978884202DDB4F5967FEFDB254896
:102BB0000078801E81B2254800F0A3F924490880DE
:102BC00022480078512832D12048407803282ED15D
:102BD0001E4840791D49897940EA01201C4909882D
:102BE000884224D1174801781A48FDF70AFB0A20C9
:102BF000FFF773FB4E2018490870124802781349FA
:102C00001448FDF7E5FA0A20FFF767FB1149097937
:102C1000104AD27841EA0220FDF7B8FC0F49086358
:102C200008480178491C0948FDF7EBFA02E0422008
:102C30000949087008480178084880F8341010BD28
:102C400021000020220000206D000020E10D002066
:102C5000760000206600002078000020AC0D0020E7
:102C600010B509A002F0A4F9002406E00A48015DAD
:102C70000AA002F09DF9601CC4B2072CF6DB09A083
:102C800002F096F910BD00004C69676874526164E7
:102C9000696174696F6E3A006600002030782530F3
:102CA000325820000D0A00002DE9F047DEB007463B
:102CB0000C4615465AA9384602F074FE5AAA27A1B6
:102CC00055A802F09FF9402145A8FDF79AFA4FF464
:102CD000807105A8FDF795FA234901F110005AAB60
:102CE00022A2CDE90001402145A802F071F945A8D2
:102CF00008212B4655AACDE90041029024A105A840
:102D000002F080F905A8FDF7A3FA86B2314605A8BE
:102D1000FFF780FA804645A8FDF79AFA1FFA80F976
:102D20004FF480612748FDF76CFA05AB324626A1C7
:102D30002448CDF8008002F065F92248FDF788FAB2
:102D40008246524624A103A802F05CF91D4903A85B
:102D5000FEF7E0FD5EB0BDE8F0870000252E3134BF
:102D600073303030000000004F0F00204461746168
:102D700054696D653D25733B4C6E673D25732C4C46
:102D800061743D25733B53423152533D3100000085
:102D9000514E3D25733B53543D37333B434E3D33FA
:102DA0003034313B50573D25733B4D4E3D25733BF1
:102DB000466C61673D25643B43503D2626257326BE
:102DC00026000000AC030020232325303464257343
:102DD000253034580D0A00002564000008B5012193
:102DE000102000F081FD14208DF803004FF4C07016
:102DF000ADF8000003208DF8020069460448FFF793
:102E0000A7FA4FF4C0710248FFF781FB08BD00002C
:102E1000001001402DE9F04105460F46164600F02E
:102E2000FAF8A02000F0D5F800F096F8281200F08B
:102E3000D0F800F091F8E8B200F0CBF800F08CF890
:102E4000012804D100F0FBF80120BDE8F08100F07A
:102E5000E2F8A12000F0BDF800F07EF8012803D1CF
:102E600000F0EDF80120F0E7002410E000F089F810
:102E70003855711EA14201D1012100E00021084610
:102E800000F098F80A20FFF728FA601CC4B2B44298
:102E9000ECDB00F0D4F80020D7E72DE9F041044640
:102EA0000E46174600F0B7F810B10120BDE8F081DA
:102EB000A02000F08EF800F04FF8012803D100F0B8
:102EC000BEF80120F2E7201200F083F800F044F889
:102ED000E0B200F07EF800F03FF8002506E0705DFB
:102EE00000F077F800F038F8681CC5B2BD42F6DB98
:102EF00000F0A5F80A20FFF7D8F90020D6E700BFB8
:102F0000FEE730B502460B464FF6FF70002112E097
:102F1000545C604000240AE000F0010525B1401037
:102F20004AF20105684000E04010651CECB2082C34
:102F3000F2DB4C1CA1B29942EADB30BD10B54FF474
:102F400080710448FFF7D8FA04460A20FFF7C5F954
:102F5000204610BD0010014010B5002000F07EF8A2
:102F6000012000F087F8012000F078F80A20FFF730
:102F7000B4F9FFF7E3FF0446002000F06FF82046A5
:102F800010BD70B50025012000F074F800240DE09C
:102F9000012000F063F8FFF7D1FF10B1802020413D
:102FA0000543002000F05AF8601CC4B2082CEFDB87
:102FB000284670BD10B50446002000F04FF82046AA
:102FC00000F058F8012000F049F8002000F046F821
:102FD00010BD70B50546002417E0002000F03EF853
:102FE00080212141294009B1012100E0002108464A
:102FF00000F040F80A20FFF770F9012000F02EF8E9
:103000000A20FFF76AF9601CC4B2082CE5DB002037
:1030100000F024F870BD10B5012000F02BF801205D
:1030200000F01CF8FFF78AFF08B9012010BD00204E
:1030300000F020F8002000F011F80020F6E710B5AD
:10304000002000F00BF8002000F014F8012000F040
:1030500005F8012000F00EF810BD000010B5044680
:10306000224680210248FFF754FAFFF712FD10BDF7
:103070000010014010B5044622464FF48071034809
:10308000FFF747FAFFF705FD10BD000000100140F3
:1030900008B50121182000F027FC10208DF803004E
:1030A0004FF44040ADF8000003208DF8020069465F
:1030B0001248FFF74DF910208DF803004020ADF8BD
:1030C000000003208DF8020069460D48FFF740F923
:1030D00048208DF803004FF40050ADF800000320A5
:1030E0008DF8020069460548FFF732F9012000F02B
:1030F00055F8002000F046F808BD0000000C014023
:103100000010014010B54FF400510248FFF7F4F9E8
:1031100010BD0000000C014010B5002000F03EF88A
:1031200010BD10B5012000F039F810BD70B505468E
:103130000026002417E080212141294009B1012106
:1031400000E00021084600F013F8012000F01AF812
:10315000FFF7D8FF10B1802020410643002000F087
:1031600011F8601CC4B2082CE5DB304670BD0000CD
:1031700010B50446224640210148FFF7CAF910BDA8
:103180000010014010B5044622464FF400410248A9
:10319000FFF7BFF910BD0000000C014010B5044658
:1031A00022464FF480410248FFF7B3F910BD0000FA
:1031B000000C014030B503460024002004E01D5CF3
:1031C0008D4200D11C18401C904202D21D5C002D83
:1031D000F5D1204630BD704770B5002100230F2285
:1031E000C47804B3154C246804F4E064C4F5E064C6
:1031F000210AC1F10403CA40447804FA03F1847837
:103200001440214309010E4C0678A155047804F0BE
:103210001F050124AC4005786D11AD0005F1E025D6
:10322000C5F8004109E0047804F01F050124AC4012
:10323000044D0678761145F8264070BD0CED00E08F
:1032400000E400E080E100E002490143024A11602D
:10325000704700000000FA050CED00E010B54FF4D7
:1032600000710248FFF753F910BD00000010014043
:1032700010B54FF400710248FFF747F910BD000088
:103280000010014010B5FFF727FC05A001F090FEEB
:1032900001F04CFB07A001F08BFE02F0A1FC10BD79
:1032A0004552415345205354415254202020202060
:1032B0000000000045524153452046494E495348BD
:1032C0000D0A000010B5FFF707FC03A001F070FE27
:1032D00002F086FC10BD00005468652070617261C8
:1032E0006D65746572284750532920686173206E9C
:1032F0006F74206265656E207574696C697A6564A7
:103300002E0D0A002DE9F05F07460E46DFF8D88043
:1033100036A14046FCF7A3FF30B9334616223946A2
:1033200033A001F045FE49E041463DA001F040FEDA
:103330000024A1460025A3463CA14046FCF76CFFB3
:10334000041E18D0E41C3B212046FCF777FFB0F1A7
:1033500000090CD020213846FCF753FFBA4603E0A1
:1033600014F8010B0AF8010B4C45F9D300BF39469C
:103370002FA001F01DFE32A14846FCF74DFF051EAF
:1033800018D02D1D3B212846FCF758FFB0F1000B4B
:103390000CD020213046FCF734FFB24603E015F88C
:1033A000010B0AF8010B5D45F9D300BF314626A099
:1033B00001F0FEFD28A001F0FBFD00BF20223946F0
:1033C0000020FFF76AFD0A20FEF76FFF202231463A
:1033D0001046FFF762FD0A20FEF767FF02F000FCCF
:1033E000FFF77AFBBDE8F09F1E0E002000000000F2
:1033F0006D6E3D25733B73743A25643B7077643D75
:1034000025733B6D696E3D353B74656E3D303B68A1
:103410006F75723D303B6461793D303B0D0A0000B1
:10342000706172616D3A25730D0A00006D6E3D008A
:103430004D4E636F6E6669673A25730D0A00000092
:103440007077643D00000000505744636F6E6669FA
:10345000673A25730D0A00005468652075706C6F1B
:1034600061642074696D652835206D696E2920615D
:103470006E64205354283232292068617665206EAC
:103480006F74206265656E2061646A75737465642B
:103490000D0A00002DE9F05F07460D46FFF71CFB03
:1034A000DFF8C89032A14846FCF7D9FE28B92A4671
:1034B000394630A001F07CFD44E0494632A001F0DD
:1034C00077FD0024A0460026A34632A14846FCF71B
:1034D000A3FE041E18D0241D3B212046FCF7AEFE9F
:1034E000B0F100080CD020213846FCF78AFEBA461D
:1034F00003E014F8010B0AF8010B4445F9D300BFAF
:10350000394626A001F054FDB8F1000F19D008F19A
:1035100007063B213046FCF791FEB0F1000B0CD0C2
:1035200020212846FCF76DFEAA4603E016F8010BA1
:103530000AF8010B5E45F9D300BF29461BA001F034
:1035400037FD00BF202239464020FFF7A6FC0A20A5
:10355000FEF7ABFE202229466020FFF79EFC0A20E2
:10356000FEF7A3FE02F03CFBBDE8F09F1E0E00201C
:10357000000000006970313D25733B706F7274313B
:103580003D25733B0D0A0000706172616D3A257331
:103590000D0A00006970313D000000004950636F62
:1035A0006E6669673A25730D0A000000504F525449
:1035B000636F6E6669673A25730D0A0010B5FFF7F1
:1035C0008BFA03A001F0F4FC02F00AFB10BD00002E
:1035D00054686520706172616D657465722853412D
:1035E0004D504C452920686173206E6F74206265D0
:1035F000656E207574696C697A65642E0D0A000029
:1036000010B586B0FFF768FA0020049005900822F4
:1036100004A901F0C2F925A001F0CAFC002405E0CC
:1036200004A8015D25A001F0C3FC641C082CF7DB95
:1036300024A001F0BDFC002001F0D1F922A207CAAC
:1036400001AB07C3082201A9002001F080F9002086
:1036500004900590082204A901F09FF91DA001F033
:10366000A7FC002405E004A8015D14A001F0A0FC63
:10367000641C082CF7DB13A001F09AFC9DF81000E5
:10368000312807D19DF81700382803D116A001F082
:103690008FFC02E017A001F08BFC002001F09FF9E5
:1036A00002F09EFAFFF718FA06B010BD4F72696774
:1036B000696E616C20446174613A00002530327893
:1036C000200000000D0A000031323334353637381F
:1036D0000000000052656164205772697474656E61
:1036E00020446174613A000054657374204F6B0D7F
:1036F0000A00000054657374204572726F720D0ADF
:10370000000000007FB50446FFF7E6F9214E22A134
:103710003046FCF7A4FD70B9A07961792279CDE932
:1037200000210290A3786278207800F5FA611BA04E
:1037300001F03EFC2BE03046FCF7ACFD039021A0ED
:10374000039901F035FC03A8FCF7F2FF0546287D3C
:1037500064382070287C401C6070287BA070287A18
:103760002071287960712878A071204600F0A2FAB3
:10377000A07961792279CDE900210290A37862785D
:10378000207800F5FA6112A001F012FC00BF02F0EF
:1037900027FA7FBD1E0E00200000000041542B546C
:1037A000494D453A253034642D253032642D25307D
:1037B000326420253032643A253032643A25303282
:1037C000640D0A0074696D653A25640D0A000000F5
:1037D0004E45572054494D453A2534642D25303205
:1037E000642D2530326420253032643A253032642D
:1037F0003A253032640D0A00704700002DE9F04789
:10380000FDF77CFD81464846FCF7C9FE07460C499A
:10381000FCF7D7FD06460B49FCF7D3FD05460A49E0
:10382000FCF79DFD04462046FCF7BEFE0746074A0E
:10383000074BFCF704FE0546FCF7E2FEBDE8F08707
:1038400000F07F450000204100007D439A9999993E
:103850009999D93F10B5FFF73FF901F0EFF96420CE
:10386000FEF723FD01F02EFB6420FEF71EFD01F0A4
:1038700083FA6420FEF719FD00F086FB6420FEF752
:1038800014FDFFF7EDF902F0ABF9FFF725F910BDD4
:1038900001460020034A506820F44040084350602D
:1038A000704700000010024029B1064AD269024365
:1038B000044BDA6104E0034AD2698243014BDA61C6
:1038C000704700000010024029B1064A1269024305
:1038D000044B1A6104E0034A12698243014B1A61E6
:1038E000704700000010024029B1064A9269024365
:1038F000044B9A6104E0034A92698243014B9A6146
:10390000704700000010024029B1064AD268024305
:10391000044BDA6004E0034AD2688243014BDA6068
:1039200070470000001002402DE9F0410021002204
:10393000002500230026002400278C46DFF8608144
:10394000D8F8048008F00C0121B1042907D0082917
:1039500059D109E0DFF84C81C0F8008058E0DFF869
:103960004481C0F8008053E0DFF83481D8F8048047
:1039700008F47012DFF82881D8F8048008F4803544
:10398000920C0D2A01D0921C00E0062235B9DFF816
:10399000188102FB08F8C0F8008033E0DFF80081EE
:1039A000D8F82C8008F48036DFF8F480D8F82C8022
:1039B00008F00F0808F1010446B9DFF8E880B8FB09
:1039C000F4F808FB02F8C0F800801BE0DFF8D080B4
:1039D000D8F82C80C8F3031808F10107DFF8C0807D
:1039E000D8F82C80C8F3032808F1020CDFF8B48063
:1039F000B8FBF7F808FB0CF8B8FBF4F808FB02F882
:103A0000C0F8008004E0DFF89C80C0F8008000BFB0
:103A100000BFDFF88C80D8F8048008F0F0010909B5
:103A2000DFF8888018F80130D0F8008028FA03F811
:103A3000C0F80480DFF86880D8F8048008F4E061FA
:103A4000090ADFF8688018F80130D0F8048028FAF5
:103A500003F8C0F80880DFF84880D8F8048008F43C
:103A60006051C90ADFF8448018F80130D0F80480AA
:103A700028FA03F8C0F80C80DFF82480D8F8048016
:103A800008F44041890BDFF8288018F80130D0F89D
:103A90000C80B8FBF3F8C0F81080BDE8F08100009E
:103AA0000010024000127A0000093D0000000020D2
:103AB0001000002010B588B0044601218804FFF7EB
:103AC000F3FE01210820FFF70FFF01212020FFF75F
:103AD0000BFF18208DF81F004FF48060ADF81C001C
:103AE00003208DF81E0007A92648FEF731FC482068
:103AF0008DF81F004FF40060ADF81C0003208DF816
:103B00001E0007A91F48FEF723FC03940020ADF810
:103B100018000C20ADF816000020ADF81400ADF828
:103B20001200ADF8100003A9174800F073FE01223F
:103B300040F22551144800F048FE27208DF8080077
:103B400001208DF80B008DF8090002208DF80A0085
:103B500002A8FFF741FB01210B4800F0A5FD04205E
:103B6000ADF8040010208DF8070003208DF8060042
:103B700001A90648FEF7ECFB04210448FEF7C5FC4A
:103B800008B010BD000C0140004800400014014086
:103B900010B504210148FEF7B8FC10BD0014014027
:103BA00070B505460E4600F025F84FF4FA70FEF7A2
:103BB00094FB00240CE000BF80210D4800F0CEFDF6
:103BC0000028F9D0295D0A4800F095FE601CC4B2B7
:103BD000B442F0DB00BF8021054800F0BFFD0028A3
:103BE000F9D00220FEF761FBFFF7D2FF70BD0000A5
:103BF0000048004010B504210148FEF788FC10BDC4
:103C00000014014070B50446FEF79CFE6420FEF7E8
:103C10006BFEFEF7DDFE18B9FEF7BCFE002070BD9E
:103C20000020FEF761FEFEF7D3FEFEF78BFE652057
:103C3000FEF75AFEFEF7CCFEFEF72AFE0546FDF71C
:103C400047FCA071FEF7E8FDFEF722FE0546FDF7F2
:103C50003FFC6071FEF7E0FDFEF71AFE00F07F0505
:103C60002846FDF735FC2071FEF7D6FDFEF710FE65
:103C70000546FDF72DFCE070FEF7CEFDFEF708FED1
:103C80000546FDF725FCA070FEF7C6FDFEF700FE19
:103C90000546FDF71DFC6070FEF7BEFDFEF7F8FD62
:103CA0000546FDF715FC2070FEF7D4FDFEF772FE09
:103CB0000120B4E770B5044601F049F9FEF742FE71
:103CC0006420FEF711FEFEF783FE18B9FEF762FED0
:103CD000002070BD0020FEF707FEFEF779FEA079F8
:103CE000382808DCA179C91CC8B2FEF7C4FA054619
:103CF000FEF7FAFD02E05920FEF7F6FDFEF768FE3A
:103D00006079FEF7B8FA0546FEF7EEFDFEF760FEB5
:103D10002079FEF7B0FA40F080052846FEF7E4FD72
:103D2000FEF756FEE078FEF7A6FA0546FEF7DCFD44
:103D3000FEF74EFEA078FEF79EFA0546FEF7D4FD8C
:103D4000FEF746FE6078FEF796FA0546FEF7CCFDD4
:103D5000FEF73EFE2078FEF78EFA0546FEF7C4FD1C
:103D6000FEF736FEFEF716FE01F0CEF80120B0E7B2
:103D70001CB500240020154908700820144908705B
:103D800014A103C9CDE9000108216846FFF708FF27
:103D900005E01420FEF789FA04F1140084B20B4800
:103DA00000780B490978884202DAB4F5967FF0DB97
:103DB00008220A496846FCF760FA28B14FF4967069
:103DC000FEF773FAFFF7D4FF1CBD000021000020AE
:103DD0002200002056060037000375E2E10D0020A6
:103DE0007FB5044600250020244908700820244996
:103DF0000870244B0FCB8DE80F002078FEF748FAAF
:103E00008DF807006078FEF743FA8DF80800A07877
:103E1000FEF73EFA8DF809002079FEF739FA8DF8A1
:103E20000A006079FEF734FA8DF80B00A079FEF7EE
:103E30002FFA8DF80C000D216846FFF762F8124941
:103E40000880084600788DF80D00084600880012AA
:103E50008DF80E000F216846FFF7A2FE05E0142042
:103E6000FEF723FA05F1140085B20448007808280B
:103E700002DAB5F5967FF2DB7FBD0000210000205D
:103E8000220000203C5E00086200002070B5002483
:103E9000002034490870192033490870082133483C
:103EA000FFF77EFE05E01420FEF7FFF904F1140091
:103EB00084B22D480078401E2A490978884202DDE4
:103EC000B4F5967FEFDB28480078801E81B2284841
:103ED000FFF717F82749088025480078562837D17A
:103EE00023484078032833D12148C07D2049097EEA
:103EF00040EA01201F490988884229D11A480178DF
:103F00001D48FCF77EF90A20FEF7E7F94E201B4911
:103F100008701548027816491748FCF759F90A2025
:103F2000FEF7DBF914490979134AD27841EA0220F5
:103F3000FCF72CFB05461249FCF743FA1149C1F87E
:103F40002B0009480178491C0948FCF75AF902E09E
:103F500042200A490870094801780A4880F82F1061
:103F600070BD000021000020220000205A00002027
:103F7000E10D002062000020A00E0020640000205F
:103F800000002041AC0D002010B509A001F010F890
:103F9000002406E00848015D08A001F009F8601C53
:103FA000C4B2192CF6DB07A001F002F810BD000026
:103FB0005261696E3A000000A00E00203078253072
:103FC000325820000D0A00002DE9F04104460F464A
:103FD00015461E46202221460020FEF71BFF0A2020
:103FE000FEF763F9202239461046FEF713FF0A2038
:103FF000FEF75BF9202229464020FEF70BFF0A203E
:10400000FEF753F9202231466020FEF703FF0A2015
:10401000FEF74BF9102209495001FEF7FBFE0A207A
:10402000FEF743F91022054910314FF40870FEF7EE
:10403000F1FE0A20FEF739F9BDE8F0814F0F0020AC
:10404000704710B500F002F810BD00000CB500205C
:10405000019000903F48006840F480303D4908607E
:1040600000BF3C48006800F4003000900198401CFC
:104070000190009818B90198B0F5A06FF1D13548BA
:10408000006800F4003010B10120009001E0002031
:104090000090009801285CD12F48006840F0100083
:1040A0002D4908600846006820F0030008600846B3
:1040B000006840F0020008602648406825494860D2
:1040C0000846406848600846406840F480604860A0
:1040D0000846C06A214908401E49C8620846C06AAD
:1040E0001F4908431B49C8620846006840F08060C9
:1040F000086000BF1748006800F000600028F9D091
:104100001448406820F47C10124948600846406812
:1041100040F4E81048600846006840F0807008608D
:1041200000BF0C48006800F000700028F9D0094872
:10413000406820F00300074948600846406840F0A6
:104140000200486000BF0348406800F00C000828E7
:10415000F9D10CBD001002400020024000F0FEFF2B
:10416000140801003EB505460C4620788DF8000085
:1041700060788DF80100A0788DF80200E0788DF865
:10418000030020798DF8040060798DF80500A0798E
:104190008DF806008DF80750FF208DF80800D2201A
:1041A0008DF809006B460A2207216420FEF73AFCCD
:1041B0003EBD704710B51648006840F00100144934
:1041C000086008464068134908401149486008469D
:1041D0000068114908400E4908600846006820F44C
:1041E000802008600846406820F4FE0048600846C9
:1041F000006820F0A05008604FF47F008860002025
:10420000C862FFF71EFF4FF000600449086010BD50
:10421000001002400000FFF0FFFFF6FE08ED00E096
:1042200010B50121880700F059F801283AD11E483D
:10423000FFF7E8FC1C484079052190FBF1F201FBF7
:104240001200C0B918488079A8B900201749087031
:104250001548407978B9002015490870124840780F
:10426000012808D110488078012804D10E4800792F
:1042700008B9FFF77DFD0C49887900EBD071491032
:10428000A0EB410129B94FF480510A48FEF73FF9EC
:1042900004E04FF480510748FEF737F90121880701
:1042A00000F00DF810BD0000850000207C0000200B
:1042B0007D000020000C0140CA4302827047CA43BF
:1042C0000282704721B1028842F00102028004E0BC
:1042D00002884FF6FE731A400280704730B50246DE
:1042E000002000230024158A05EA0103958905EAC8
:1042F000010413B10CB1012000E0002030BD1AB15F
:1043000083890B43838102E083898B4383817047D8
:1043100001894FF6F872114001817047002202882E
:104320001D4B98420ED01D4B98420BD0B0F1804FE0
:1043300008D01B4B984205D01A4B984202D01A4B1A
:10434000984204D14FF68F731A404B881A43174B8B
:10435000984207D0164B984204D04FF6FF431A40BC
:10436000CB881A4302808B8883850B8803850A4B90
:1043700098420BD0094B984208D00E4B984205D07A
:104380000D4B984202D00D4B984201D10B7A038617
:104390000123838270470000002C0140003401405B
:1043A0000004004000080040000C004000100040E5
:1043B000001400400040014000440140004801401A
:1043C0001FB501210846FFF76FFA4FF08040FFF755
:1043D0009FFF0020ADF80A00ADF8060042F20F7012
:1043E000ADF8080041F61F40ADF8040000208DF83C
:1043F0000C0001A94FF08040FFF790FF01218807D2
:10440000FFF75AFF012211469007FFF778FF1C20A3
:104410008DF8000001208DF8030002208DF80100C6
:1044200001208DF802006846FEF7D6FE01218807BC
:10443000FFF748FF1FBD000070B540F2255110483E
:1044400000F099F9012810D10D4800F04FFAC5B2DB
:104450000B4800F04BFAC4B2204601F079FA40F262
:104460002551074800F011F900BF0821044800F069
:1044700075F9012803D10821014800F0FDF870BD4D
:104480000038014010B50821614800F067F930B1EB
:104490005F4800F02BFA08215D4800F0EDF802219A
:1044A0005B4800F05BF930B1594800F01FFA022177
:1044B000574800F0E1F840F22441554800F05BF91C
:1044C00050B1534800F012FA40F22441504800F035
:1044D000DCF801204F49087040F225514C4800F0AB
:1044E0004AF9002879D040F22551494800F0CDF82A
:1044F000474800F0FBF9C4B24748D0F80411D0F89F
:104500000401401C444AC2F8040110464454434884
:104510000078062875D2DFE800F00309121F3F6417
:10452000412C02D101203D4908706DE0542C03D18B
:1045300002203A49087001E001F052FB64E02B2CA4
:1045400007D10320354908700020354981F89000D3
:1045500001E001F045FB57E03A2C0BD104202F4934
:10456000087000202E4981F8910091F890102C4A93
:10457000505410E02A4890F890000F2809DA284992
:1045800091F89000411C264A82F8901011460C5474
:1045900001E001F025FB37E00D2C0ED105201F496D
:1045A00008700D221E4991F89100411C1C4B83F8A4
:1045B000911003F110010A5412E0194890F891008B
:1045C0007E280BDA164991F89100411C144A82F8B2
:1045D000911002F110010C5402E017E001F000FB11
:1045E00012E00A2C0AD10A210D4890F891201030CF
:1045F000815401200749087002E002E001F0F0FA5E
:1046000002E001F0EDFA00BF00BF00BF10BD0000E6
:104610000044004058000020A40100205700002062
:104620000E0E002070B50821104800F097F8012800
:1046300003D10E480588001D058820210B4800F095
:104640008DF8012811D1094800F050F9C4B208488A
:1046500008490978445407480078401C0549087007
:104660002021024800F008F800BF70BD004800405B
:10467000E10D00202100002001F40072B2F5007F5E
:1046800000D100BFCA430280704710B5002200234A
:1046900040F66A14A14200D100BF0A1201249440DE
:1046A000A3B2DC43048010BD21B1828942F40052E0
:1046B000828104E082894DF6FF731A40828170473F
:1046C00010B504462048844209D101218803FFF730
:1046D0001BF900214FF48040FFF716F932E01B4828
:1046E000844209D101214804FFF7EEF800214FF47C
:1046F0000030FFF7E9F825E01548844209D101218F
:104700008804FFF7E1F800214FF48020FFF7DCF880
:1047100018E01048844209D10121C804FFF7D4F8F9
:1047200000214FF40020FFF7CFF80BE00A48844245
:1047300008D101210805FFF7C7F800214FF48010C8
:10474000FFF7C2F810BD00000038014000440040EF
:1047500000480040004C004000500040024600204D
:10476000B1F5007F00D100BF13880B400BB10120D1
:1047700000E00020704770B50246002400230025A9
:10478000002040F66A16B14200D100BFC1F34215C5
:1047900001F01F03012606FA03F3012D02D19689C9
:1047A000334006E0022D02D1168A334001E0968A9A
:1047B00033400C12012606FA04F41688344013B173
:1047C0000CB1012000E0002070BDF0B503460024CC
:1047D00000260025002040F66A17B94200D100BF2C
:1047E0001846C1F3421401F01F06012707FA06F527
:1047F000012C01D10C3004E0022C01D1103000E07A
:1048000014301AB107682F43076002E00768AF430E
:104810000760F0BD2DE9F04786B005460E4600243E
:10482000A24600BFA1460027B08900B100BF2F46B5
:104830002C8A4CF6FF700440F08804432C82AC892B
:104840004EF6F3100440B08831890843718908435B
:104850000443AC81AC8A4FF6FF400440B089044366
:10486000AC8201A8FFF760F81F48874202D1DDF84B
:1048700010A001E0DDF80CA0A88900F4004040B1D0
:104880000AEBCA0000EB0A1031684900B0FBF1F8EE
:1048900007E00AEBCA0000EB0A1031688900B0FBA0
:1048A000F1F86420B8FBF0F004012009642101FB59
:1048B0001089A88900F4004040B1322000EBC90003
:1048C000B0FBF1F000F00700044308E0322000EBF9
:1048D00009106421B0FBF1F000F00F0004432C81BB
:1048E00006B0BDE8F0870000003801400146888826
:1048F000C0F308007047C1F30802828070470000CF
:104900000BE000BF0749098801F040010029F9D0F8
:104910000178044A121D1180401C01780029F0D151
:10492000704700000038014000BFFEE710B500F0FE
:1049300087F8FEF7F1FBC720FEF7F8FBFEF7F1FB67
:1049400000F066F810BD10B5FEF7A2FB10BD2DE912
:10495000F04104460E46174600F072F8FEF7DCFB05
:104960000220FEF7E3FBC4F30740FEF7DFFBC4F3CE
:104970000720FEF7DBFBE0B2FEF7D8FB002504E0E2
:10498000705DFEF7D3FB681C85B2BD42F8DBFEF715
:10499000C8FB00F03DF8BDE8F0812DE9F041044688
:1049A0000E461746FEF7B8FB0320FEF7BFFBC4F325
:1049B0000740FEF7BBFBC4F30720FEF7B7FBE0B2EE
:1049C000FEF7B4FB002504E0FF20FEF7AFFB7055B7
:1049D0006D1CBD42F8D3FEF7A4FBBDE8F08110B515
:1049E000044600F02DF8FEF797FB2020FEF79EFB13
:1049F000C4F30740FEF79AFBC4F30720FEF796FBCB
:104A0000E0B2FEF793FBFEF78CFB00F001F810BD5F
:104A100010B5FEF781FB0520FEF788FB074C02E08E
:104A2000641E04B906E0FF20FEF780FB00F00100E1
:104A30000028F5D100BFFEF774FB10BDA086010071
:104A400010B5FEF769FB0620FEF770FBFEF769FB69
:104A500010BD00007FB504460D460F480F490A6897
:104A600002608A888280897981714FF480600C4B62
:104A70002A46214600900848FDF7A6FD0848FBF7A6
:104A8000E7FB0646324607A101A800F0BBFA04493D
:104A900001A8FCF73FFF7FBDAC0D00208500002082
:104AA000AC0300202564000070B5002400205949A3
:104AB00008700F205849087008215848FFF770F80F
:104AC00005E01420FDF7F1FB04F1140084B2524814
:104AD0000078401E4F490978884202DDB4F5FA7F1C
:104AE000EFDB4D480078801E81B24D48FEF709FA91
:104AF0004C4908804A480078152870D148484078C9
:104B000003286CD14648407B4549897B40EA012017
:104B100044490988884262D13F4801784248FBF7FE
:104B200070FB0A20FDF7D9FB4E20404908703A4837
:104B300002783B493C48FBF74BFB0A20FDF7CDFBD5
:104B400039490979384AD27841EA022108B2FBF79B
:104B50001DFD05463649FBF734FC3649886032496D
:104B60008979314A527941EA0220FBF70FFD054667
:104B70002F49FBF726FC2F49C1F80D002A49897AF5
:104B8000294A527A41EA0220FBF700FD05462849EE
:104B9000FBF7E5FB2749C1F817002349097A224AA8
:104BA000D27941EA0220FBF7F1FC05462249FBF7E6
:104BB00008FC2049C1F821001B49097B1A4AD27A16
:104BC00041EA0220FBF7E2FC1A49C1F8260012482C
:104BD0000178491C1248FBF714FB03E0FFE7422071
:104BE0001249087011480178124801730F48017882
:104BF000104841740D4801780E48C1760B48017881
:104C00000C4880F82510094801780A4880F82A10D5
:104C100070BD00002100002022000020380000208C
:104C2000E10D002040000020FF0D00204200002088
:104C300000002041AC0D00200000C84210B509A0C2
:104C400000F0B6F9002406E00948015D09A000F073
:104C5000AFF9601CC4B20F2CF6DB08A000F0A8F975
:104C600010BD0000576561746865723A000000006D
:104C7000FF0D002030782530325820000D0A00004A
:104C800070B50024002033490870072032490870AD
:104C900008213248FEF784FF05E01420FDF705FBEC
:104CA00004F1140084B22C480078401E2949097888
:104CB000884202DDB4F5967FEFDB27480078801E3E
:104CC00081B22748FEF71DF926490880244800785C
:104CD000122836D122484078032832D12048407922
:104CE0001F49897940EA01201E490988884228D154
:104CF000194801781C48FBF784FA0A20FDF7EDFA01
:104D00004E201A4908701448027815491648FBF7D6
:104D10005FFA0A20FDF7E1FA13490979124AD278BD
:104D200041EA0220FBF732FC05461149FBF749FB3B
:104D30001049C86108480178491C0948FBF761FA25
:104D400002E042200949087008480178094880F8C3
:104D5000201070BD21000020220000204B00002008
:104D6000E10D0020540000204400002056000020E7
:104D700000002041AC0D002010B509A000F018F98A
:104D8000002406E00A48015D0AA000F011F9601C49
:104D9000C4B2072CF6DB09A000F00AF910BD000030
:104DA00057696E64446972656374696F6E3A000096
:104DB0004400002030782530325820000D0A0000D1
:104DC00070B5002400203649087007203549087066
:104DD00008213548FEF7E4FE344800210160818057
:104DE000817105E01420FDF760FA04F1140084B22B
:104DF0002C480078401E2A490978884202DDB4F523
:104E0000967FEFDB27480078801E81B22848FEF7A6
:104E100078F82849088026480078132837D1244894
:104E20004078032833D1224840792149897940EAE2
:104E3000012020490988884229D11A4801781B4855
:104E4000FBF7DFF90A20FDF748FA4E201A490870EF
:104E50001448027816491548FBF7BAF90A20FDF7FD
:104E60003CFA12490979114AD27841EA0220FBF74B
:104E70008DFB05461149FBF7A4FA1149C1F8120050
:104E800008480178491C0A48FBF7BBF902E04220B8
:104E900009490870084801780948817570BD00000B
:104EA00021000020220000202B00002024000020F0
:104EB000E10D0020340000203600002000002041D9
:104EC000AC0D002010B509A000F072F8002406E037
:104ED0000948015D09A000F06BF8601CC4B2072C02
:104EE000F6DB08A000F064F810BD000057696E649E
:104EF00053706565643A0000240000203078253046
:104F0000325820000D0A000010B5FDF71BFD08B94E
:104F1000002010BD6420FDF7E7FCFDF759FD18B92E
:104F2000FDF738FD0020F4E70F20FDF7DDFCFDF76D
:104F30004FFD0020FDF7D8FCFDF74AFD0020FDF7EE
:104F4000D3FCFDF745FDFDF725FD0120E1E710B598
:104F5000FDF7F8FC08B9002010BD6420FDF7C4FC83
:104F6000FDF736FD18B9FDF715FD0020F4E7102018
:104F7000FDF7BAFCFDF72CFD8020FDF7B5FCFDF731
:104F800027FDFDF707FDFDF7DDFC6420FDF7ACFC18
:104F9000FDF71EFD0F20FDF7A7FCFDF719FD84208E
:104FA000FDF7A2FCFDF714FDFDF7F4FC0120D3E7AB
:104FB0000FB4054B10B503A9044A029800F020F97C
:104FC00010BC5DF814FB000081590008940000201B
:104FD0000FB47CB50C0009AD01D0611E00E00021CA
:104FE000CDE90001064B6A462946089800F008F909
:104FF000002C02D0009A002111707CBC5DF814FBDB
:10500000075900080FB4084B10B504A902AA039869
:1050100000F0F6F8044602A9002000F07FFC2046CC
:1050200010BC5DF814FB00001D59000800487047D3
:105030009800002001480068704700009800002098
:1050400002E008C8121F08C1002AFAD17047704751
:10505000002001E001C1121F002AFBD170470000AF
:105060000149086070470000980000202DE9FF5FAB
:1050700082B00021DDE90430020DDDF840B00343C9
:1050800018D044F61050A2F2FF3242431514119882
:1050900001281FD0A5EB0B00401C5FEA000A4FF06F
:1050A00000064E4FDFF83891B046504615D5CAF18C
:1050B000000413E0119801244AA3012801D16FEAEA
:1050C0000B010298119AC0E90031C0E9024206B012
:1050D000BDE8F09FCBF10000DFE704460021404A25
:1050E000491842EB0450CDE9001012E0E00707D068
:1050F00032463B4640464946FBF780FC804689469F
:1051000032463B4610461946FBF778FC06460F46EA
:105110006410002CEAD1DDE90401DDE90023BAF1D5
:10512000000F06DAFBF76AFC42464B46FBF766FCCB
:1051300005E0FBF7D5FC42464B46FBF7D1FC0446A5
:105140000E460022284BFBF743FA03D84FF0FF30FE
:10515000014607E00022254B20463146FBF76FF958
:10516000FBF72DFD102409E0002C0ADB0A220023A6
:10517000FBF78CFA039B30321A55641E50EA010289
:10518000F2D1641C039AC4F111031444119A012A48
:1051900003D0012208430DD10AE0084304D00020C7
:1051A0004FF0110B119072E7A3EB0B056D1E0DE094
:1051B0005B4504DD4FF0000205F1010504E003DA70
:1051C0004FF00002A5F10105002AECD002981199D8
:1051D000C0E90231C0E9004579E700000000144051
:1051E0000000F03F300000000000F0430000E03F0E
:1051F00030380A2801D20120704700207047000093
:105200002DE9FF4F95B09A46884606460025EEE107
:10521000252877D100242746F94A0121039400E08C
:10522000044316F8013F203B01FA03F01042F7D186
:1052300030782A2811D06FF02F033078A0F1300297
:10524000092A16D8039A44F0020402EB820203EB07
:1052500042021044761C0390EFE758F8042B0392A7
:10526000002A03DA504244F40054039044F002044C
:10527000761C30782E2816D116F8010F44F004045D
:105280002A280DD06FF02F023078A0F13003092BBF
:1052900009D807EB870302EB4303C718761CF3E733
:1052A00058F8047B761C30786C280FD006DC4C282C
:1052B00017D068280DD06A2814D104E0742810D0C3
:1052C0007A280FD10DE044F400140AE044F480146D
:1052D00001E044F440147278824202D104F5801453
:1052E000761C761C307866280BD013DC582877D0D3
:1052F00009DC002875D04528F6D04628F4D0472888
:105300001AD193E118E0632835D0642879D0652854
:1053100012D18BE1702873D008DC6728F1D069289E
:105320006FD06E280DD06F2806D1ACE073282CD03A
:10533000752874D0782853D05246179990476D1C21
:1053400054E1C4F30250022809D003280DD0D8F844
:10535000001004280DD00D6008F1040846E1D8F8CB
:105360000010EA17C1E90052F6E7D8F800100D80E6
:10537000F2E70D70F0E718F8041B8DF8001000201C
:105380008DF80100EB46012003E058F804BB4FF014
:10539000FF3061074FF0000102D40DE009F1010177
:1053A0008946B9420FDA8145F8DB1BF8091000295C
:1053B000F4D108E009F1010189468142FADB1BF8CA
:1053C00009100029F6D103985346A0EB090721469E
:1053D0003846179A00F080FA284400EB090507E0E8
:1053E00044E008E10DE01BF8010B52461799904785
:1053F000B9F10109F7D2534621463846179AF2E02F
:1054000039E00A21C4F302524FF0000B0091022A46
:1054100006D058F8040BC117032A09D00AE023E08C
:1054200008F1070020F00702F2E80201904605E0CB
:1054300000B2C117042A01D140B2C117002906DA0F
:105440000A460021404261EB02012D2202E02205C2
:1054500004D52B228DF80420012203E0E20701D0BD
:105460002022F7E7914657E00A2100E010214FF093
:10547000000B00910BE010214FF0000B44F00404EE
:105480000827009103E008204FF0000B0090C4F3C0
:105490000252022A05D058F8040B0021032A08D032
:1054A00008E008F1070020F00702F2E80201904648
:1054B00003E080B2042A00D1C0B24FF000092207F5
:1054C0002AD53278702A07D0DDF800C08CF0100C95
:1054D0005CEA0B0C05D00EE040228DF8042001227E
:1054E00008E050EA010306D030238DF804308DF82F
:1054F000052002229146009B83F0080353EA0B0328
:105500000AD150EA010201D1620705D530228DF897
:1055100004204FF001097F1E3278582A04D039A2A6
:105520000C920CAA02920BE03BA2F9E75B46009AB0
:10553000FBF7ACF80C9B9B5C029A521E0292137014
:1055400050EA0102F2D1029804A9081A00F1200BD6
:10555000600702D524F4803400E001275F4502DDB6
:10556000A7EB0B0000E0002000EB0B01009003987C
:105570004944401A0390E00306D453462146179A43
:10558000039800F0A9F90544002706E001A8524657
:10559000C05D179990476D1C7F1C4F45F6DBE003FB
:1055A0000CD553462146179A039800F095F9054407
:1055B00004E030205246179990476D1C0099481E10
:1055C00000900029F5DC08E0029802995246007824
:1055D000491C0291179990476D1CBBF10001ABF17A
:1055E000010BF1DC5BE100F065F90544761C3078D5
:1055F00000287FF40DAE19B02846BDE8F08F0000FA
:105600000928010030313233343536373839616298
:10561000636465660000000030313233343536375C
:10562000383941424344454600000000600700D439
:10563000062708F1070020F00700F0E80223804663
:1056400003F0004C5FEA0C0001D097A009E02005B0
:1056500001D596A005E0E00701D095A001E0AFF2EA
:105660004C001390307823F0004365280CD006DC02
:10567000452809D046281DD047287FD13BE0662821
:1056800018D067287AD136E00021112F01DB1120D4
:1056900000E0781CCDE9000104A90CA8FFF7E6FCA6
:1056A000DDE90D010C9A4FF0000B07F10109109292
:1056B00000914EE04FF000400097CDE9011004A9A1
:1056C0000CA8FFF7D3FCDDE90D020C9B0F994FF0FE
:1056D000000B91461093009211B9791C00EB01095F
:1056E000B7EB090003D4C0F1FF3B07F10109A9EBB7
:1056F0000700019042E0012F00DA01270021112F5D
:1057000001DD112000E03846CDE9000104A90CA814
:10571000FFF7ACFCDDE90D010C9A00914FF0000B96
:10572000B946109221070FD4009A4A4503DA9146F0
:1057300001E0A9F10109B9F1010F05DD109AA9F104
:105740000101515C3029F4D0B84202DA10F1040FA3
:1057500003DA0121CDE9011010E0002803DC8344C5
:10576000A9EB000102E0411C494500DD8946A0EBA0
:105770000B00401C01904FF000400290200705D420
:105780000198484502DB4FF0FF30019000208DF872
:105790004B0002980DF14B07B0F1004F25D00220CD
:1057A0000C902B200D90029800280CDA40420290B9
:1057B0002D200D9007E00A210298FAF751FF3031B1
:1057C000029007F8011D0C99481E0C900029F2DC8C
:1057D00002980028EFD1791E0D980870307800F0FB
:1057E000200040F0450007F8020D11A8C01BC01DA5
:1057F00002901398007800B1012000EB0901019894
:1058000001EBE071029801440398401A401E039096
:10581000E00306D453462146179A039800F05CF83B
:1058200005441398007818B15246179990476D1C9B
:10583000E00323D553462146179A039800F04CF80D
:1058400005441BE0BBF1000F07DB0098584504DD61
:105850001098179910F80B0001E017993020524664
:10586000904701980BF1010B401E05F101050190D5
:1058700004D12E205246179990476D1CB9F10001B2
:10588000A9F10109DEDC05E017F8010B5246179972
:1058900090476D1C0299481E02900029F4DC534683
:1058A0002146179A03989EE62D0000002B00000069
:1058B000200000002DE9F041044600251E46174651
:1058C000880404D405E039462020B0476D1C641ECE
:1058D000F9D52846BDE8F0812DE9F04104460025C0
:1058E0001E469046C80301D5302700E020278804D3
:1058F00004D505E041463846B0476D1C641EF9D515
:105900002846BDE8F0814A68002A06D00A68531C80
:105910000B6010704868401E486070470A68531C4E
:105920000B601070704730B583B00446FFF782FB00
:1059300005460020CDE90000024621466846FAF7F8
:105940005EFF2846FFF78CFBDDE9000103B030BDA8
:105950000A49D1F80411FF2904D90021074AC2F8E5
:1059600004110AE00549D1F80421D1F80411491CB9
:10597000024BC3F804111946885470479C0000205C
:1059800070B504460D46A1B20548FEF7B4FF00BF4E
:1059900080210348FEF7E2FE0028F9D0204670BDC2
:1059A000004400407FB504460D46A0796179227914
:1059B000A378CDE90032CDE902106378207800F5B4
:1059C000FA6202A12846FFF71DFB7FBD2530346433
:1059D000253032642530326425303264253032641B
:1059E00025303264000000001CB501210846FDF797
:1059F0007BFF01216848FCF737FDFCF78FFDFDF7C1
:105A000085F84FF4A060FDF71FFCFDF799F8FDF74E
:105A100051F8FDF743F8FDF7E1F9FEF794FF4FF475
:105A2000E13000F013F94FF4E13000F06BF94FF47E
:105A30001650FEF73FF8FBF773FC584B0122182174
:105A40006420FCF7EFFF564B564A57495748FEF77C
:105A5000BBFAFDF7D3FE5649086008460068FCF71C
:105A6000B9FE5448007808B9FBF734FB5048006889
:105A7000FAF79AFD044622460B464FA0FFF798FA24
:105A800050490720FEF76EFB4F48FEF7BBF84E4823
:105A9000FEF7A6F9FEF794FC7DE04C48007838BB91
:105AA00001204A4908704348007828B9FDF714F8E6
:105AB0003D493E48FEF7CEFFFDF70EF8444800781A
:105AC000B0B90120424908703A480078414908704D
:105AD000FDF794FE3649086008460068FCF77AFE38
