:020000040800F2
:100000000814002005010008333000087527000897
:100010005B2D0008AB1400089D460008000000009E
:100020000000000000000000000000001D3E00086D
:100030004D22000800000000793600081F3F00082C
:100040001F0100081F0100081F0100081F01000810
:100050001F0100081F0100081F0100081F01000800
:100060001F0100081F0100081F0100081F010008F0
:100070001F0100081F0100081F0100081F010008E0
:100080001F0100081F0100081F0100081F010008D0
:100090001F0100081F0100081F0100081F010008C0
:1000A0001F0100081F0100081F0100081F010008B0
:1000B0008D3F00081F0100081F0100081F010008F4
:1000C0001F0100081F0100081F0100081F01000890
:1000D0001F010008A5410008F141000891430008F4
:1000E0001F0100081F0100081F010008DFF810D0E1
:1000F00000F0DCFD00480047C9570008AFF300805E
:10010000081400200648804706480047FEE7FEE73F
:10011000FEE7FEE7FEE7FEE7FEE7FEE7FEE7FEE7B7
:10012000213F0008ED00000838B5D0E90221491E42
:1001300001EB410102EBC1014268C1EB011102EB8D
:1001400081010268C1EB011102EB8102D0E90431A7
:1001500001EB410103EB81013023A1F5527191FBC9
:10016000F3F4174D6C4302EBC41291FBF3F403FB61
:10017000141100921A2902DB124B1A4400920C222D
:1001800091FBF2F3104C6343009C04EBC313009308
:1001900091FBF2F302FB13110C4A08E0491E40F2F6
:1001A000A324535C6343009C04EBC3130093002916
:1001B000F4DC0146684600F007FB009838BD0000FB
:1001C0003F0C0F008051010067C20300935C0008E0
:1001D00040EA01039B0703D009E008C9121F08C0C9
:1001E000042AFAD203E011F8013B00F8013B521E49
:1001F000F9D27047D2B201E000F8012B491EFBD2C0
:1002000070470022F6E710B513460A460446194621
:10021000FFF7F0FF204610BD30B505462A460B46D5
:1002200012F8010B13F8014B08B1A042F8D01CB131
:10023000002802D06D1CF1E7284630BDCAB2401E2E
:1002400010F8011F8A4202D00029F9D1002070471E
:10025000421C10F8011B0029FBD1801A704710B511
:10026000002200E0521C835C8C5CA34201D1002B75
:10027000F8D1D8B2E1B2401A10BD30B50446002022
:10028000034600E05B1C934203D2E05CCD5C401B64
:10029000F8D030BD2DE9F04791460F468046044620
:1002A000002614F8015B2DB100F07AFA0068405D79
:1002B000C007F6D12B2D02D02D2D18D0641E4A4632
:1002C0003946204600F0C6FA27B13968A14201D16B
:1002D000C7F8008071054FF002040BD5404200289A
:1002E00003DD04F093FD0460A007BDE8F08746F449
:1002F0008066E4E70028F8DA04F088FD04606FF017
:100300000040F2E770B5064604F080FD046805463B
:100310000A2200213046FFF7BDFF2C6070BDF0B40B
:1003200080EA0102D40F4200B2EB410F02D2024632
:10033000084611464A0042D0C30DDDB2C1F3C75290
:10034000AD1A202D35DAC1F3160141F4000204B1D3
:100350005242C5F1200602FA06F12A411044B3EBDD
:10036000D05F23D0C4B1012DA0EBC35009DCF0BC99
:100370004FF0004202EAC352DBB200F5000000F089
:1003800010BB400000F1807000EBC350A0F1807002
:1003900040EAD170490009E0490841EAC071A0EB88
:1003A000C35000F50000400800EBC350F0BC00F063
:1003B000EFBA6142012202EB4101001BF6E7F0BCFB
:1003C000704781F00041AAE780F00040A7E780EA8B
:1003D000010210B502F00043400022D04A001FD0B5
:1003E000010E01EB1261C0F35600C2F3560240F455
:1003F000000042F40002A0FB022000047F39140434
:1004000000D0401C50EA124001D44000491EC2B244
:100410000C0604EBD010401C4008802A02D003E0F8
:10042000002010BD20F00100002900DA0020184350
:1004300010BD30B480EA010202F0004530F0004205
:1004400021F0004013D090B1C30DD40DC2F31601BA
:10045000C0F31600E41A41F4000140F400027D34B8
:10046000914201D3641C00E04900002C02DA30BC48
:10047000002070474FF400000023914201D3891AF5
:10048000034340084FEA4101F7D151B1914202D1F3
:100490004FF0004105E002D24FF0010101E06FF0A2
:1004A000010103EBC450284430BC00F071BA2DE9BF
:1004B000FE4F804681EA0300C00F0C46009021F0F9
:1004C000004123F00045B8EB0200A94105D24046A7
:1004D000214690461C460B46024623F0004010433E
:1004E00047D0270DC7F30A00C3F30A510290401A00
:1004F000019040286BDAC3F3130040F4801B00988E
:10050000924620B10023D2EB030A63EB0B0B019858
:100510005946C0F14002504600F021F906460D460A
:1005200050465946019A00F029F910EB0800614144
:10053000002487EA115284EAE7731A4340D0009AF4
:1005400062B3019A012A4FEA075215DC001B61EBE6
:1005500002014FF0004202EA0752CDE90042001CBE
:1005600041F5801132462B4600F058FA03B0BDE841
:10057000F08F40462146F9E7001B61EB0201001CA9
:1005800041F5801300185B412018A2F5001747EBD6
:10059000030140EAD570B6196D4111E06D084FEACC
:1005A000360645EAC0754FEA0752001B61EB0201AF
:1005B000001C41F5801149084FEA300000195141F3
:1005C00032462B4603B0BDE8F04F00F018BA009851
:1005D000012240000023D0EB020263EBE07300989D
:1005E00021464FEAE074B8EB000061EB0401E9E753
:1005F00083F000435BE781F0004158E7C10F80EAD8
:10060000E0700844CA079623002100F0CAB9962377
:100610000022114600F0C5B900F0004230F0004061
:100620000AD0C10D01F56071C0F3160042EA015114
:10063000C208400711437047002001467047000080
:1006400030B5041E71F1000404DB4FF00044404259
:1006500064EB0101141E73F1000405DB1C464FF02E
:100660000043524263EB0403994208BF904230BDFD
:1006700001F0004330B421F0004150EA010206D0FD
:100680000A0DA2F56072C1F31301002A02DC30BC2E
:1006900000207047440F44EAC104C100E01830BC98
:1006A00000EBC25000F074B9002801DBC0F100403B
:1006B000002901DBC1F1004181427047002801DBC4
:1006C000C0F10040002901DBC1F1004188427047C0
:1006D00030B50B46014600202022012409E021FA12
:1006E00002F59D4205D303FA02F5491B04FA02F50F
:1006F0002844151EA2F10102F1DC30BD2DE9F05FA6
:100700000546002092469B46884606468146402480
:100710001BE0284641464746224600F0D9FA534698
:100720005A46C01A914110D311461846224600F08D
:1007300016F82D1A67EB01084F46224601200021CA
:1007400000F00DF817EB00094E41201EA4F1010442
:10075000DFDC484631462A464346BDE8F09F202A62
:1007600004DB203A00FA02F1002070479140C2F108
:10077000200320FA03F3194390407047202A06DB38
:10078000CB17203A41FA02F043EAE07306E041FA5F
:1007900002F3D040C2F1200291400843194670474D
:1007A00000487047205D000810B50446FFF7F8FFC9
:1007B0000068005D00F0010010BD0000014900F07C
:1007C00003B80000D80F002010B500683C22B0FB31
:1007D000F2F302FB1303B0FBF2F00B60B0FBF2F399
:1007E00002FB1303B0FBF2F018224B60B0FBF2F3F4
:1007F00002FB1303B0FBF2F0021D8B600723B2FB78
:10080000F3F403FB1422800040F2B55300F66C3081
:100810008A61B0FBF3F2B0FBF3F403FB1400443243
:1008200080084A61C8613B2802D3920700D0401C6F
:100830000022074C13460A61E25C824203D8801A08
:100840005B1C0B61F8E7401CC860084610BD000047
:10085000245D00082DE9F05F8246007800271546E8
:100860008B460AF10104B946302801D09DB113E04E
:1008700014F8010B0127782803D0582801D045B17E
:100880000AE00DB1102D07D10027102514F8010B37
:1008900002E0082500E00A250026B0460EE005FB30
:1008A000080005FB06F1012701EB10461FFA80F84E
:1008B000B6F5803F00D3B94614F8010B294600F085
:1008C00017FA0028EBDABBF1000F05D00FB1641E58
:1008D00000E05446CBF80040B9F1000F06D004F018
:1008E00095FA02210160C81EBDE8F09F48EA064063
:1008F000FAE700000FB4002300B589B00CA90091FD
:100900000B996FF00042CB601E4B06931E4B079372
:100910000423CDE901321D4A089202466B460020AD
:1009200000F088FA09B05DF814FB70B586B0064691
:100930004FF0FF300091CDE90101002015460C4633
:1009400004903246694604A8FFF7D4FF0246049893
:10095000211825B108B1084600E020462860049817
:1009600000280DD0002A02DD0098884208D0081B1C
:100970000094CDE901043246694604A8FFF7BAFFA6
:1009800006B070BD6D1000088B100008A9070008A4
:100990000029A8BF7047401C490008BF20F0010093
:1009A000704710B4B0FA80FC00FA0CF050EA010471
:1009B00004BF10BC704749B1CCF1200421FA04F403
:1009C00011FA0CF118BF012121430843A3EB0C01DC
:1009D000CB1D4FEA00614FEA102042BF002010BC3F
:1009E000704700EBC35010440029A4BF10BC7047EF
:1009F000401C490008BF20F0010010BC704710B532
:100A0000141E73F1000408DA401C41F10001921831
:100A10005B411A4301D120F0010010BD2DE9F04DDA
:100A200092469B4611B1B1FA81F202E0B0FA80F22F
:100A300020329046FFF793FE04460F4640EA0A0034
:100A400041EA0B0153465A46084313D0114653EA74
:100A5000010019D0C8F14002504600F039F90546AE
:100A60000E46504659464246FFF779FE084305D0E8
:100A7000012004E020463946BDE8F08D0020054302
:100A800046EAE0762C4337430A986305E40AA0EB74
:100A900008000022FD0A44EA47540A3002D500202B
:100AA0000146E9E7010510196941DDE9084500192A
:100AB0006941BDE8F04DA2E72DE9FE4F81EA03044C
:100AC00004F0004421F0004100944FF0000B23F0AB
:100AD000004350EA01045ED052EA03045BD0C3F342
:100AE0000A54C1F30A552C44A4F2F3340194A0FB38
:100AF0000254C1F3130141F48011C3F3130343F40F
:100B0000801301FB024400FB034E840A970A44EA67
:100B1000815447EA8357A4FB076802958D0A05FBB9
:100B200007854FEA932C04FB0C542705029D4FEADE
:100B3000065847EA1637B5EB08056EEB070C870E2B
:100B4000920E47EA811742EA8312A7FB0201B6EB35
:100B50000B0164EB00042B0D43EA0C335E1844EBED
:100B60001C50DA465146E7FB0201C5F313044FEA75
:100B70000B3343EA14534FEA0432019C43EA060361
:100B8000A4F10C040294009CCDE900B4FFF746FFE9
:100B900003B0BDE8F08F00200146F9E72DE9F04DE4
:100BA00081EA030404F0004B21F0004514464FF0A5
:100BB000000A23F0004150EA050220D054EA010265
:100BC0001DD0C5F30A570246C5F31303C1F3130042
:100BD000C1F30A5640F4801543F48013A7EB0608CE
:100BE000101BD64608F2FD3873EB050002D308F15E
:100BF000010801E092185B41B8F1000F03DA002010
:100C00000146BDE8F08D00204FF480110646844671
:100C10000EE0171B73EB050705D3121B63EB0503EF
:100C200006434CEA010C49084FEA300092185B4138
:100C300050EA0107EDD152EA030012D082EA040023
:100C400083EA0501084305D0101BAB4106D20122FF
:100C5000002306E000224FF0004302E06FF00102A3
:100C600053101AEB06004CEB085110EB0A0041EB55
:100C70000B01BDE8F04DFFF7C2BEC1F30A52C1F34C
:100C8000130140F2FF3341F480119A4202DA00204E
:100C90000146704740F233439A42A2F2334202DCEB
:100CA000524200F015B8FFF75ABD0000064C074D40
:100CB00006E0E06840F0010394E80700984710342C
:100CC000AC42F6D3FFF716FADC5E0008FC5E0008C3
:100CD000202A04DB203A21FA02F00021704721FA91
:100CE00002F3D040C2F120029140084319467047F8
:100CF0003A2800D2303820F02002412A01D3A2F154
:100D00003700884201D34FF0FF3070472DE9FF4F85
:100D1000087883B09946FF2805D0491C2D2804D0B7
:100D20000024002008E000200BE00124F9E700EB9C
:100D3000800003EB4000491C0B78FF2BF7D104B176
:100D4000404200230293147819461D462D2C01D0F1
:100D50002B2C04D1521C2D2C13D000240294AA4613
:100D60001478FF2C0FD00A25A3FB057801FB058121
:100D70004FF0000C03FB0C11521CE3194AEB01016C
:100D8000EEE70124EAE7814453EA010002D019F5B5
:100D9000C87F06DA03980021C0E9001107B0BDE85A
:100DA000F08F0025AE4E2F46DFF8B882184600F0CF
:100DB0007DF9CDE90001B9F1000002DAC9F10004C2
:100DC00000E004460023A74A1AEB030B42EB045A47
:100DD00012E0E00707D02A46334638464146FFF77F
:100DE0006BFE074688462A46334610461946FFF7EB
:100DF00063FE05460E466410002CEAD1DDE90001D1
:100E0000B9F1000F5A46534606DAFFF7C7FE3A46D5
:100E10004346FFF7C3FE05E0FFF74EFE3A46434662
:100E2000FFF74AFE029A0AB181F00041039AC2E933
:100E30000001B3E72DE9FF4F1F468DB0D7E901460A
:100E40004FF0FF382E2045464FF000090B90B9694E
:100E50006D1C0E988847396A824688470028F6D16B
:100E6000BAF1FF3F0AD024F4D064002E11DDBAF1AC
:100E70002B0F08D0BAF12D0F0BD102E0404611B074
:100E80008DE744F48064B9696D1C0E9888478246EA
:100E9000761E6946600501D52D2000E02B208DF8D7
:100EA000000001F1010B0DF1200809E0B9696D1C8A
:100EB0000E98884782460F9844F40074761E0560A9
:100EC000002E02DDBAF1300FF0D00B998A453ED1E9
:100ED00044F0800406E00F99681CA9F1010944F46C
:100EE00000740860B9696D1C761E0E9888478246AA
:100EF0003028F0D02BE00B998A4505D1200603D489
:100F000044F08004761E18E0504604F061F808B3FF
:100F10000DF11301761E44F400748B4508D2AAF13A
:100F200030000BF8010B200607D5A9F1010003E002
:100F3000200602D409F101008146A00502D50F99CF
:100F4000681C0860B9696D1C0E9888478246002E9F
:100F5000D1DC53E0002E51DDBAF1650F02D0BAF1B9
:100F6000450F4BD1A00549D5B9696D1C24F44074D7
:100F7000761E0E9888478246002E0CDD2B2804D062
:100F8000BAF12D0F07D144F48074B9696D1C0E9825
:100F900088478246761EE00501D52D2100E02B21F1
:100FA00008F8011BCDF82C8021E00DF12901761EF7
:100FB00044F4007488450CD2AAF1300010F0FF0010
:100FC00088F8000002D10B99884509D908F1010879
:100FD00006E0E00501D5244801E042F20F708146A9
:100FE000B9696D1C0E98884782460F980560002EDF
:100FF00004DD504603F0ECFF0028D6D1F9690E98C5
:101000008847FF208BF8000088F800000020069039
:1010100007904B466A4608A906A8FFF777FEA00589
:1010200002D46FF001002AE714F0240F0AD0E00781
:1010300014D1DDE906123868031D3B600068C0E981
:1010400000120BE0DDE90601FFF712FB0146E007A5
:1010500004D13868021D3A600068016028460EE736
:10106000000014400000F03FF1D8FFFF426842B199
:10107000016811F8013B23B1521EC0E90012184665
:1010800070470121C160881E704742685AB1C36829
:10109000016843B983688B4205D0491E521CC0E9E0
:1010A0000012002070474FF0FF3070470EB540F23D
:1010B000334202920022CDE900221346FFF7AEFC34
:1010C00003B000BD10B501F039FA01F0F5FF64205E
:1010D00001F0D7F810BD000010B501F0F7FF322085
:1010E00001F0CFF801F03CFA322001F0CAF81A48BA
:1010F00000F08CFC18480078192802DB164802F032
:10110000FBFC164800F0CEFF00F060FA00F024FB74
:101110001349144800F06CFA01F0A6FC0F4B124A78
:1011200012490D4800F0C4F90F4A10490A4801F06D
:10113000E9FC10220E49500101F0DDFD0A2001F00A
:10114000A0F810220A4910314FF4087001F0D3FDC5
:101150000A2001F096F810BD75000020980F0020BD
:10116000780F0020580F0020380F0020180F0020A3
:10117000B70F002021B1826842F00102826003E0D3
:10118000826822F0010282607047014600208A686E
:1011900002F004020AB1012000E00020704701467D
:1011A000C86C80B270470246002013680B400BB138
:1011B000012000E000207047014600208A6802F00C
:1011C00008020AB1012000E00020704730B5024655
:1011D0000020002350680F4C20400D790C6844EA31
:1011E00005242043506090680B4C2040D1E9025404
:1011F0002C434D7944EA450420439060D06A20F4A2
:1012000070000C7C641EE4B2234340EA0350D062B9
:1012100030BD0000FFFEF0FFFDF7F1FFF0B5044622
:101220000D4600200021092D11DDE068A5F10A0618
:1012300006EB4607072606FA07F18843A5F10A06DA
:1012400006EB460603FA06F10843E0600CE020696D
:1012500005EB4507072606FA07F1884305EB450627
:1012600003FA06F108432061072A0FDA606B561E65
:1012700006EB86071F2606FA07F18843561E06EB83
:10128000860605FA06F10843606322E00D2A0FDAAC
:10129000206BD61F06EB86071F2606FA07F1884348
:1012A000D61F06EB860605FA06F10843206310E018
:1012B000E06AA2F10D0606EB86071F2606FA07F183
:1012C0008843A2F10D0606EB860605FA06F10843EF
:1012D000E062F0BD816841F008018160704721B192
:1012E000826842F4A002826003E0826822F4A002D5
:1012F00082607047816841F004018160704700009E
:1013000010B501210648FFF7EAFF00BF022104489B
:10131000FFF749FF0028F9D00148FFF740FF10BD53
:101320000024014000B587B00121480202F0FEF917
:101330000121042002F0FAF9002002F0CBF900208C
:101340008DF81B008020ADF8180003208DF81A00DE
:1013500006A9194800F0DAFF0523012207211748E2
:10136000FFF75CFF0020019004904FF46020039091
:1013700000208DF809008DF8080001208DF8140078
:1013800001A90E48FFF722FF01210C48FFF7F2FEEA
:101390000A48FFF79FFF00BF0848FFF70DFF01282D
:1013A000FAD00648FFF7A6FF00BF0448FFF7EDFE9E
:1013B0000128FAD007B000BD000801400024014018
:1013C0002DE9FE4F05460E4617469846DDE90DAB62
:1013D000DDF8309013480078012820D10020124910
:1013E000087000240FE0114850F834102846FEF72A
:1013F00036FF30B90D4800EBC40000790A49087087
:1014000003E0601CC4B2072CEDD300BF43463A464C
:10141000314605488DE8000E007800F009F8BDE877
:10142000FE8F00005A0000205B0000204C5C00088A
:101430002DE9F04704460D4616461F46DDE9099A98
:10144000DDF82080082C23D2DFE804F01F04080D0B
:101450001215181C504602F097F819E0314628463C
:1014600001F05AFF14E04146384601F08DFE0FE0CE
:1014700001F06AFE0CE001F0E3FF09E0484601F0EC
:101480002FFE05E001F0FEFF02E004F0F9FA00BFD4
:1014900000BFBDE8F087014601F00F000A1102EB22
:1014A000820200EB4200C0B2704700BFFEE70000BE
:1014B0002DE9F04FDDB080460C4615461E4659A971
:1014C000404604F05FF959AA24A154A803F08AFC0D
:1014D000402144A8FEF795FE4FF4807104A8FEF762
:1014E00090FE59AB20A2402144A8009603F060FC76
:1014F00044A82B4654AA22A1CDE9004004A803F039
:1015000071FC04A8FEF7A4FE87B2394604A800F0D7
:101510006DFE814644A8FEF79BFE1FFA80FA4FF449
:1015200080612448FEF76DFE04AB3A4622A12148B3
:10153000CDF8009003F056FC1E48FEF789FE834666
:101540005A4621A102A803F04DFC00F0FBFD194909
:1015500002A800F0C3F95DB0BDE8F08F252E31344C
:1015600073303030000000004461746154696D656F
:101570003D25733B49434349443D2573000000002A
:10158000514E3D25733B53543D37343B434E3D3222
:101590003038333B50573D25733B4D4E3D25733B13
:1015A000466C61673D383B43503D26262573262611
:1015B000000000000F04002023232530346425732D
:1015C000253034580D0A00002564000010B504A031
:1015D00003F050F8642000F054FE00F023FE10BD2C
:1015E00041542B434950434C4F53453D300D0A0065
:1015F00070B504460D4630A003F03CF84FF4FA7085
:1016000000F03FFE30A13348FEF706FE3249086085
:101610000EE000F007FE28A003F02CF84FF4FA705B
:1016200000F02FFE2DA12B48FEF7F6FD2A49086099
:10163000294800680028ECD02FA003F0A9FB4FF444
:1016400080713348FEF7DDFD2B46224631A130483C
:1016500003F0C8FB2E4803F00DF84FF4FA7000F0C9
:1016600010FE34A11B48FEF7D7FD1B49086000207F
:101670003449086015E033480068401C314908606F
:1016800031A11448FEF7C8FD13490860C82000F0D6
:10169000F8FD2C480068642803DD00202949086013
:1016A00003E00D4800680028E5D000BF00F0BAFD57
:1016B00001F0DAF970BD000041542B4E45544F50F3
:1016C000454E0D0A000000002B4E45544F50454E2C
:1016D0003A2030008C000020140000204E65747702
:1016E0006F726B20697320616C7265616479206F21
:1016F00070656E65640000002A2A2A2A544350202F
:1017000020454E41424C452A2A2A2A0D0A00000053
:101710000F03002041542B4349504F50454E3D305C
:101720002C22544350222C222573222C25730D0A7F
:10173000000000002B2B4349504F50454E3A2030BB
:101740002C3000001C0000202B4349504F50454EC8
:101750003A20302C3000000010B501F085F937A098
:1017600002F088FF4FF47A7000F08BFD36A13A4802
:10177000FEF752FD394908600EE000F053FD2FA03E
:1017800002F078FF4FF47A7000F07BFD2EA1324812
:10179000FEF742FD31490860304800680028ECD06F
:1017A0002FA003F0F5FA00F03DFD33A002F062FF38
:1017B0004FF4FA7000F065FD32A12748FEF72CFDCA
:1017C000264908600846006820B123490E312FA041
:1017D00003F0DEFA00F026FD31A002F04BFF4FF4DB
:1017E000FA6000F04EFD31A11B48FEF715FD1B49C4
:1017F00008600846006818B92FA11748FEF70CFDCD
:1018000015E000F00FFD2FA002F034FF4FF47A70C6
:1018100000F037FD2EA11048FEF7FEFC0F490860CE
:101820000846006818B924A10B48FEF7F5FC0B48E0
:1018300000680028E5D000F0F5FC10BD41542B43B2
:1018400050494E3F0D0A00002B4350494E3A20525A
:1018500045414459000000008C0000201400002085
:101860002A2A2A2A53494D202052454144592A2ADE
:101870002A2A0D0A0000000041542B4353510D0A3F
:10188000000000002B4353513A0000002A2A2A2A64
:101890004353513A25732A2A2A2A0D0A00000000D0
:1018A00041542B43475245473F0D0A002B434752B3
:1018B00045473A20302C31002B43475245473A20C8
:1018C000302C350041542B43474154543F0D0A00FE
:1018D0002B43474154543A203100000070B5044670
:1018E0000D464FF480713448FEF78BFC224633A13D
:1018F000314803F077FA304802F0BCFE4FF4FA703A
:1019000000F0BFFC32A13348FEF786FC3249086084
:1019100000203249086018E030480068401C2F4918
:1019200008602BA12B48FEF777FC2B490860642048
:1019300000F0A7FC29480068642806DD002027493C
:10194000086027A003F024FA03E023480068002879
:10195000E2D000BF284602F08DFE4FF4FA7000F08E
:1019600090FC23A11B48FEF757FC1B490860002090
:101970001A49086018E019480068401C17490860B7
:101980001BA11448FEF748FC13490860642000F0CE
:1019900078FC12480068642806DD00200F490860C2
:1019A00014A003F0F5F903E00B4800680028E2D02A
:1019B00000BF00F037FC70BD0F03002041542B43E3
:1019C000495053454E443D302C25730D0A0000000C
:1019D0003E0000008C000020140000201C000020AD
:1019E0002A2A2A2A4E4F203E2A2A2A2A0D0A000095
:1019F0004F4B00002A2A2A2A53454E442045525272
:101A00004F522A2A2A2A0D0A000000002DE9F04F21
:101A100093B0044601F028F8F7A002F02BFE4FF433
:101A2000FA7000F02EFCF6A1F648FEF7F5FBF64939
:101A300008600EE000F0F6FBEFA002F01BFE4FF492
:101A4000FA7000F01EFCEEA1EE48FEF7E5FBEE4951
:101A50000860ED4800680028ECD0ECA003F098F98D
:101A600000F0E0FBEFA002F005FE4FF4FA7000F08A
:101A700008FCF0A1E348FEF7CFFBE34908600EE065
:101A800000F0D0FBE7A002F0F5FD4FF4FA7000F093
:101A9000F8FBE8A1DB48FEF7BFFBDB490860DA484A
:101AA00000680028ECD0E6A1D648FEF7B5FBD64981
:101AB000086008460068002824D100F0B3FBE4A0C9
:101AC00002F0D8FD40F6B83000F0DBFBCCA1CD48E9
:101AD000FEF7A2FBCC4908600EE000F0A3FBDCA0FF
:101AE00002F0C8FD4FF4FA7000F0CBFBDCA1C54852
:101AF000FEF792FBC4490860C34800680028ECD098
:101B000000F090FB00F0B0FFD7A002F0B3FD40F66C
:101B1000B83000F0B6FBD7A1BA48FEF77DFBBA4952
:101B200008600020D54908601FE0D4480068401CC8
:101B3000D249086000F076FBCBA002F09BFD40F696
:101B4000B83000F09EFBCBA1AE48FEF765FBAE4976
:101B50000860CA480068072802D100F085FF04E049
:101B6000C64800680E2800D103E0A7480068002896
:101B7000DBD000BF00F056FB00F076FFC0A002F003
:101B800079FD4FF4FA6000F07CFB9DA19D48FEF7C3
:101B900043FB9D4908600EE000F044FBB8A002F052
:101BA00069FD4FF4FA7000F06CFB95A19548FEF7C3
:101BB00033FB95490860944800680028ECD000F099
:101BC00031FBB3A002F056FD4FF4FA7000F059FB60
:101BD0008BA18C48FEF720FB8B4908600EE000F0DB
:101BE00021FBABA002F046FD4FF4FA7000F049FB78
:101BF00083A18448FEF710FB83490860824800688F
:101C00000028ECD000F00EFBA6A002F033FD40F659
:101C1000B83000F036FBA7A17A48FEF7FDFA7A4902
:101C200008600020954908603BE094480068401C2B
:101C30009249086000F0F6FA9AA002F01BFD4FF4FA
:101C40007A7000F01EFB9BA16E48FEF7E5FA6E4924
:101C500008608A4800680A2817D0884800681E284B
:101C600013D08648006832280FD084480068462880
:101C70000BD0824800685A2807D0804800686E2838
:101C800003D07E480068822802D100F0EDFE08E013
:101C90007A480068962804D100F0E6FE13B0BDE84B
:101CA000F08F594800680028BFD000F0DDFE00200A
:101CB0001090119012900D900E900F90002582467A
:101CC000514800684F49401A821E2C214D4801F0AE
:101CD0009FF905463DB16D1C284603F014FD0746EB
:101CE000FEF7C6FC10904848006800F1020A504612
:101CF00003F009FD0746FEF7BBFC0D900025AA4640
:101D000000F090FA67A002F0B5FC4FF47A7000F092
:101D1000B8FA68A13B48FEF77FFA3B49086000200B
:101D20005649086018E055480068401C534908604F
:101D300000F078FA5BA002F09DFC4FF47A7000F09E
:101D4000A0FA5CA12F48FEF767FA2F4908604B48BC
:101D500000680A2800D1A1E72B4800680028E2D0DB
:101D6000294800682749401A821E2C21254801F085
:101D70004FF905463DB16D1C284603F0C4FC0746EB
:101D8000FEF776FC11902048006800F1020A5046E8
:101D900003F0B9FC0746FEF76BFC0E900025AA463F
:101DA00000F040FA3FA002F065FC4FF47A7000F0BA
:101DB00068FA40A11348FEF72FFA13490860002083
:101DC0002E49086078E02D480068401C2B490860C7
:101DD00000F028FA33A002F04DFC4FF47A7000F0C6
:101DE00050FA34A10748FEF717FA0749086023485C
:101DF00000680A2860D151E741540D0A0000000034
:101E00004F4B00008C000020140000202A2A2A2AB0
:101E1000415420205445535420204F4B2A2A2A2A2B
:101E20000D0A000041542B43474E53535057523F25
:101E30000D0A00002B43474E53535057523A0000AF
:101E40002B43474E53535057523A20310000000065
:101E500041542B43474E53535057523D310D0A00C6
:101E6000524541445921000041542B4341475053AE
:101E70000D0A000073756363657373001C00002016
:101E800041542B43475053434F4C440D0A0000002C
:101E900041542B43474E5353494E464F3D300D0A54
:101EA0000000000041542B43474E5353494E464FC8
:101EB0000D0A00004E2C000067480068002882D000
:101EC000654800686549401A821E2C21634801F06C
:101ED0009FF805463DB16D1C284603F014FC0746EB
:101EE000FEF7C6FB12905C48006800F1020A5046FB
:101EF00003F009FC0746FEF7BBFB0F9058A15046C4
:101F0000FEF78AF9861C002E51D03046FEF7FAF90A
:101F10008046F01DFEF7F6F983462C2102A8FEF755
:101F200070F9642098FBF0F100FB11806430079099
:101F3000642098FBF0F0642190FBF1F201FB1200A9
:101F4000401E069042F2107098FBF0F0059042F2AD
:101F500010709BFBF0F00830049064209BFBF0F0C5
:101F600090FBF1F201FB1200039064209BFBF0F167
:101F700000FB11B0029002A8FEF7D6F8019001A86C
:101F8000FEF71CFC07461FB936A002F001FF85E6EC
:101F9000387D64382070387C401C6070387BA070BD
:101FA000387A2071387960713878A07100BF4FF0AD
:101FB0000009002712E010A951F827000021FEF7C0
:101FC00073FB0AD00DA951F827000021FEF76CFB26
:101FD00003D009F1010000F0FF097F1C032FEADBA9
:101FE000B9F1030F2FD1DDE91001FEF798F90B903D
:101FF0001299FEF794F922490C90FEF71AFA8346DB
:10200000FEF70AFB07463A460B461EA11F4802F0A0
:10201000E9FEDDE90D01FEF782F90B900F99FEF75D
:102020007EF917490C90FEF704FA8346FEF7F4FA9E
:1020300007463A460B4613A11448103002F0D2FE70
:1020400013A002F0A5FE0025AA4600F0EBF800F070
:102050000BFD00BF22E60000140000208C000020D1
:10206000450000002A2A2A2A525443205550444150
:102070005445204552524F522A2A2A2A0D0A00005E
:1020800000004040252E366600000000B70F0020FB
:102090002A2A2A2A474E5353204745542A2A2A2AB5
:1020A0000D0A00002DE9F04107461DA002F0E2FAFA
:1020B0004FF4FA7000F0E5F81CA11E48FEF7ACF8EA
:1020C0001D4908600EE000F0ADF815A002F0D2FA4C
:1020D0004FF4FA7000F0D5F814A11648FEF79CF8FA
:1020E00015490860144800680028ECD013A1114875
:1020F000FEF792F8041E00D0641D15213846FEF745
:1021000080F83D46002605E014F8010B05F8010BA8
:10211000701CC6B2142EF7DB00F084F8BDE8F08125
:1021200041542B4349434349440D0A002B4943433F
:1021300049443A008C000020140000204349443AEE
:102140000000000010B513A002F094FA4FF4FA70EA
:1021500000F097F8134914A002F01AFE14A11148D8
:10216000FEF75AF8154908600EE000F05BF814A07D
:1021700002F080FA4FF4FA7000F083F814A10948D5
:10218000FEF74AF80D4908600C4800680028ECD0BA
:1021900010BD000041542B4349504F50454E3F0D58
:1021A0000A0000008C00002025730D0A00000000CA
:1021B0002B4349504F50454E3A0000001400002078
:1021C00041542B4E45544F50454E0D0A000000001F
:1021D0004E6574776F726B20697320616C726561F4
:1021E0006479206F70656E656400000070B5034609
:1021F0000C464FF6FF7100220FE0985C80EA112137
:10220000002507E001F00106490816B14AF2010075
:1022100041406D1C082DF5D3521CA242EDD388B26B
:1022200070BD000010B5084802F0B2FD642000F057
:1022300028F800200449C1F804014FF480710248D5
:10224000FDF7DFFF10BD00008C0000207047014645
:102250000A2091FBF0F200FB12100A2291FBF2F22D
:1022600040EA0210C0B2704701460A2091FBF0F22A
:1022700000FB12100A2291FBF2F240EA0210C0B2F7
:10228000704700B5034603E04FF47A7000F005F89C
:10229000181EA3F10103F7D100BDC1004FF0E022E9
:1022A0005161002191610521116100BF4FF0E021D2
:1022B000096901F480310029F8D004214FF0E022AF
:1022C0001161704708B50121082001F02FFA4FF481
:1022D0008070ADF8000003208DF8020014208DF806
:1022E00003006946084800F011F84FF40070ADF89B
:1022F000000003208DF8020014208DF803006946C9
:10230000014800F003F808BD000C01402DE9F04140
:10231000024600250026002000230024002791F813
:1023200003C00CF00F0591F803C00CF0100CBCF1C9
:10233000000F03D091F802C04CEA050591F800C0E7
:10234000BCF1000F31D0146800202BE04FF0010CDD
:102350000CFA00F3B1F800C00CEA03069E4220D14B
:1023600083004FF00F0C0CFA03F7BC4305FA03FC93
:102370004CEA040491F803C0BCF1280F06D14FF0D9
:10238000010C0CFA00FCC2F814C00AE091F803C07A
:10239000BCF1480F05D14FF0010C0CFA00FCC2F85B
:1023A00010C0401C0828D1D31460B1F800C0BCF1A3
:1023B000FF0F34DD546800202EE000F1080C4FF0D0
:1023C000010808FA0CF3B1F800C00CEA03069E42BB
:1023D00021D183004FF00F0C0CFA03F7BC4305FA30
:1023E00003FC4CEA040491F803C0BCF1280F05D1AA
:1023F00000F1080C08FA0CF8C2F8148091F803C038
:10240000BCF1480F07D100F1080C4FF0010808FAA1
:102410000CF8C2F81080401C0828CED35460BDE8E8
:10242000F0810000F0B50A460023002400210025B9
:1024300000F00046B6F1004F02D11D4EF16901E0F7
:102440001B4E7168C0F3034583B200F44016B6F525
:10245000401F08D121F07061154E766826F0706635
:10246000134F7E6012E000F48016B6F5801F06D18F
:10247000032606FA05F4A14341F0706106E0460D1B
:10248000360103FA06F6B14341F0706122B1460D00
:10249000360103FA06F6314300F00046B6F1004F6C
:1024A00002D1034EF16101E0014E7160F0BD000008
:1024B000000001400246002093680B400BB1012050
:1024C00000E00020704741617047016170470AB128
:1024D000016100E04161704708B50121042001F06D
:1024E00025F90121102001F021F910208DF80300B9
:1024F000C002ADF8000003208DF8020069460D48C7
:10250000FFF704FF4FF400410A48FFF7DCFF1020FB
:102510008DF803008001ADF8000003208DF8020063
:1025200069460548FFF7F2FE4FF480610248FFF765
:10253000CAFF08BD000801400010014010B54FF46B
:1025400080610648FFF7C1FF40F6B830FFF799FEFB
:102550004FF480610148FFF7B6FF10BD0010014045
:1025600010B54FF480610648FFF7AFFF6420FFF716
:1025700088FE4FF480610248FFF7A5FF10BD000000
:10258000001001402DE9F04FADF5397D0446894634
:102590009246DDF808B3B4A9204603F0F3F8B4AAD4
:1025A00056A1AFA802F01EFC4FF400712FA8FDF752
:1025B00028FED4F82B00FEF72FF805460E46D4F877
:1025C0001700FEF729F807468846D4F82600FEF7DC
:1025D00023F8CDE92A01D4F82100FEF71DF8CDE952
:1025E0002801E069FEF718F8CDE92601D4F81200B9
:1025F000FEF712F8CDE92401D4F80D00FEF70CF82F
:10260000CDE92201A068FEF707F8CDE920012F20CF
:10261000005DCDE91C561E90E07ECDE918781A9039
:102620002A20005D1690DDE92A01CDE9140125205C
:10263000005D1290DDE92801CDE910012020005D48
:102640000E90DDE92601CDE90C01A07D0A90DDE9BF
:102650002401CDE90801607C0690DDE92201CDE985
:102660000401207B0290DDE92001B4AACDE900013C
:1026700025492FA802F0B6FB2FA80521CDE901A915
:10268000CDE9031040F2DB701623AFAA1FA1009022
:102690002E4802F0A7FB2D48FDF7DAFD85B229464A
:1026A0002A48FFF7A3FD2E902FA8FDF7D1FD80B299
:1026B0002D902648FDF7CCFD0A3080B22C902C9846
:1026C000584508DD22A002F063FB4FF0FF300DF506
:1026D000397DBDE8F08F4FF480612148FDF791FD11
:1026E0001A48FDF7B5FD05462E98184B2A461DA140
:1026F00000901B4802F076FB0020E8E7252E3134DD
:102700007330303000000000305D0008514E3D2530
:10271000733B53543D25643B434E3D25643B50572A
:102720003D25733B4D4E3D25733B466C61673D2512
:10273000643B504E554D3D313B504E4F3D313B4338
:10274000503D262625732626000000000F08002095
:10275000BBBAB3E5C7F8B2BBD7E30D0A000000006F
:102760000F0400202323253034642573253034588A
:102770000D0A000000BFFEE770B504462046FDF7D5
:102780004BFF054600220A4BFDF75AFF03D80020F5
:10279000084908700BE008492046FDF78FFF03D871
:1027A00001200449087002E002200249087070BD4F
:1027B00000002540670000200000204110B54FF4C4
:1027C00080700C49086000F02FF94FF4007009493F
:1027D000086000F029F94FF480700649091F08606D
:1027E00000F022F94FF480700249086000F01CF9F3
:1027F00010BD0000140C014010B54FF480700C495E
:10280000086000F011F94FF400700949091F0860D1
:1028100000F00AF94FF480700549091F086000F0C4
:1028200003F94FF480700249086000F0FDF810BD14
:10283000140C014070B508250024A8011249086055
:1028400016E06006040E4FF480700F49091D086001
:1028500000F0EAF84FF480700B49086000F0E4F8EB
:1028600009480838006800F4007008B144F0010419
:10287000281EA5F10101CDB2E3D14FF480700249C9
:10288000091D0860204670BD100C014070B504465B
:1028900008251DE04FF480701249086000F0C4F86C
:1028A00004F0800028B14FF400700E49091F086041
:1028B00003E04FF400700B4908606006040E00F05E
:1028C000B3F84FF480700749091F086000F0ACF8B6
:1028D000281EA5F10101CDB2DCD14FF48070014971
:1028E000086070BD140C014010B54FF40070114920
:1028F000086000F099F84FF480700E49086000F00D
:1029000093F80C480838006800F4007008B90020FB
:1029100010BD4FF400700749091D086000F084F8ED
:102920004FF480700349091D086000F07DF8012014
:10293000EEE70000100C014010B54FF480700C4918
:10294000086000F071F84FF400700949086000F069
:102950006BF84FF480700649091F086000F064F8B6
:102960004FF400700249091F086000F05DF810BDC7
:10297000140C014010B54FF480701249086000F04B
:1029800053F84FF400700F49091F086000F04CF82D
:102990004FF480700B49091F086000F045F80948A2
:1029A0000C38006800F4007028B14FF480700549BD
:1029B0000860002010BD4FF48070024908600120BB
:1029C000F8E70000140C01402DE9F04104460E46E2
:1029D00017461D46642C01D102F0A9F9FFF784FFC8
:1029E0002046FFF753FFFFF7C5FF20B9FFF7A4FF0D
:1029F0000020BDE8F0813046FFF748FFFFF7BAFF3F
:102A000005E015F8010BFFF741FFFFF7D7FE381E71
:102A1000A7F10101CFB2F4DCFFF78EFF642C01D1E6
:102A200002F062F90120E4E70C2001E0411EC8B287
:102A30000028FBD1704710B51420FFF72EFC10BD05
:102A400010B5FFF73FFC10BD10B545F2555000F032
:102A50001FF8062000F010F840F6FF7000F012F8A2
:102A600000F002F810BD00004AF6AA2001490860F3
:102A70007047000000300040014948607047000086
:102A8000003000400149886070470000003000407D
:102A900001490860704700000030004008B501217E
:102AA000102000F043FE10208DF803004001ADF827
:102AB000000003208DF8020069460448FFF726FC59
:102AC0004FF400710148FFF700FD08BD0010014000
:102AD00008B50121082000F029FE10208DF8030020
:102AE0000002ADF8000003208DF80200694604489A
:102AF000FFF70CFC4FF480510148FFF7E6FC08BDDE
:102B0000000C01402DE9F047DEB007460C461546A3
:102B10005AA9384602F036FE5AAA27A155A802F053
:102B200061F9402145A8FDF76CFB4FF4807105A8C1
:102B3000FDF767FB234901F110005AAB22A2CDE952
:102B40000001402145A802F033F945A808212B4691
:102B500055AACDE90041029024A105A802F042F94E
:102B600005A8FDF775FB86B2314605A8FFF73EFBC9
:102B7000804645A8FDF76CFB1FFA80F94FF4806191
:102B80002748FDF73EFB05AB324626A12448CDF889
:102B9000008002F027F92248FDF75AFB8246524690
:102BA00024A103A802F01EF91D4903A8FEF796FE12
:102BB0005EB0BDE8F0870000252E31347330303030
:102BC00000000000B70F00204461746154696D6516
:102BD0003D25733B4C6E673D25732C4C61743D2540
:102BE000733B53423152533D31000000514E3D255D
:102BF000733B53543D37333B434E3D333034313BCD
:102C000050573D25733B4D4E3D25733B466C6167E8
:102C10003D25643B43503D262625732626000000B3
:102C20000F040020232325303464257325303458C5
:102C30000D0A00002564000008B50121102000F0F5
:102C400075FD14208DF803004FF4C070ADF800003E
:102C500003208DF8020069460448FFF757FB4FF444
:102C6000C0710248FFF731FC08BD000000100140B0
:102C70002DE9F04105460F46164600F0FAF8A0206F
:102C800000F0D5F800F096F8281200F0D0F800F027
:102C900091F8E8B200F0CBF800F08CF8012804D1EC
:102CA00000F0FBF80120BDE8F08100F0E2F8A1207F
:102CB00000F0BDF800F07EF8012803D100F0EDF837
:102CC0000120F0E7002410E000F089F83855711E6B
:102CD000A14201D1012100E00021084600F098F84E
:102CE0000A20FFF7DAFA601CC4B2B442ECDB00F051
:102CF000D4F80020D7E72DE9F04104460E461746E8
:102D000000F0B7F810B10120BDE8F081A02000F07C
:102D10008EF800F04FF8012803D100F0BEF8012032
:102D2000F2E7201200F083F800F044F8E0B200F07F
:102D30007EF800F03FF8002506E0705D00F077F8BF
:102D400000F038F8681CC5B2BD42F6DB00F0A5F80B
:102D50000520FFF796FA0020D6E700BFFEE730B562
:102D600002460B464FF6FF70002112E0545C6040B3
:102D700000240AE000F0010525B140104AF20105E7
:102D8000684000E04010651CECB2082CF2DB4C1CE3
:102D9000A1B29942EADB30BD10B54FF4807104480E
:102DA000FFF788FB04460A20FFF777FA204610BD9C
:102DB0000010014010B5002000F07EF8012000F066
:102DC00087F8012000F078F80A20FFF766FAFFF78D
:102DD000E3FF0446002000F06FF8204610BD70B5F8
:102DE0000025012000F074F800240DE0012000F01F
:102DF00063F8FFF7D1FF10B1802020410543002088
:102E000000F05AF8601CC4B2082CEFDB284670BDF5
:102E100010B50446002000F04FF8204600F058F8A6
:102E2000012000F049F8002000F046F810BD70B510
:102E30000546002417E0002000F03EF880212141E3
:102E4000294009B1012100E00021084600F040F8C6
:102E50000A20FFF722FA012000F02EF80A20FFF7DF
:102E60001CFA601CC4B2082CE5DB002000F024F83A
:102E700070BD10B5012000F02BF8012000F01CF807
:102E8000FFF78AFF08B9012010BD002000F020F8EC
:102E9000002000F011F80020F6E710B5002000F047
:102EA0000BF8002000F014F8012000F005F80120D4
:102EB00000F00EF810BD000010B504462246802137
:102EC0000248FFF704FBFFF7B6FD10BD00100140FC
:102ED00010B5044622464FF480710348FFF7F7FA15
:102EE000FFF7A9FD10BD00000010014008B5012149
:102EF000182000F01BFC10208DF803004FF4404018
:102F0000ADF8000003208DF8020069461248FFF773
:102F1000FDF910208DF803004020ADF800000320DB
:102F20008DF8020069460D48FFF7F0F948208DF84A
:102F300003004FF40050ADF8000003208DF80200AC
:102F400069460548FFF7E2F9012000F055F8002036
:102F500000F046F808BD0000000C014000100140E0
:102F600010B54FF400510248FFF7A4FA10BD00005D
:102F7000000C014010B5002000F03EF810BD10B567
:102F8000012000F039F810BD70B505460026002478
:102F900017E080212141294009B1012100E00021F1
:102FA000084600F013F8012000F01AF8FFF7D8FFE8
:102FB00010B1802020410643002000F011F8601C71
:102FC000C4B2082CE5DB304670BD000010B50446E5
:102FD000224640210148FFF77AFA10BD0010014057
:102FE00010B5044622464FF400410248FFF76FFA3D
:102FF00010BD0000000C014010B5044622464FF4FD
:1030000080410248FFF763FA10BD0000000C014048
:1030100030B503460024002004E01D5C8D4200D141
:103020001C18401C904202D21D5C002DF5D1204698
:1030300030BD704770B5002100230F22C47804B35F
:10304000154C246804F4E064C4F5E064210AC1F17D
:103050000403CA40447804FA03F1847814402143FD
:1030600009010E4C0678A155047804F01F050124CF
:10307000AC4005786D11AD0005F1E025C5F80041C3
:1030800009E0047804F01F050124AC40044D0678E3
:10309000761145F8264070BD0CED00E000E400E03C
:1030A00080E100E002490143024A116070470000DC
:1030B0000000FA050CED00E010B54FF40071024875
:1030C000FFF703FA10BD00000010014010B54FF4E7
:1030D00000710248FFF7F7F910BD00000010014031
:1030E0001CB50446FFF7C0FC0CA001F051FE01F036
:1030F000D7FA002020600090019000220CA16846C1
:1031000001F070FE082269465001FFF7F4FD0AA0A5
:1031100001F03EFE02F0B4FC1CBD000045524153DC
:10312000452053544152542020202020000000000C
:10313000253038580000000045524153452046498B
:103140004E4953480D0A000010B5FFF78DFC03A04F
:1031500001F01EFE02F094FC10BD000054686520D2
:10316000706172616D6574657228475053292068DB
:103170006173206E6F74206265656E207574696C72
:10318000697A65642E0D0A002DE9F05F07460E4648
:10319000DFF8D88036A14046FDF761F830B93346F4
:1031A0001622394633A001F0F3FD49E041463DA027
:1031B00001F0EEFD0024A1460025A3463CA14046B7
:1031C000FDF72AF8041E18D0E41C3B212046FDF729
:1031D00035F8B0F100090CD020213846FDF711F880
:1031E000BA4603E014F8010B0AF8010B4C45F9D379
:1031F00000BF39462FA001F0CBFD32A14846FDF7B4
:103200000BF8051E18D02D1D3B212846FDF716F89A
:10321000B0F1000B0CD020213046FCF7F2FFB24693
:1032200003E015F8010B0AF8010B5D45F9D300BF67
:10323000314626A001F0ACFD28A001F0A9FD00BF99
:10324000202239460020FFF756FD0A20FFF719F823
:10325000202231461046FFF74EFD0A20FFF711F8F5
:1032600002F00EFCFFF700FCBDE8F09F7C0E002092
:10327000000000006D6E3D25733B73743A25643B7E
:103280007077643D25733B6D696E3D353B74656EAB
:103290003D303B686F75723D303B6461793D303B3A
:1032A0000D0A0000706172616D3A25730D0A00000D
:1032B0006D6E3D004D4E636F6E6669673A25730D06
:1032C0000A0000007077643D00000000505744631E
:1032D0006F6E6669673A25730D0A000054686520B1
:1032E00075706C6F61642074696D652835206D6937
:1032F0006E2920616E64205354283232292068617F
:103300007665206E6F74206265656E2061646A75F3
:10331000737465640D0A00002DE9F05F07460D46E1
:10332000FFF7A2FBDFF8C89032A14846FCF797FFF1
:1033300028B92A46394630A001F02AFD44E0494622
:1033400032A001F025FD0024A0460026A34632A1AC
:103350004846FCF761FF041E18D0241D3B2120467F
:10336000FCF76CFFB0F100080CD020213846FCF7C8
:1033700048FFBA4603E014F8010B0AF8010B444574
:10338000F9D300BF394626A001F002FDB8F1000FC5
:1033900019D008F107063B213046FCF74FFFB0F18A
:1033A000000B0CD020212846FCF72BFFAA4603E097
:1033B00016F8010B0AF8010B5E45F9D300BF294648
:1033C0001BA001F0E5FC00BF202239464020FFF79A
:1033D00092FC0A20FEF755FF202229466020FFF7C5
:1033E0008AFC0A20FEF74DFF02F04AFBBDE8F09F81
:1033F0007C0E0020000000006970313D25733B7099
:103400006F7274313D25733B0D0A0000706172616B
:103410006D3A25730D0A00006970313D000000000F
:103420004950636F6E6669673A25730D0A000000A4
:10343000504F5254636F6E6669673A25730D0A00E8
:1034400010B5FFF711FB03A001F0A2FC02F018FB7E
:1034500010BD000054686520706172616D6574650F
:10346000722853414D504C452920686173206E6F7E
:1034700074206265656E207574696C697A65642E66
:103480000D0A000010B586B0FFF7EEFA0020049098
:103490000590082204A901F03AF925A001F078FC72
:1034A000002405E004A8015D25A001F071FC641C66
:1034B000082CF7DB24A001F06BFC002001F049F997
:1034C00022A207CA01AB07C3082201A9002001F00C
:1034D000F8F8002004900590082204A901F017F9DB
:1034E0001DA001F055FC002405E004A8015D14A016
:1034F00001F04EFC641C082CF7DB13A001F048FC23
:103500009DF81000312807D19DF81700382803D105
:1035100016A001F03DFC02E017A001F039FC0020EC
:1035200001F017F902F0ACFAFFF79EFA06B010BDF1
:103530004F726967696E616C20446174613A000082
:1035400025303278200000000D0A0000313233347B
:1035500035363738000000005265616420577269C3
:103560007474656E20446174613A0000546573742C
:10357000204F6B0D0A000000546573742045727271
:103580006F720D0A000000007FB50446FFF76CFA69
:10359000204E21A13046FCF762FE70B9A079617916
:1035A0002279CDE900210290A3786278207800F595
:1035B000FA611AA001F0ECFB28E03046FCF7A2FE0D
:1035C000039020A0039901F0E3FB03A8FDF7F6F8B0
:1035D0000546287D64382070287C401C6070287B5C
:1035E000A070287A2071287960712878A071A0795C
:1035F00061792279CDE900210290A3786278207860
:1036000000F5FA6112A001F0C3FB00BF02F038FA26
:103610007FBD00007C0E00200000000041542B54B0
:10362000494D453A253034642D253032642D2530FE
:10363000326420253032643A253032643A25303203
:10364000640D0A0074696D653A25640D0A00000076
:103650004E45572054494D453A2534642D25303286
:10366000642D2530326420253032643A25303264AE
:103670003A253032640D0A00704700002DE9F0470A
:10368000FDF73EFE81464846FCF7C1FF07460C4960
:10369000FCF7CFFE06460B49FCF7CBFE05460A4970
:1036A000FCF795FE04462046FCF7B6FF0746074A9E
:1036B000074BFCF7FCFE0546FCF7DAFFBDE8F08798
:1036C00000F07F450000204100007D439A999999C0
:1036D0009999D93F01460020034A506820F44040A0
:1036E00008435060704700000010024029B1064AAC
:1036F000D2690243044BDA6104E0034AD26982438F
:10370000014BDA61704700000010024029B1064AFF
:1037100012690243044B1A6104E0034A12698243AE
:10372000014B1A61704700000010024029B1064A9F
:1037300092690243044B9A6104E0034A926982430E
:10374000014B9A61704700000010024029B1064AFF
:10375000D2680243044BDA6004E0034AD268824331
:10376000014BDA6070470000001002402DE9F04183
:1037700000210022002500230026002400278C467B
:10378000DFF86081D8F8048008F00C0121B1042929
:1037900007D0082959D109E0DFF84C81C0F8008032
:1037A00058E0DFF84481C0F8008053E0DFF834814E
:1037B000D8F8048008F47012DFF82881D8F8048063
:1037C00008F48035920C0D2A01D0921C00E00622EC
:1037D00035B9DFF8188102FB08F8C0F8008033E043
:1037E000DFF80081D8F82C8008F48036DFF8F48008
:1037F000D8F82C8008F00F0808F1010446B9DFF86A
:10380000E880B8FBF4F808FB02F8C0F800801BE081
:10381000DFF8D080D8F82C80C8F3031808F101072E
:10382000DFF8C080D8F82C80C8F3032808F1020C18
:10383000DFF8B480B8FBF7F808FB0CF8B8FBF4F835
:1038400008FB02F8C0F8008004E0DFF89C80C0F8B4
:10385000008000BF00BFDFF88C80D8F8048008F03B
:10386000F0010909DFF8888018F80130D0F80080ED
:1038700028FA03F8C0F80480DFF86880D8F80480DC
:1038800008F4E061090ADFF8688018F80130D0F820
:10389000048028FA03F8C0F80880DFF84880D8F8D8
:1038A000048008F46051C90ADFF8448018F8013038
:1038B000D0F8048028FA03F8C0F80C80DFF82480E0
:1038C000D8F8048008F44041890BDFF8288018F804
:1038D0000130D0F80C80B8FBF3F8C0F81080BDE8D8
:1038E000F08100000010024000127A0000093D0043
:1038F000000000201000002010B588B0044601210F
:103900008804FFF7F3FE01210820FFF70FFF0121D4
:103910002020FFF70BFF18208DF81F004FF4806068
:10392000ADF81C0003208DF81E0007A92648FEF7FD
:10393000EDFC48208DF81F004FF40060ADF81C002E
:1039400003208DF81E0007A91F48FEF7DFFC039433
:103950000020ADF818000C20ADF816000020ADF8DE
:103960001400ADF81200ADF8100003A9174800F0DC
:103970000BFE012240F22551144800F0E0FD272003
:103980008DF8080001208DF80B008DF80900022049
:103990008DF80A0002A8FFF74DFB01210B4800F04B
:1039A0003DFD0420ADF8040010208DF80700032031
:1039B0008DF8060001A90648FEF7A8FC042104487A
:1039C000FEF781FD08B010BD000C0140004800402A
:1039D0000014014010B504210148FEF774FD10BD2C
:1039E0000014014070B505460E4600F025F84FF46E
:1039F000FA70FEF752FC00240CE000BF80210D4855
:103A000000F066FD0028F9D0295D0A4800F02DFE7F
:103A1000601CC4B2B442F0DB00BF8021054800F056
:103A200057FD0028F9D00220FEF72BFCFFF7D2FF4C
:103A300070BD00000048004010B504210148FEF7A9
:103A400044FD10BD0014014070B50446FEF74CFF64
:103A50006420FEF71BFFFEF78DFF18B9FEF76CFF21
:103A6000002070BD0020FEF711FFFEF783FFFEF778
:103A70003BFF6520FEF70AFFFEF77CFFFEF7DAFE4C
:103A80000546FDF708FDA071FEF798FEFEF7D2FE91
:103A90000546FDF700FD6071FEF790FEFEF7CAFED9
:103AA00000F07F052846FDF7F6FC2071FEF786FE44
:103AB000FEF7C0FE0546FDF7EEFCE070FEF77EFE69
:103AC000FEF7B8FE0546FDF7E6FCA070FEF776FEB1
:103AD000FEF7B0FE0546FDF7DEFC6070FEF76EFEF9
:103AE000FEF7A8FE0546FDF7D6FC2070FEF784FE23
:103AF000FEF722FF0120B4E770B5044601F017F984
:103B0000FEF7F2FE6420FEF7C1FEFEF733FF18B9A0
:103B1000FEF712FF002070BD0020FEF7B7FEFEF793
:103B200029FFA079382808DCA179C91CC8B2FEF7A2
:103B30008EFB0546FEF7AAFE02E05920FEF7A6FE20
:103B4000FEF718FF6079FEF782FB0546FEF79EFE42
:103B5000FEF710FF2079FEF77AFB40F0800528463B
:103B6000FEF794FEFEF706FFE078FEF770FB0546D1
:103B7000FEF78CFEFEF7FEFEA078FEF768FB05461A
:103B8000FEF784FEFEF7F6FE6078FEF760FB054662
:103B9000FEF77CFEFEF7EEFE2078FEF758FB0546AA
:103BA000FEF774FEFEF7E6FEFEF7C6FE01F09CF897
:103BB0000120B0E71CB500200E49087008200E490E
:103BC00008700EA103C9CDE9000108216846FFF77E
:103BD00009FF9620FEF755FB08220A496846FCF7C4
:103BE0004CFB28B14FF4FA70FEF74BFBFFF7E2FFF6
:103BF0001CBD000024000020250000200106003725
:103C0000000378053F0E00201FB5044600201F4921
:103C1000087008201E4908701E4B0FCB8DE80F005E
:103C20002078FEF721FB8DF807006078FEF71CFB7B
:103C30008DF80800A078FEF717FB8DF809002079B1
:103C4000FEF712FB8DF80A006079FEF70DFB8DF888
:103C50000B00A079FEF708FB8DF80C000D216846DB
:103C6000FFF77DF80C490880084600788DF80D00B4
:103C70000846008800128DF80E000F216846FFF7F5
:103C8000B1FE9620FEF7FDFA1FBD000024000020C3
:103C900025000020845C00086400002010B500208E
:103CA0001D49087019201D49087008211C48FFF79C
:103CB00099FE9620FEF7E5FA1A480078012821D1EE
:103CC0001848407803281DD14E2017490870192242
:103CD00014491648FCF77CFA0520FEF7D2FA13497E
:103CE0000A79C97802EB0120FCF788FC04461049E8
:103CF000FCF79FFB0F49C1F82B001A210948FCF77C
:103D000080FA02E042200849087007480178094813
:103D100080F82F1010BD0000240000202500002096
:103D20005C0000203F0E002066000020FE0E0020F8
:103D3000000020410F0E002010B509A001F028F866
:103D4000002406E00848015D08A001F021F8601C8D
:103D5000C4B2192CF6DB07A001F01AF810BD000060
:103D60005261696E3A000000FE0E00203078253066
:103D7000325820000D0A00002DE9F0410546884622
:103D800016461F46069C202229460020FEF770FF9B
:103D90000A20FEF776FA202241461046FEF768FF19
:103DA0000A20FEF76EFA202231464020FEF760FF1F
:103DB0000A20FEF766FA202239466020FEF758FFF7
:103DC0000A20FEF75EFA082221465001FEF750FF56
:103DD0000A20FEF756FAE079302802D1A07930287F
:103DE00006D0002002E030212154401C0828FADBD4
:103DF000102209495001FEF73BFF0A20FEF741FA65
:103E00001022054910314FF40870FEF731FF0A20E7
:103E1000FEF737FABDE8F081B70F0020704710B504
:103E200000F002F810BD00000CB5002001900090D9
:103E30002548006840F480302349086000BF2248CC
:103E4000006800F4003000900198401C0190009838
:103E500018B90198B0F5A06FF1D11B48006800F4C3
:103E6000003010B10120009001E000200090009887
:103E7000012828D11548006840F010001349086057
:103E80000846006820F003000860084600680860E3
:103E90000D4840680C49486008464068486008463C
:103EA000406848600846406820F0030048600846C3
:103EB000406840F00100486000BF0348406800F0DF
:103EC0000C000428F9D10CBD001002400020024073
:103ED0003EB505460C4620788DF8000060788DF8D8
:103EE0000100A0788DF80200E0788DF803002079B9
:103EF0008DF8040060798DF80500A0798DF8060032
:103F00008DF80750FF208DF80800D2208DF80900A9
:103F10006B460A2207216420FEF756FD3EBD70471E
:103F200010B51648006840F00100144908600846C2
:103F30004068134908401149486008460068114923
:103F400008400E4908600846006820F48020086098
:103F50000846406820F4FE0048600846006820F0EB
:103F6000A05008604FF47F0088600020C862FFF70F
:103F700056FF4FF000600449086010BD0010024079
:103F80000000FFF0FFFFF6FE08ED00E010B5012194
:103F9000880700F059F801283AD11E48FFF754FD70
:103FA0001C484079052190FBF1F201FB1200C0B9D9
:103FB00018488079A8B90020174908701548407939
:103FC00078B900201549087012484078012808D1B6
:103FD00010488078012804D10E48007908B9FFF70D
:103FE000E9FD0C49887900EBD0714910A0EB410143
:103FF00029B94FF480510A48FEF767FA04E04FF4FC
:1040000080510748FEF75FFA0121880700F00DF89C
:1040100010BD00007500002068000020690000202D
:10402000000C0140CA4302827047CA4302827047B3
:1040300021B1028842F00102028004E002884FF6BA
:10404000FE731A400280704730B5024600200023FC
:104050000024158A05EA0103958905EA010413B1D4
:104060000CB1012000E0002030BD1AB183890B4360
:10407000838102E083898B438381704701894FF6F6
:10408000F872114001817047002202881D4B98424E
:104090000ED01D4B98420BD0B0F1804F08D01B4B77
:1040A000984205D01A4B984202D01A4B984204D13C
:1040B0004FF68F731A404B881A43174B984207D01C
:1040C000164B984204D04FF6FF431A40CB881A4350
:1040D00002808B8883850B8803850A4B98420BD01E
:1040E000094B984208D00E4B984205D00D4B984290
:1040F00002D00D4B984201D10B7A038601238382B3
:1041000070470000002C01400034014000040040D2
:1041100000080040000C0040001000400014004067
:104120000040014000440140004801401FB501210A
:104130000846FFF7DBFA4FF08040FFF79FFF0020B3
:10414000ADF80A00ADF8060042F20F70ADF80800B5
:1041500040F21F30ADF8040000208DF80C0001A9DA
:104160004FF08040FFF790FF01218807FFF75AFFCB
:10417000012211469007FFF778FF1C208DF8000000
:1041800001208DF8030002208DF8010001208DF838
:1041900002006846FEF74EFF01218807FFF748FF3F
:1041A0001FBD000070B540F22551104800F09DF988
:1041B000012810D10D4800F053FAC5B20B4800F0A9
:1041C0004FFAC4B2204601F0B3FA40F22551074835
:1041D00000F015F900BF0821044800F079F9012822
:1041E00003D10821014800F001F970BD00380140F9
:1041F00010B50821614800F06BF930B15F4800F05C
:104200002FFA08215D4800F0F1F802215B4800F028
:104210005FF930B1594800F023FA0221574800F005
:10422000E5F840F22441554800F05FF950B1534899
:1042300000F016FA40F22441504800F0E0F8012066
:104240004F49087040F225514C4800F04EF90028C3
:1042500079D040F22551494800F0D1F8474800F0A4
:10426000FFF9C4B24748D0F80411D0F80401401C4B
:10427000444AC2F8040110464454434800780628D2
:1042800075D2DFE800F00309121F3F64412C02D110
:1042900001203D4908706DE0542C03D102203A49B9
:1042A000087001E001F0ECFB64E02B2C07D1032047
:1042B000354908700020354981F8900001E001F08F
:1042C000DFFB57E03A2C0BD104202F490870002067
:1042D0002E4981F8910091F890102C4A505410E02A
:1042E0002A4890F890000F2809DA284991F89000A0
:1042F000411C264A82F8901011460C5401E001F04E
:10430000BFFB37E00D2C0ED105201F4908700D2290
:104310001E4991F89100411C1C4B83F8911003F148
:1043200010010A5412E0194890F891007E280BDA27
:10433000164991F89100411C144A82F8911002F13B
:1043400010010C5402E017E001F09AFB12E00A2C75
:104350000AD10A210D4890F8912010308154012093
:104360000749087002E002E001F08AFB02E001F078
:1043700087FB00BF00BF00BF10BD0000004400402D
:104380005A00002094010020590000206C0E0020EB
:1043900010B540F22551114800F09AF801281BD1C0
:1043A0000E4800F05DF9C4B20D480E490978445436
:1043B0000C480078401C0B490870084600780A49F0
:1043C0000978884202DB00200649087040F2255136
:1043D000024800F00BF800BF10BD0000004800408C
:1043E0003F0E0020240000202500002001F4007270
:1043F000B2F5007F00D100BFCA430280704710B5FC
:104400000022002340F66A14A14200D100BF0A1224
:1044100001249440A3B2DC43048010BD21B1828901
:1044200042F40052828104E082894DF6FF731A4003
:104430008281704710B504462048844209D1012189
:104440008803FFF783F900214FF48040FFF77EF9DE
:1044500032E01B48844209D101214804FFF756F994
:1044600000214FF40030FFF751F925E01548844250
:1044700009D101218804FFF749F900214FF4802078
:10448000FFF744F918E01048844209D10121C8041B
:10449000FFF73CF900214FF40020FFF737F90BE05C
:1044A0000A48844208D101210805FFF72FF90021AD
:1044B0004FF48010FFF72AF910BD000000380140CA
:1044C0000044004000480040004C004000500040C4
:1044D00002460020B1F5007F00D100BF13880B40D9
:1044E0000BB1012000E00020704770B502460024A7
:1044F00000230025002040F66A16B14200D100BF1B
:10450000C1F3421501F01F03012606FA03F3012D42
:1045100002D19689334006E0022D02D1168A33403B
:1045200001E0968A33400C12012606FA04F416883C
:10453000344013B10CB1012000E0002070BDF0B593
:104540000346002400260025002040F66A17B942E1
:1045500000D100BF1846C1F3421401F01F06012725
:1045600007FA06F5012C01D10C3004E0022C01D130
:10457000103000E014301AB107682F43076002E0E2
:104580000768AF430760F0BD2DE9F04786B00546E8
:104590000E460024A24600BFA1460027B08900B104
:1045A00000BF2F462C8A4CF6FF700440F08804436D
:1045B0002C82AC894EF6F3100440B0883189084350
:1045C000718908430443AC81AC8A4FF6FF40044034
:1045D000B0890443AC8201A8FFF7C8F81F4887429E
:1045E00002D1DDF810A001E0DDF80CA0A88900F4EC
:1045F000004040B10AEBCA0000EB0A1031684900E4
:10460000B0FBF1F807E00AEBCA0000EB0A103168D2
:104610008900B0FBF1F86420B8FBF0F00401200938
:10462000642101FB1089A88900F4004040B13220C8
:1046300000EBC900B0FBF1F000F00700044308E014
:10464000322000EB09106421B0FBF1F000F00F0004
:1046500004432C8106B0BDE8F0870000003801401B
:1046600001468888C0F308007047C1F308028280C1
:10467000704700000BE000BF0749098801F04001C6
:104680000029F9D00178044A121D1180401C0178DC
:104690000029F0D1704700000038014000BFFEE75C
:1046A00010B500F087F8FEF765FCC720FEF76CFC3C
:1046B000FEF765FC00F066F810BD10B5FEF716FCBD
:1046C00010BD2DE9F04104460E46174600F072F881
:1046D000FEF750FC0220FEF757FCC4F30740FEF73C
:1046E00053FCC4F30720FEF74FFCE0B2FEF74CFC8E
:1046F000002504E0705DFEF747FC681C85B2BD42F2
:10470000F8DBFEF73CFC00F03DF8BDE8F0812DE958
:10471000F04104460E461746FEF72CFC0320FEF738
:1047200033FCC4F30740FEF72FFCC4F30720FEF769
:104730002BFCE0B2FEF728FC002504E0FF20FEF78A
:1047400023FC70556D1CBD42F8D3FEF718FCBDE884
:10475000F08110B5044600F02DF8FEF70BFC202088
:10476000FEF712FCC4F30740FEF70EFCC4F307206B
:10477000FEF70AFCE0B2FEF707FCFEF700FC00F0D3
:1047800001F810BD10B5FEF7F5FB0520FEF7FCFBA8
:10479000074C02E0641E04B906E0FF20FEF7F4FBBC
:1047A00000F001000028F5D100BFFEF7E8FB10BDC6
:1047B000A086010010B5FEF7DDFB0620FEF7E4FB46
:1047C000FEF7DDFB10BD00007FB504460D46114825
:1047D00011490A6802608A888280897981714FF460
:1047E00080600E4B2A46214600900A48FDF7CAFE1B
:1047F0000A48FBF72DFD0646324609A101A800F044
:10480000F1FA064907A000F0C3FA044901A8FDF730
:1048100065F87FBD0F0E0020750000200F040020FA
:104820002564000025730D0A000000002DE9F04FFB
:10483000DFB0824600205C905D905E904C4800792D
:104840004B498978CDE9001049484378007800F554
:10485000FA6248A15CA800F0C5FA4FF480711CA868
:10486000FBF7CFFC4249D1F82B00FBF7D5FE0446FD
:104870000D463F49C869FBF7CFFE06460F463C4947
:10488000D1F81200FBF7C8FE804689463849D1F8B6
:104890002100FBF7C1FECDE918013549D1F80D0023
:1048A000FBF7BAFECDE9160131498868FBF7B4FE83
:1048B000CDE914012E49D1F81700FBF7ADFECDE983
:1048C00012012B49D1F82600FBF7A6FECDE90A8993
:1048D000CDE90C67CDE90E45CDE91001DDE9180100
:1048E000CDE90801DDE91601CDE90601DDE9140194
:1048F000CDE90401DDE91201CDE90201DDE9100194
:104900005CAACDE9000121491CA800F06BFA1CA8A3
:10491000FBF79EFC401C1FFA80FBBBF5807F06D98D
:104920001BA000F035FA50465FB0BDE8F08FCAF327
:104930000B0010B95046FFF70CFF5A461CA9504611
:10494000FFF7BFFE0AF5807020F07F4A00201A9022
:104950001B90524614A11AA800F044FA08221AA982
:104960005001FEF7C8F90A20FDF78BFC5046DBE743
:104970000F0E0020253034642D253032642D253073
:1049800032642D253032643B00000000385E0008A0
:10499000C6F8CFF3CAFDBEDDD6A1BBBAB3E5B2BB44
:1049A000D7E30D0A00000000253038580000000051
:1049B00010B500203F4908700F203F4908700821BA
:1049C0003E48FFF70FF89620FDF75BFC3C48007867
:1049D000042854D13A484078032850D14E20394910
:1049E00008700F2236493848FBF7F2FB0520FDF727
:1049F00048FC35490A79C97802EB0120FBF7FEFD36
:104A000004463249FBF715FD314988602E498A7901
:104A1000497902EB0120FBF7F1FD04462B49FBF736
:104A200008FD2B49C1F80D0027498A7A497A02EB23
:104A30000120FBF7E3FD04462449FBF7C8FC2449A9
:104A4000C1F8170020490A7AC97902EB0120FBF767
:104A5000D5FD04461F49FBF7ECFC1D49C1F82100B8
:104A600019490A7BC97A02EB0120FBF7C7FD1849F7
:104A7000C1F8260010211248FBF7C3FB02E04220D8
:104A8000104908700F480178114801730D480178EA
:104A90000F4841740B4801780D48C17609480178E8
:104AA0000B4880F8251007480178094880F82A103B
:104AB00010BD000024000020250000203A00002046
:104AC0003F0E0020440000205D0E00200000204129
:104AD0000F0E00200000C84210B509A000F058F9E0
:104AE000002406E00948015D09A000F051F9601CAE
:104AF000C4B20F2CF6DB08A000F04AF910BD00008C
:104B0000576561746865723A000000005D0E002010
:104B100030782530325820000D0A000010B50020F2
:104B20001E49087007201E49087008211D48FEF71D
:104B300059FF9620FDF7A5FB1B480078032823D1D9
:104B40001948407803281FD14E201849087018488A
:104B500015490A6802608A888280897981710520F6
:104B6000FDF78FFB12490A79C97802EB0120FBF7A8
:104B700045FD04460F49FBF75CFC0F49C8610A4834
:104B800000210160416002E04220084908700748A6
:104B90000178094880F8201010BD00002400002092
:104BA000250000204D0000203F0E0020580000206E
:104BB00046000020000020410F0E002010B509A083
:104BC00000F0E6F8002406E00A48015D0AA000F0C3
:104BD000DFF8601CC4B2072CF6DB09A000F0D8F89F
:104BE00010BD000057696E64446972656374696F33
:104BF0006E3A000046000020307825303258200000
:104C00000D0A000010B500201E49087007201E493B
:104C1000087008211D48FEF7E5FE9620FDF731FBE0
:104C20001B480078022824D119484078032820D155
:104C30004E2018490870184815490A6802608A8889
:104C40008280897981710520FDF71BFB12490A7961
:104C5000C97802EB0120FBF7D1FC04460F49FBF7B2
:104C6000E8FB0F49C1F812000948002101604160CA
:104C700002E042200749087006480178084881751B
:104C800010BD000024000020250000202D00002081
:104C90003F0E002038000020260000200000A04128
:104CA0000F0E002010B509A000F072F8002406E0F5
:104CB0000948015D09A000F06BF8601CC4B2072C24
:104CC000F6DB08A000F064F810BD000057696E64C0
:104CD00053706565643A0000260000203078253066
:104CE000325820000D0A000010B5FDF7FDFD08B98F
:104CF000002010BD6420FDF7C9FDFDF73BFE18B98B
:104D0000FDF71AFE0020F4E70F20FDF7BFFDFDF7C9
:104D100031FE0020FDF7BAFDFDF72CFE0020FDF767
:104D2000B5FDFDF727FEFDF707FE0120E1E710B511
:104D3000FDF7DAFD08B9002010BD6420FDF7A6FDDF
:104D4000FDF718FE18B9FDF7F7FD0020F4E7102075
:104D5000FDF79CFDFDF70EFE8020FDF797FDFDF7AA
:104D600009FEFDF7E9FDFDF7BFFD6420FDF78EFDAF
:104D7000FDF700FE0F20FDF789FDFDF7FBFD842008
:104D8000FDF784FDFDF7F6FDFDF7D6FD0120D3E725
:104D90000FB4054B10B503A9044A029800F020F99E
:104DA00010BC5DF814FB000061570008840000206F
:104DB0000FB47CB50C0009AD01D0611E00E00021EC
:104DC000CDE90001064B6A462946089800F008F92B
:104DD000002C02D0009A002111707CBC5DF814FBFD
:104DE000E75600080FB4084B10B504A902AA0398AF
:104DF00000F0F6F8044602A9002000F07FFC2046EF
:104E000010BC5DF814FB0000FD5600080048704718
:104E100088000020014800687047000088000020DA
:104E200002E008C8121F08C1002AFAD17047704773
:104E3000002001E001C1121F002AFBD170470000D1
:104E40000149086070470000880000202DE9FF5FDD
:104E500082B00021DDE90430020DDDF840B00343EB
:104E600018D044F61050A2F2FF32424315141198A4
:104E700001281FD0A5EB0B00401C5FEA000A4FF091
:104E800000064E4FDFF83891B046504615D5CAF1AE
:104E9000000413E0119801244AA3012801D16FEA0C
:104EA0000B010298119AC0E90031C0E9024206B034
:104EB000BDE8F09FCBF10000DFE704460021404A47
:104EC000491842EB0450CDE9001012E0E00707D08A
:104ED00032463B4640464946FBF7EEFD8046894652
:104EE00032463B4610461946FBF7E6FD06460F469E
:104EF0006410002CEAD1DDE90401DDE90023BAF1F8
:104F0000000F06DAFBF7D8FD42464B46FBF7D4FD0F
:104F100005E0FBF743FE42464B46FBF73FFE0446E7
:104F20000E460022284BFBF78BFB03D84FF0FF30D7
:104F3000014607E00022254B20463146FBF7B7FA31
:104F4000FBF79BFE102409E0002C0ADB0A22002359
:104F5000FBF7D4FB039B30321A55641E50EA010262
:104F6000F2D1641C039AC4F111031444119A012A6A
:104F700003D0012208430DD10AE0084304D00020E9
:104F80004FF0110B119072E7A3EB0B056D1E0DE0B6
:104F90005B4504DD4FF0000205F1010504E003DA92
:104FA0004FF00002A5F10105002AECD002981199FA
:104FB000C0E90231C0E9004579E700000000144073
:104FC0000000F03F300000000000F0430000E03F30
:104FD00030380A2801D201207047002070470000B5
:104FE0002DE9FF4F95B09A46884606460025EEE12A
:104FF000252877D100242746F94A0121039400E0AF
:10500000044316F8013F203B01FA03F01042F7D1A8
:1050100030782A2811D06FF02F033078A0F13002B9
:10502000092A16D8039A44F0020402EB820203EB29
:1050300042021044761C0390EFE758F8042B0392C9
:10504000002A03DA504244F40054039044F002046E
:10505000761C30782E2816D116F8010F44F004047F
:105060002A280DD06FF02F023078A0F13003092BE1
:1050700009D807EB870302EB4303C718761CF3E755
:1050800058F8047B761C30786C280FD006DC4C284E
:1050900017D068280DD06A2814D104E0742810D0E5
:1050A0007A280FD10DE044F400140AE044F480148F
:1050B00001E044F440147278824202D104F5801475
:1050C000761C761C307866280BD013DC582877D0F5
:1050D00009DC002875D04528F6D04628F4D04728AA
:1050E0001AD193E118E0632835D0642879D0652877
:1050F00012D18BE1702873D008DC6728F1D06928C1
:105100006FD06E280DD06F2806D1ACE073282CD05C
:10511000752874D0782853D05246179990476D1C43
:1051200054E1C4F30250022809D003280DD0D8F866
:10513000001004280DD00D6008F1040846E1D8F8ED
:105140000010EA17C1E90052F6E7D8F800100D8008
:10515000F2E70D70F0E718F8041B8DF8001000203E
:105160008DF80100EB46012003E058F804BB4FF036
:10517000FF3061074FF0000102D40DE009F1010199
:105180008946B9420FDA8145F8DB1BF8091000297E
:10519000F4D108E009F1010189468142FADB1BF8EC
:1051A00009100029F6D103985346A0EB09072146C0
:1051B0003846179A00F080FA284400EB090507E00A
:1051C00044E008E10DE01BF8010B524617999047A7
:1051D000B9F10109F7D2534621463846179AF2E051
:1051E00039E00A21C4F302524FF0000B0091022A69
:1051F00006D058F8040BC117032A09D00AE023E0AF
:1052000008F1070020F00702F2E80201904605E0ED
:1052100000B2C117042A01D140B2C117002906DA31
:105220000A460021404261EB02012D2202E02205E4
:1052300004D52B228DF80420012203E0E20701D0DF
:105240002022F7E7914657E00A2100E010214FF0B5
:10525000000B00910BE010214FF0000B44F0040410
:105260000827009103E008204FF0000B0090C4F3E2
:105270000252022A05D058F8040B0021032A08D054
:1052800008E008F1070020F00702F2E8020190466A
:1052900003E080B2042A00D1C0B24FF00009220717
:1052A0002AD53278702A07D0DDF800C08CF0100CB7
:1052B0005CEA0B0C05D00EE040228DF804200122A0
:1052C00008E050EA010306D030238DF804308DF851
:1052D000052002229146009B83F0080353EA0B034A
:1052E0000AD150EA010201D1620705D530228DF8BA
:1052F00004204FF001097F1E3278582A04D039A2C9
:105300000C920CAA02920BE03BA2F9E75B46009AD2
:10531000FBF7F4F90C9B9B5C029A521E02921370ED
:1053200050EA0102F2D1029804A9081A00F1200BF8
:10533000600702D524F4803400E001275F4502DDD8
:10534000A7EB0B0000E0002000EB0B01009003989E
:105350004944401A0390E00306D453462146179A65
:10536000039800F0A9F90544002706E001A8524679
:10537000C05D179990476D1C7F1C4F45F6DBE0031D
:105380000CD553462146179A039800F095F9054429
:1053900004E030205246179990476D1C0099481E32
:1053A00000900029F5DC08E0029802995246007846
:1053B000491C0291179990476D1CBBF10001ABF19C
:1053C000010BF1DC5BE100F065F90544761C3078F7
:1053D00000287FF40DAE19B02846BDE8F08F00001C
:1053E00009280100303132333435363738396162BB
:1053F000636465660000000030313233343536377F
:10540000383941424344454600000000600700D45B
:10541000062708F1070020F00700F0E80223804685
:1054200003F0004C5FEA0C0001D097A009E02005D2
:1054300001D596A005E0E00701D095A001E0AFF20C
:105440004C001390307823F0004365280CD006DC24
:10545000452809D046281DD047287FD13BE0662843
:1054600018D067287AD136E00021112F01DB1120F6
:1054700000E0781CCDE9000104A90CA8FFF7E6FCC8
:10548000DDE90D010C9A4FF0000B07F101091092B4
:1054900000914EE04FF000400097CDE9011004A9C3
:1054A0000CA8FFF7D3FCDDE90D020C9B0F994FF020
:1054B000000B91461093009211B9791C00EB010981
:1054C000B7EB090003D4C0F1FF3B07F10109A9EBD9
:1054D0000700019042E0012F00DA01270021112F7F
:1054E00001DD112000E03846CDE9000104A90CA837
:1054F000FFF7ACFCDDE90D010C9A00914FF0000BB9
:10550000B946109221070FD4009A4A4503DA914612
:1055100001E0A9F10109B9F1010F05DD109AA9F126
:105520000101515C3029F4D0B84202DA10F1040FC5
:1055300003DA0121CDE9011010E0002803DC8344E7
:10554000A9EB000102E0411C494500DD8946A0EBC2
:105550000B00401C01904FF000400290200705D442
:105560000198484502DB4FF0FF30019000208DF894
:105570004B0002980DF14B07B0F1004F25D00220EF
:105580000C902B200D90029800280CDA40420290DB
:105590002D200D9007E00A210298FBF799F8303191
:1055A000029007F8011D0C99481E0C900029F2DCAE
:1055B00002980028EFD1791E0D980870307800F01D
:1055C000200040F0450007F8020D11A8C01BC01DC7
:1055D00002901398007800B1012000EB09010198B6
:1055E00001EBE071029801440398401A401E0390B9
:1055F000E00306D453462146179A039800F05CF85E
:1056000005441398007818B15246179990476D1CBD
:10561000E00323D553462146179A039800F04CF82F
:1056200005441BE0BBF1000F07DB0098584504DD83
:105630001098179910F80B0001E017993020524686
:10564000904701980BF1010B401E05F101050190F7
:1056500004D12E205246179990476D1CB9F10001D4
:10566000A9F10109DEDC05E017F8010B5246179994
:1056700090476D1C0299481E02900029F4DC5346A5
:105680002146179A03989EE62D0000002B0000008B
:10569000200000002DE9F041044600251E46174673
:1056A000880404D405E039462020B0476D1C641EF0
:1056B000F9D52846BDE8F0812DE9F04104460025E2
:1056C0001E469046C80301D5302700E020278804F5
:1056D00004D505E041463846B0476D1C641EF9D537
:1056E0002846BDE8F0814A68002A06D00A68531CA3
:1056F0000B6010704868401E486070470A68531C71
:105700000B601070704730B583B00446FFF782FB22
:1057100005460020CDE90000024621466846FBF719
:1057200004F92846FFF78CFBDDE9000103B030BD2A
:105730000A49D1F80411FF2904D90021074AC2F807
:1057400004110AE00549D1F80421D1F80411491CDB
:10575000024BC3F804111946885470478C0000208E
:1057600070B504460D46A1B20548FEF77EFF00BFA6
:1057700080210348FEF7ACFE0028F9D0204670BD1A
:10578000004400407FB504460D46A0796179227936
:10579000A378CDE90032CDE902106378207800F5D6
:1057A000FA6202A12846FFF71DFB7FBD2530346455
:1057B000253032642530326425303264253032643D
:1057C00025303264000000000EB501210846FDF7C7
:1057D000ADFF01218748FCF725FEFCF77DFEFDF7B4
:1057E0005DF94FF4A060FDF75DFCFDF771F9FDF781
:1057F0002BF9FDF725F9FDF71FFAFEF75EFF4FF4D1
:10580000E13000F073F94FF4E13000F0CBF94FF4E0
:105810001650FEF771F8FBF785FD774B0122182132
:105820006420FDF7D1F87548754B764A76490090AB
:105830007648FEF7A1FA102200217048FAF72AFDF7
:1058400073490860FDF71AFF72490860084600684E
:10585000FCF792FF7048007808B9FBF73DFC6D48F3
:105860000068FAF7D9FE044622460B466BA0FFF704
:105870008FFA6D490720FEF72BFB6C48FEF7E4F822
:105880006A48FEF7C1F9FEF751FCB1E068480078BC
:1058900000283AD10120664908705F48007828B98D
:1058A000FDF7E2F858495948FEF78EFFFDF7DCF89E
:1058B0006048007800BB01205E49087056480078B7
:1058C000022805D052480068FEF7B0FF5049086032
:1058D0005148007858490870FDF7D0FE4D490860DE
:1058E00008460068FCF748FF5348007828B94A4842
:1058F000007810B1FBF7E6FB07E04F48007820B1D5
:105900004548007808B9FBF7E7FB434800780228D0
:1059100047D04A48007828281FD007DC78B10A28E9
:1059200012D0142813D01E283AD113E0322819D0EF
:105930003C281AD046281BD0502831D11BE0FFF755
:1059400037F8FDF791F82BE0FFF7C6F828E0FFF7EE
:1059500059F925E0FFF7A6F922E0FFF7DFF8FDF798
:1059600083F81DE0FFF72AF91AE0FEF797F917E030
:10597000FEF7E2F914E02D4880792C4949792B4A49
:105980001279CDE900210290284883784278007886
:1059900000F5FA612AA0FFF7FBF9FDF765F800BFF3
:1059A0000CE026480078282190FBF1F201FB120060
:1059B00020B9FDF759F82BA0FFF7EAF91B48144965
:1059C000114A124BCDE9002102900D4A0D492B4896
:1059D000FBF7F6FC19480078401C782190FBF1F2A7
:1059E00001FB12001549087040F2F310FCF749FC66
:1059F0004CE70000000230006A000020AD0F0020DC
:105A0000780F0020580F0020380F0020180F0020BA
:105A10006C0000207000002067000020506F776548
:105A2000723A25660D0A00007C00002075000020F7
:105A3000680000206900002083000020740000201E
:105A400054696D653A2534642D253032642D253036
:105A500032642D253032643A253032643A253032B2
:105A6000640D0A00434C4F534520525334383520BF
:105A7000414E442034470D0A000000006C0E002007
:105A8000002004E00021154A1154411CC8B210281E
:105A9000F8DB002005E00022104910310A54411CB7
:105AA000C8B28028F7DB002004E000210C4A115422
:105AB000411CC8B20A49D1F804118142F5D800202E
:105AC000064981F8900081F891000549C1F8040168
:105AD0000449087004490870704700006C0E0020EB
